:200000000215D4F090016BE03400F0C2AF75C2A575C35AD2AF22E4F5E222FF021B9EFFFFEE
:20002000FFFFFF020E20040800000000420178FFFF42017C000000EF7003D29722C29722A7
:20004000F0D880A85FE087C9010FE47816F6F52AC2877598F0F5BD75BF0475BE7075BAE0A8
:2000600075BD03D2ACD2EE22FFFFFF021863E709F608DFFA8046E709F208DFFA803E888259
:200080008C83E709F0A3DFFA8032E309F608DFFA8078E309F208DFFA807088828C83E309D4
:2000A000F0A3DFFA806489828A83E0A3F608DFFA805889828A83E0A3F208DFFA804C80D21A
:2000C00080FA80C680D4806980F28033801080A680EA809A80A880DA80E280CA80338982D8
:2000E0008A83ECFAE493A3C8C582C8CCC583CCF0A3C8C582C8CCC583CCDFE9DEE7800D894F
:20010000828A83E493A3F608DFF9ECFAA9F0EDFB2289828A83ECFAE0A3C8C582C8CCC5836B
:20012000CCF0A3C8C582C8CCC583CCDFEADEE880DB89828A83E493A3F208DFF980CC88F0F7
:20014000EF60010E4E60C388F0ED2402B4040050B9F582EB2402B4040050AF232345822315
:200160009000BE73BB010689828A83E0225002E722BBFE02E32289828A83E49322BB010C4E
:20018000E58229F582E5833AF583E0225006E92582F8E622BBFE06E92582F8E222E582297B
:2001A000F582E5833AF583E49322BB010689828A83F0225002F722BBFE01F322EF8DF0A4DF
:2001C000A8F0CF8CF0A428CE8DF0A42EFE22E88FF0A4CC8BF0A42CFCE98EF0A42CFC8AF068
:2001E000EDA42CFCEA8EF0A4CDA8F08BF0A42DCC3825F0FDE98FF0A42CCD35F0FCEB8EF0E4
:20020000A4FEA9F0EB8FF0A4CFC5F02ECD39FEE43CFCEAA42DCE35F0FDE43CFC2275F0086D
:20022000758200EF2FFFEE33FECD33CDCC33CCC58233C5829BED9AEC99E58298400CF582C9
:20024000EE9BFEED9AFDEC99FC0FD5F0D6E4CEFBE4CDFAE4CCF9A88222B800C1B90059BAD6
:20026000002DEC8BF084CFCECDFCE5F0CBF97818EF2FFFEE33FEED33FDEC33FCEB33FB103A
:20028000D703994004EB99FB0FD8E5E4F9FA227818EF2FFFEE33FEED33FDEC33FCC933C99A
:2002A00010D7059BE99A4007EC9BFCE99AF90FD8E0E4C9FAE4CCFB2275F010EF2FFFEE3300
:2002C000FEED33FDCC33CCC833C810D7079BEC9AE899400AED9BFDEC9AFCE899F80FD5F047
:2002E000DAE4CDFBE4CCFAE4C8F922EB9FF5F0EA9E42F0E99D42F0E89C45F022E8600FEF05
:20030000C333FFEE33FEED33FDEC33FCD8F122D083D082F8E4937012740193700DA3A393B2
:20032000F8740193F5828883E473740293B5F0067403936860E9A3A3A3A380D87B007A009C
:2003400079707D547C007F04121AF775770075780075796A757A047B007A00797012190F85
:200360007B007A0079707D4A7C007F02121AF775770075780075796E757A027B007A007924
:200380007012190FE56F456E7005F56E756F198529658528648527638526627F1C7E197DE8
:2003A000027C00AB65AA64A963A862C31202EB40167F387E327D047C00A8621202EB5007AF
:2003C000E475690402044B7F387E327D047C00AB65AA64A963A862C31202EB40157F707EEA
:2003E000647D087C00A8621202EB5006E475690380597F707E647D087C00AB65AA64A9639F
:20040000A862C31202EB40157FE07EC87D107C00A8621202EB5006E4756902802E7FE07E5F
:20042000C87D107C00AB65AA64A963A862C31202EB40157FC07E917D217C00A8621202EB2F
:200440005006E47569018003E4F569F568F567F566AF65AE64AD63AC62A969A8011202FC9B
:200460008F658E648D638C62E56FAE6EA801088005C333CE33CED8F9F56F8E6E7F057E001A
:200480007D587C0012166385696185686085675F85665EAF61AE60AD5FAC5E78141202FC80
:2004A0008F618E608D5F8C5EE561441CFFE5604404FEE55F4485FDA804A905AA06AB079002
:2004C0000016E075F020A4FFAEF0EE3395E0FDFCEB4FF561EA4EF560E94DF55FE84C1216CE
:2004E0005A7FB37E047D007C001216637FC27E4E7D007C1812166374017E00A86908800530
:20050000C333CE33CED8F9FFEE3395E08F698E68F567F566856D61856C60856B5F856A5ECB
:20052000AF61AE60AD5FAC5EC006C007AE6EAF6FAB07AA06E4F9F8D007D0061202598F617F
:200540008E608D5F8C5E78031202FC8F618E608D5F8C5EE5614401F561E5604480F560E574
:200560005FF55FE55E440812165AAB6DAA6CA96BA86AAF65AE64AD63AC62120259AC00AD59
:2005800001AE02AF038F618E608D5F8C5EC006C007AE6EAF6FAB07AA06E4F9F8D007D00699
:2005A0001202598F618E608D5F8C5E78031202FC8F618E608D5F8C5EAF65AE64AD63AC6297
:2005C000AB6DAA6CA96BA86A1202598F658E648D638C62780F1202FC8F658E648D638C623B
:2005E000E5614565F561E5604564F560E55F4563F55FE55E456212165A02000BE4F556F595
:2006000057900071E0755400F555A3E0FEE42555F555EE3554F554A3E0F55390006EE0609D
:20062000030206B87B017A007974AD55AC54AF53121AF7E554600302083BE555245B6027CC
:2006400024E4603C14603924F8604024EA604B24FE6052243E600302083B7B007A00795830
:200660007562027D03800B7B007A0079587562027D027F901216D2900074E558F002083BF9
:20068000900016E0900074F002083B900074E525F0E524FFA3EFF002083BE4900074F0A353
:2006A00004F002083B90016CE0900074F090016BE0900075F002083BE553B4021690007412
:2006C000E0755600F557A3E0FEE42557F557EE3556F556E5547079E555245E602614602337
:2006E00024FE603124D3603F14604E24B37061C3E55694004053D3E55794FFE5569403406E
:200700004F8046900074E0FFC394004006EFD394FF403D8034900074E0FFC394004006EF4F
:20072000D3947D402B8022900074E0FFC394004006EFD3940240198010900074E0FFC394CD
:20074000004006EFD394C8400790006DE04420F090006DE0640A600302083BE5556440707C
:2007600004E5546401600F7B017A007974AD55AC54AF53121B33D200E5558554F012030F28
:2007800007B4002007C9004007E8004A07E8005407ED007507ED007707ED007807FF00A408
:2007A000080E00A5082000C0082A00C207C901400000083B120A6C90000AE0FEA3E0FF7D4F
:2007C00042121B691212638072757700757800757926757A047B017A00797412190F1203B6
:2007E0003C7F01121C66800512033C804E120A6C90000AE0FEA3E0FF7D42121B69803C90E2
:200800000074E090016EF0FD7B037F03800D900074E0900011F0FD7B037F02121BF6801BDC
:20082000900074E090000DF08011900074E0900008F012126312033C12000B900068E02459
:2008400002F52B22E4F53EF53FF5637F01121804EF253FF53FEE353EF53E0563E563C394E1
:200860000840E8E53FAE3E7803CEC313CE13D8F9F53F8E3E7B007A00795E7D767C007F01AC
:20088000121AF775770175780075791B1219067B007A00795E7D777C007F01121AF7757756
:2008A000017578007579641219067B007A00795E7D407C007F04121AF775770075780075CE
:2008C0007926757A041219097B007A00795E7D787C007F04121AF775770175780175796F37
:2008E000757A0412190990001BE0F404F562853E64853F6590016FE0FCA3E0FDA3E0FEA327
:20090000E0FFAB29AA28A927A826C31202EB504E90001BE0C36480948090016FE0FCA3E0AF
:20092000FDA3E0FEA3E05019C39529FBEE9528FAED9527F9EC9526F8AF62E4FCFDFE020AF3
:2009400008C39529FBEE9528FAED9527F9EC9526F890001BE0FF3395E0FEFDFC8049AF2963
:20096000AE28AD27AC2690016FE0F8A3E0F9A3E0FAA3E0FBC31202EB4003020A4290001BAE
:20098000E0C36480948090016FE0F8A35056A3A3C3E5299BFBE5289AFAE52799F9E526980C
:2009A000F8AF62E4FCFDFE1201CEC004C005C006C007900064E0FF3395E0FE7C037DE812ED
:2009C00001BCAB07AA06EA3395E0F9F8D007D006D005D004120259C3E5659FF565E5649EC5
:2009E000F564805EE0F9A3E0FAA3E0FBC3E5299BFBE5289AFAE52799F9E52698F890001B00
:200A0000E0FF3395E0FEFDFC1201CEC004C005C006C007900064E0FF3395E0FE7C037DE804
:200A20001201BCAB07AA06EA3395E0F9F8D007D006D005D004120259EF2565F565EE3564E5
:200A4000F564C3E564648094805006E4F53EF53F22D3E56594FFE564648094834007753E88
:200A600003753FFF2285643E85653F227B007A00795C7D207C007F02121AF77577017578CB
:200A80000075790A757A027B007A00795C12190F7B007A00795C7D757C007F01121AF77519
:200AA0007701757800757914757A017B007A00795C12190F7B007A00795C7D777C007F0121
:200AC000121AF7757701757800757964757A017B007A00795C12190F7B007A00795C7D7814
:200AE0007C007F04121AF775770175780175796F757A047B007A00795C12190F900014E021
:200B0000F404F56090000AE0F561A3E0F56290016FE0FCA3E0FDA3E0FEA3E0FFAB29AA28D9
:200B2000A927A826C31202EB504E900014E0C36480948090016FE0FCA3E0FDA3E0FEA3E018
:200B40005019C39529FBEE9528FAED9527F9EC9526F8AF60E4FCFDFE020C22C39529FBEE46
:200B60009528FAED9527F9EC9526F8900014E0FF3395E0FEFDFC8049AF29AE28AD27AC263E
:200B800090016FE0F8A3E0F9A3E0FAA3E0FBC31202EB4003020C5C900014E0C36480948058
:200BA00090016FE0F8A35056A3A3C3E5299BFBE5289AFAE52799F9E52698F8AF60E4FCFDA1
:200BC000FE1201CEC004C005C006C007900064E0FF3395E0FE7C037DE81201BCAB07AA0692
:200BE000EA3395E0F9F8D007D006D005D004120259C3E5629FF562E5619EF561805EE0F9BE
:200C0000A3E0FAA3E0FBC3E5299BFBE5289AFAE52799F9E52698F8900014E0FF3395E0FE6F
:200C2000FDFC1201CEC004C005C006C007900064E0FF3395E0FE7C037DE81201BCAB07AA3C
:200C400006EA3395E0F9F8D007D006D005D004120259EF2562F562EE3561F561C3E5616434
:200C60008094805008E490000AF0A3F022D3E56294FFE5616480948390000A40087403F02E
:200C8000A374FFF022E561F0A3E562F02275530075546774072554F554E43553F553FAA96E
:200CA000547B01C0031B8B7775780075790C757A02D00312190F74022554F554E43553F506
:200CC00053FAA9547B01C0031B8B7775780075790F757A02D00312190F74022554F554E46A
:200CE0003553F553780DE6184670427810E6641C184660037F902274182554F554E435530F
:200D0000F553FAA9547B01C0038B7775780175797E757A02D00312190F90017AE4F0A30475
:200D2000F0F543C294E4A3F0A3F0020E1D780CE6FC08E6FD90017AE06C7003A3E06D600390
:200D40007F9022D37810E6942018E6940040037F9022ED24FF7813F6EC34FF18F6E6FE08BD
:200D6000E67805C333CE33CED8F97913F7EE19F77813E6900040F018E690003FF0E418F619
:200D80007811E6C31896E41896501E7811E6FF2554F582E43553F583E0FE74412FF582E414
:200DA0003400F583EEF00680D712000B7B017A00793F7810E62402F5667FA0121A31780E90
:200DC000A60712000B780EE670037F9022780FE6FE08E6FF90017DE02FF090017CE03EF0B9
:200DE000780DE66403184670267811F67811E6FF901CCA93FE74722FF582E43400F583E03D
:200E00006E6005D2947F9022781106E6B408DD90017BE004F0700690017AE004F07F002284
:200E2000C0E0C083C082C0D075D000C000C004C005C006C007C2AF209803020F8EC2987548
:200E40003400753500AF997816E6B40C004003020F8A900E59F8282873020E7D020E7D028C
:200E60000E8C020E9B020EAB020EC3020EDB020EF6020F0E020F1E020F32020F787816BF47
:200E800055057602020F8E7600020F8E7816BFAA057603020F8E7600020F8E781676047823
:200EA00015A607900067EFF0020F8E7815E66FF6900068EFF0781660057605020F8E7600C9
:200EC000020F8E7816BFA00E7606900069EFF0781566F6020F8E7600020F8E7816BFFF112A
:200EE00076077815E66FF690006AE4F0F52E020F8E7600020F8E7815E66FF690006BEFF046
:200F0000781660057608020F8E7600020F8E7815E66FF690006CEFF078167609807078156F
:200F2000E66FF690006DEFF0781476077816760A805C7815E66FF67814E62467F582E43433
:200F400000F583EFF006E6FE24FCFD90006BE0B505047816760B900068E02402FDE433FC7D
:200F6000EED39DEC6480F8748098402278167600752A01752E0380167815E66F6003752E95
:200F80000478167600752A01800478167600D2AFD007D006D005D004D000D0D0D082D08335
:200FA000D0E032E4F553F55490017CE0FCA3E0FDC3E49DF556741D9CF555E556541FF55B6D
:200FC000E556AE557805CEC313CE13D8F9F5568E55E55B605290017DE0900040F0EC9000B6
:200FE0003FF0E4F557F558C3E558955BE5579400501874412558F582E43400F58374FFF081
:201000000558E55870E1055780DD12000B7B017A00793FE55B2402F5667FA0121A318F5C39
:20102000E55C70037F9022E4F559F55AC3E55A9556E559955540030210BCE4F55CFFFE0FE3
:20104000BF00010EBE4EF8BF20F590017DE0255BFD90017CE03400FCE55AAE597805C333A9
:20106000CE33CED8F92DFFEC3EFE900040EFF0AF0690003FEFF0E4F557F55874412558F5C6
:2010800082E43400F58374FFF00558E558700205576420455770E412000B7B017A00793F34
:2010A0007566227FA0121A318F5CE55C70037F9022055AE55A7002055902102C9000007437
:2010C000FFF07B017A007900FD7C017F01121B33D294C2AF75E40875E596E5E4540F70FA9A
:2010E00075E46775E596E5E4540F70FA75E60275E46C75E51DE5E4540F70FA75E60375E4C4
:201100006C75E561E5E4540F70FA80FEE4F553F55490006EE070469000687412F090006B22
:201120007410F090006FE52DF0900016E0900070F0A3F0A3E54EF0E54DA3F0A3E53FF0E50A
:201140003EA3F0A3E54CF0E54BA3F0A3E525F0E524FFA3EFF0A3E54AF0752B142290006E7A
:20116000E06401600302125F900068745EF090006B745CF07B017A0079717D017C007F0581
:20118000121AF77B017A0079767D087C007F04121AF77B017A00797A7D207C007F0B121AE8
:2011A000F77B017A0079857D757C007F03121AF77B017A0079887D407C007F18121AF77BCC
:2011C000017A0079A07D787C007F04121AF77B017A0079A47D807C007F0E121AF77B017A32
:2011E0000079B27DA27C007F04121AF77B017A0079B67DC07C007F03121AF7E4900073F029
:20120000A3F0900016E09000B7F0A3F0E4A3F0A304F090016CE09000BBF090016BE0900059
:20122000BCF07B017A0079BD7DE47C007F0A121AF712000BE4FF74712FF582E43400F58332
:20124000E02554F554E43553F5530FBF56E812000B90006FE554F0E553A3F0752B60227585
:201260002EC322900016E0FFF55DE4F54DF54EF54BF54CF53EF53FEF7004F52D800B20A162
:20128000047F0080027F018F2D30A3047F0080027F018F4A12000B900008E0700890001629
:2012A000F0F540805190016EE0FF3395E0FEEF25E0FFEE33FED3E5259FEE6480F8E52464EF
:2012C0008098400AE4900016F07540018028900011E0FF3395E0FEEF25E0FFEE33FEC3E5F4
:2012E000259FEE6480F8E52464809850099000167401F0E4F540900016E0FF120037900000
:2013000016E0655D600312033CE4F55C7F011218047F021218047F20121804055CE55CC39D
:20132000946440E8E4F55C7F02121804EF254CF54CEE354BF54B7F20121804EF254EF54EE8
:20134000EE354DF54D055CE55CC3940840D9E54CAE4B7803CEC313CE13D8F9F54C8E4BE5C7
:201360004EAE4D7803CEC313CE13D8F9F54E8E4D12084402000BC200121C9DEF24C8F5333A
:20138000E43EF532E43DF531E43CF530121C9DEF2464F547E43EF546E43DF545E43CF544E9
:2013A000D286C2A2C29DE4F543F52EF537F54F755032F521752232F524752532900007F021
:2013C000F54BF54CF54DF54EF53EF53F900008F0900016F0FF1200377F01121C6612000B09
:2013E0007B007A0079517D407C007F04121AF7757700757800757926757A047B007A007901
:201400005112190F7B017A00790D7DC07C007F01121AF7120A6C90000AE0FEA3E0FF7D4228
:20142000121B6912000B7B02E4FD7F90121BF67B017A01796E7DA47C007F01121AF79001BA
:201440006EE0FD7B037F03121BF67B017A0079117DA57C007F01121AF7900011E0FD7B0361
:201460007F02121BF67B017A0179777DD47C007F01121AF712000B12033C12174002195728
:201480007551017552007553E7AB510553E553AA527002055214F9E41201AAAB510553E5D7
:2014A00053AA527002055214F974551201AAAB510553E553AA527002055214F974AA1201F2
:2014C000AAAF2B7E00A853AC52AD517B017A00796712013EE52BFD7C00755A00755B00754F
:2014E0005C54AB51AA52A953121AB8E52B2553F553E43552F552AB510553E553AA527002E8
:20150000055214F9E5541201AAAB510553E553AA527002055214F9E41201AAC29BF523D22B
:2015200087FF0FBF80FC74E72523F582E43400F583E0F599E4F52A22E4F551F55290006C31
:20154000E02410601224F5607824FE600D14603A242470780205FC02110C90006EE0640142
:201560007071A3E07006752B0AF54322E543B4010E120FA38F5290006DE04552F080079082
:20158000006DE04490F0752B0A22121C9D8F3B8E3A8D398C38120C8D8F519000687409F097
:2015A00090006B7407F090006DE04551F090017BE0900070F090017AE0900071F0752B0BFF
:2015C0002290006EE0B4010B75A2082290006DE04410F0227581B00216150219A4E493A31B
:2015E000F8E493A34003F68001F208DFF48029E493A3F85407240CC8C333C4540F4420C8FB
:20160000834004F456800146F6DFE4800B0102040810204080900026E47E019360BCA3FF45
:20162000543F30E509541FFEE493A360010ECF54C025E060A840B8E493A3FAE493A3F8E40D
:2016400093A3C8C582C8CAC583CAF0A3C8C582C8CAC583CADFE9DEE780BEF55EAF61AE601F
:20166000AD5FFC8F778E768D758C74757820E4F57DF57CF57B757A80C2A5D2A2C2A2F579F6
:20168000E579C395785048E577557DFFE576557CFEE575557BFDE574557AFCE4FBFAF9F818
:2016A000C31202EB7004C2A48002D2A4E4FF0FBF02FCD2A5AF77AE76AD75AC747801120257
:2016C000FC8F778E768D758C74C2A5057980B1D2A222AE07121CAA121CC1E5D9641860023E
:2016E0008038AF05121CC1E5D964286002802B75D86430DBFDEE04FF121CC1E5D9644060DD
:20170000028017E4FFE56214FEEFC39E502175D84430DBFDE5D96450600675D8547F002280
:20172000E5DA1201AA740129F9E43AFA0F80D675D84030DBFDE5DA1201AA75D8547F0122C5
:20174000E4F55BF55C852421852522FB7A00795B756202FD7F901216D2E55CAE5B7807CEAF
:20176000A2E713CE13D8F8F55C8E5B855B24F525E5377015900177E075F002A4FFAEF0C3D0
:20178000E5259FF542E5248018E537B40216900177E075F002A4FFAEF0C3E5509FF542E59D
:2017A0004F9EF5412212000BE543600464107053121C9DAB33AA32A931A830C31202EB50BB
:2017C00018E53324C8F533E43532F532E43531F531E43530F530121CB7121C9DAB47AA46E3
:2017E000A945A844C31202EB5019E5472470F547E5463417F546E43545F545E43544F54409
:20180000121C9022E4F566F567FDFC8FA343C01043A120759705E59770047E0180027E008B
:20182000EE20E3F2EF24FE600D24E2600E241F701490FFFE800890FFFC800390FFF4E04244
:2018400067A3E04205EDAE047802C333CE33CED8F9AC06530403756600E5664204E567AE36
:2018600004FF22C0E0C083C082C0D075D000C000C006C00730992FC299C29B05239000EBA9
:20188000E02407FFE433FEC3E5239FEE6480F8748098501074E72523F582E43400F583E07F
:2018A000F5998002C287D007D006D000D0D0D082D083D0E0327B017A0079007DFF7C017F44
:2018C00001121AF7900000E0F4703AF07B017A0079007DFF7C017F01121B33E4900067F0D3
:2018E000A37408F0A374A0F0E4A3F0A37406F0A374FDF0A3740AF0A37401F0A3F0A3F075F6
:201900002B0A12148022757A017B007A00795E8B748A758976E57A24FFFFE434FFFEEF2567
:2019200076F576EE3575F575E4FFEFC3957A5026AB74E5761576AA7570021575F91201641A
:20194000FEAB770579E579AA787002057814F9EE1201AA0F80D422E490016BF0A3F0F55B8A
:20196000F55CC3E55B941D501B855C82855B83E493FF90016CE02F120003055CE55C70E2A6
:20198000055B80DEE4F55BF55CC3E55B94E3501390016CE024FF120003055CE55C70EA0511
:2019A0005B80E622121BCA12004A120016121376121C821218B5121C9D8F3B8E3A8D398CF0
:2019C00038121C9DC3EF953BFFEE953AFEED9539FDEC9538FCE47BE07A2EF9F8D31202EBB1
:2019E0005003E4F5431217A51219ED80D40535E535AE347002053414C394A0EE940F403051
:201A0000E52A64017022D287E52E700612000B121538E52E600C90006AF0900068E02402FB
:201A2000F52B12000B021480E4F534F5357816F622121CAA121CC1E5D964186002801BE414
:201A4000900180F0900180E0C395665022120164FF121CC1E5D96428600675D8547F00220D
:201A6000740129F9E43AFA900180E004F080D575D8547F0122A905E4900180F0900180E0B6
:201A8000C3995033A3EEF0A3EFF07D00900181E05480FC900181ECF0A3EDF0EC7004C2A4F1
:201AA0008002D2A4D2A5C2A5EF25E0FFEE33FE900180E004F080C5228B558A568957E480EE
:201AC00023ED1DAE0470011C4E601F900180E0FFAB550557E557AA567002055614F9120158
:201AE00064FEEF6E900180F080D7900180E0AB5AAA5BA95C0201AA8F748C758D768B778A8F
:201B0000788979E4F57AE57AC3957450250576E576AE757002057514FF121C22AB77057970
:201B2000E579AA787002057814F9EF1201AA057A80D4228F5D8C5E8D5F8B608A618962E421
:201B4000FCECC3955D5021055FE55FAE5E7002055E14FFAB60AA61A9628C827583001201A1
:201B60007DFD121C440C80D922EF7802C333CE33CED8F9FF5307FCBD41054306208013BDE2
:201B80004205430660800BBD43054306A080034306E0D286C2867D10121A75D28622C0E048
:201BA000C0D0C28E758D28758B00C2AFE50B2401F50BE4350AF50AE43509F509E43508F53D
:201BC00008D2AFD28ED0D0D0E0327584077585C075912E75929D75A40A75A53475B10275FA
:201BE000B201E5A7440475C1FFF5A775C2A575C35AD294D2AF228B5CE55CB40208755D015D
:201C0000755E18800CE55CB403078F5D8D5EE4F55F12000B7B007A00795D855C667F9002FF
:201C20001A31AD07EEFF530701A2AF9201C2AF8FF1AF058FF3E5F130E7FB53F17FAFF2A264
:201C40000192AF22AB07EEFF530701A2AF9201C2AF8FF18DF2AF038FF3E5F130E7FB53F172
:201C60007FA20192AF22E4FEEEC39F501412000BE4FDFC0DBD00010CBCFFF8BDFFF50E8086
:201C8000E722758910758D28E4F58BD2ABD28E22E5436401600612174012000B22C2AFAFE5
:201CA0000BAE0AAD09AC08D2AF2275DD0F75DC0F75D86430DBFD22E5436401600312126341
:121CC000228FDA75D84430DBFD22F0D880A85FE087C94D
:00000001FF