:2000000002140B040900000000010800420178FFFF42017C000000E4F5E2220219E6FFFF55
:20002000FFFFFF02095A121A1212004A120017120CA5121AFA121A6A12156F1217C180F824
:20004000F0D880A85FE087C9010FE47817F6F52AC2877598F0F5BD75BF0475BE7075BAE0A7
:2000600075BD03D2ACD2EE22FFFFFF02168B020423E86480F8E933E83360110460F0ED3342
:20008000EC337009E8FCE9FDEAFEEBFF220460DED3EB9FEA9EE99DE8C2E78CF0C2F795F012
:2000A000400CE8CCF8E9CDF9EACEFAEBCFFB1203EE85D0F05804700320D5B3E804700750C0
:2000C00002B2D502042D92D5EC0460F7E4CCC0E0C398F8603B94186008400DD0E0FB020466
:2000E00005E4FBFAC9FC8028E830E406E4C9FBE4CAFCE830E305E4C9CACBFCE85407601070
:20010000F8C3E913F9EA13FAEB13FBEC13FCD8F130F52FC3E49CFCEF9BFFEE9AFEED99FD56
:20012000D0E0FBEF4E4D4C701222DB0302042AEC2CFCEF33FFEE33FEED33FDED30E7EB022A
:200140000405EF2BFFEE3AFEED39FDD0E0FB50130BBB000302042DED13FDEE13FEEF13FF2D
:20016000EC13FC020405EC4D6011E8497017ED33EC3304600DE4FCFFFEFD22E933E8330430
:2001800070F80204231203EE58046009E4CC2481500628500902042D28400302042AC0E06C
:2001A000EB4A7044B98006D0E0FB020419EF4E701CBD8008EBFFEAFEE9FD80EBE98DF0A412
:2001C000FEE5F002024FE9CDF9EAFEEBFFEF89F0A4FCE5F0CE89F0A42EFFE435F0CD89F034
:2001E000A42DFEE435F08067EF4E7005BD80D780C3EF8BF0A4ACF0EE8BF0A42CFCE435F04F
:20020000F8EF8AF0A42CE5F038FCE433CB8DF0A42CFCE5F03BF8EE8AF0A42CFCE5F038F838
:20022000E433CF89F0A42CFCE5F038CF3400CE89F0A42FFFE5F03EFEE433C98DF0A42EFE2C
:20024000E5F039CD8AF0A42FFFE5F03EFEE43DFD33D0E0FB50070BBB000F02042DEC2CFCF7
:20026000EF33FFEE33FEED33FD02040502042DEC5D046005E8590470030204231203EE58F5
:200280000460F6EC4860F2EC7004FDFEFF22C860DB2481C85009C3986002500602042A985E
:2002A00050CAF582E9294B4A7005AB8202041975F0007C1A7880C3EF9BEE9AED99400DC3E7
:2002C000EF9BFFEE9AFEED99FDE842F0DC23ACF0D0E0FFD0E0FED0E0FDAB8220E7101BEB83
:2002E00060BAEC2CFCEF33FFEE33FEED33FD020405E803F830E705C0F075F000EF2FFFEE49
:2003000033FEED33FD40B830E7C280AA74F8CC6480CCC86480C8F582046043C3EB9FF5F0E8
:20032000EA9E42F0E99D42F0E89C45F060305018E5825FFFE582F42B5582FB50210ABA0048
:200340001D09B90019088016E5825BFBE582F42F5582FF50090EBE00050DBD00010CC3EB3B
:200360009FF5F0EA9E42F0E99D42F0E89C45F06007CC4820E701B3EC2275F020800E75F012
:2003800010800575F0087D007E007F003392D530D5031205EDEC334010EF33FFEE33FEED9F
:2003A00033FDEC33FCD5F0ED22E5F0247EA2D513CC92E7CDCEFF22EDD2E7CD33EC3392D5F0
:2003C00024814006E4FFFEFDFC22FCE4CFCECDCC24E0501174FF80EDC3CC13CCCD13CDCEF2
:2003E00013CECF13CF0470F030D5DE0205EDE9D2E7C933E833F892D5EDD2E7CD33EC33FC57
:200400005002B2D522EC30E7100FBF000C0EBE00080DBD00040BEB6014A2D5EB13FCED92F8
:20042000E7FD2274FFFCFDFEFF22E480F8A2D574FF13FC7D80E480EFE709F608DFFA8046F9
:20044000E709F208DFFA803E88828C83E709F0A3DFFA8032E309F608DFFA8078E309F20853
:20046000DFFA807088828C83E309F0A3DFFA806489828A83E0A3F608DFFA805889828A83FC
:20048000E0A3F208DFFA804C80D280FA80C680D4806980F28033801080A680EA809A80A864
:2004A00080DA80E280CA803389828A83ECFAE493A3C8C582C8CCC583CCF0A3C8C582C8CC7E
:2004C000C583CCDFE9DEE7800D89828A83E493A3F608DFF9ECFAA9F0EDFB2289828A83EC59
:2004E000FAE0A3C8C582C8CCC583CCF0A3C8C582C8CCC583CCDFEADEE880DB89828A83E498
:2005000093A3F208DFF980CC88F0EF60010E4E60C388F0ED2402B4040050B9F582EB24026C
:20052000B4040050AF232345822390048873BB010689828A83E0225002E722BBFE02E3224E
:2005400089828A83E49322BB010CE58229F582E5833AF583E0225006E92582F8E622BBFE60
:2005600006E92582F8E222E58229F582E5833AF583E49322BB010689828A83F0225002F7FA
:2005800022BBFE01F322EF8DF0A4A8F0CF8CF0A428CE8DF0A42EFE22BC000BBE0029EF8D44
:2005A000F084FFADF022E4CCF875F008EF2FFFEE33FEEC33FCEE9DEC984005FCEE9DFE0FB5
:2005C000D5F0E9E4CEFD22EDF8F5F0EE8420D21CFEADF075F008EF2FFFED33FD40079850E1
:2005E00006D5F0F222C398FD0FD5F0EA22C3E49FFFE49EFEE49DFDE49CFC22EB9FF5F0EAAA
:200600009E42F0E99D42F0E89C45F022D083D082F8E4937012740193700DA3A393F8740116
:2006200093F5828883E4737402936860EFA3A3A380DF90000EE054F07004F5588003755873
:200640000190007BE0F553900079E0755400F555A3E0FEE42555F555EE3554F5549000767B
:20066000E0600302070F7B017A00797CAD55AC54AF531218CDE5546003020951E5551206EF
:200680000C06A00306AE0406B6A406C3A506E5C106E5C206DCD206F0E006FCE200000951FE
:2006A000AF3AAE39AD38AC371203B7EF8004900020E025E080337B007A0079597563027DFD
:2006C00003800B7B007A0079597563027D027F9012150190007CE559F002095190007CE5AE
:2006E0003BF002095190001FE090007CF002095190007C7402F0A314F0020951900174E032
:2007000090007CF0900173E090007DF0020951E553B4021690007CE0755600F557A3E0FE18
:20072000E42557F557EE3556F556E55460030207DFE55524FE24FD503324E56041249860FF
:200740003D24E824FC504B605B14605824D3606614607524D260030207DF90007CE0FFC379
:200760009400403EEFD3941F4075806C90007CE0FFC394004006EFD3943F4063805AC3E50F
:20078000569400400BD3E55794FFE5569403404F804690007CE0FFC394004006EFD394FF7E
:2007A000403D803490007CE0FFC394004006EFD3947D402B802290007CE0FFC39400400618
:2007C000EFD394024019801090007CE0FFC394004006EFD394104007900075E04420F090DA
:2007E0000075E0640A60030209517B017A00797CAD55AC54AF5312197D90000A7401F0E5FC
:20080000546003020951E55512060C083F01084A02085D0308740808850A089A2008AFA22D
:2008200008AFA308B5A408C4A508D6C008E0C108EAC2092DD00935D2093DD3000009519078
:20084000007CE0FF90000DF0804A90007CE0900048F0E0C313F090000DE0FF803790007C4D
:20086000E0FCE41203838F3A8E398D388C3712190902095190001AE556F0A3E557F0900044
:200880000DE0FF800F900008E556F0A3E557F090000DE0FF12172D02095190000BE556F057
:2008A000A3E557F07D44FFAE56121944020951120B0002095190007CE0900176F0FD7B0303
:2008C0007F03800D90007CE0900013F0FD7B037F02121A3E807B90007CE090000EF08071BE
:2008E00090007CE0900012F0806790007CE0900017F0FF900012F0121B37121B227B017AD6
:2009000000797C7DC17C007F0112197D900017E06401703D754E01121B08EF2464F546E4D8
:200920003EF545E43DF544E43CF543802485564F855750801C90007CE0F53B801490007C3B
:20094000E0D3941040037409F090007CE0900011F0900070E02402F52B22C0E0C083C082A6
:20096000C0D075D000C000C004C005C006C007C2AF209803020AEBC298753400753500AF4D
:20098000997817E6B40C004003020AE7900993F82828730209B70209CD0209DC0209EB02F3
:2009A0000A08020A20020A38020A53020A6B020A7B020A8F020AD590000EE06F6003BFFECF
:2009C0000978177601C29D020AEB020AE77817BF55057602020AEB7600020AEB7817BFAA43
:2009E000057603020AEB7600020AEB90000EE06F6003BFFE10781776047816A60790006FB5
:200A0000EFF0020AEB020AE77816E66FF6900070EFF0781760057605020AEB7600020AEB82
:200A20007817BFA00E7606900071EFF0781666F6020AEB7600020AEB7817BFFF11760778BD
:200A400016E66FF6900072E4F0F52E020AEB7600020AEB7816E66FF6900073EFF07817602E
:200A6000057608020AEB7600020AEB7816E66FF6900074EFF07817760980707816E66FF6FC
:200A8000900075EFF0781576077817760A805C7816E66FF67815E6246FF582E43400F58397
:200AA000EFF006E6FE24FCFD900073E0B505047817760B900070E02402FDE433FCEED39D2B
:200AC000EC6480F8748098402278177600752A01752E0380167816E66F6003752E04781703
:200AE0007600752A01800478177600D2AFD007D006D005D004D000D0D0D082D083D0E03289
:200B0000E54264017003020CA4E53B64017003020CA490000AE06401600FE5226525700427
:200B2000E52165247003020C9F7B007A00795D7DA27C007F011218CD7B007A00795E7DA33D
:200B40007C007F011218CD7B017A0079117DD37C007F011218CD900011E0D3941040037430
:200B600009F0AF5D7E00AC40AD41120586AC06AD07EC12037E8F628E618D608C5FE55E702B
:200B800003755E64AF62AE61AD60AC5FC004C005C006C007AC5EE4120383A804A905AA063D
:200BA000AB07D007D006D005D00412026F8F628E618D608C5F900011E0FCE4120383AB62EC
:200BC000AA61A960A85F1200718F628E618D608C5FE4FFFEFDFCAB62AA61A960A85F1203A8
:200BE0000C500BE4F529F528F527F526802FE4FFFE7D7C7C42AB62AA61A960A85F12030CA8
:200C0000600F400DE4F529F52875277C752642800C856229856128856027855F2690000EA6
:200C2000E054F07004F567800375670190000DE0FCE4120383AB29AA28A927A826120075A0
:200C4000C004C005C006C007900048E0FCE4120383D003D002D001D0001200758F668E6599
:200C60008D648C63E4FFFE7D7C7C42AB66AA65A964A86312030C600D400BE4F566F56575DD
:200C8000647C756342AF66AE65AD64AC6312190985663A856539856438856337121B22E423
:200CA00090000AF022E4FF121B37E490000AF0121B08EF24F4F533EE3401F532E43DF531DE
:200CC000E43CF530121B08EF2464F546E43EF545E43DF544E43CF543754E01D286E4F542A3
:200CE000F52E7B017A00790E7DC0FC7F011218CD7B017A0079177DC27C007F011218CD7B71
:200D0000017A0079127DC17C007F011218CDE4F53BF54F755032F521752232F52475253289
:200D2000F529F528F527F5267F1E121A94900017E0FF121B377D577F047E3C1219447B00FF
:200D40007A0079517D207C007F021218CD755F0175600075610B7562027B007A0079511289
:200D6000177990000BE0FEA3E0FF7D44121944121B2290000EE054F07004F55B8003755B90
:200D8000017B007A0079517D087C007F021218CD755F0175600075611A7562027B007A00B2
:200DA00079511217797B007A0079517D0A7C007F021218CD755F017560007561087562022C
:200DC0007B007A0079511217797B017A00790D7D017C007F011218CD7B017A0079487D028F
:200DE0007C007F011218CD900048E0C313F090000DE0FF12172D7B02E4FD7F90121A3E7B5E
:200E0000017A0179767DA47C007F011218CD900176E0FD7B037F03121A3E7B017A00791383
:200E20007DA57C007F011218CD900013E0FD7B037F02121A3E121B221216DD120B0002162B
:200E40002E75530075546F74072554F554E43553F553FAA9547B01C0031B8B5F75600075EE
:200E6000610D756202D00312177974022554F554E43553F553FAA9547B01C0031B8B5F751A
:200E80006000756110756202D00312177974022554F554E43553F553780EE61846704278DE
:200EA00011E6641C184660037F902274182554F554E43553F553FAA9547B01C0038B5F7532
:200EC000600175617E756202D00312177990017AE4F0A304F0F542C294E4A3F0A3F0020FF1
:200EE000D1780DE6FC08E6FD90017AE06C7003A3E06D60037F9022D37811E6942018E694F9
:200F00000040037F9022ED24FF7814F6EC34FF18F6E6FE08E67805C333CE33CED8F979142C
:200F2000F7EE19F77814E690004AF018E6900049F0E418F67812E6C31896E41896501E786E
:200F400012E6FF2554F582E43553F583E0FE744B2FF582E43400F583EEF00680D7121B2269
:200F60007B017A0079497811E62402F5677FA0121807780FA607121B22780FE670037F9006
:200F8000227810E6FE08E6FF90017DE02FF090017CE03EF0780EE66403184670267812F667
:200FA0007812E6FF901B4993FE747A2FF582E43400F583E06E6005D2947F9022781206E659
:200FC000B408DD90017BE004F0700690017AE004F07F0022E4F553F55490017CE0FCA3E0C1
:200FE000FDC3E49DF556741D9CF555E556541FF55BE556AE557805CEC313CE13D8F9F55694
:201000008E55E55B605290017DE090004AF0EC900049F0E4F557F558C3E558955BE5579451
:20102000005018744B2558F582E43400F58374FFF00558E55870E1055780DD121B227B0133
:201040007A007949E55B2402F5677FA01218078F5CE55C70037F9022E4F559F55AC3E55AEF
:201060009556E559955540030210EDE4F55CFFFE0FBF00010EBE4EF8BF20F590017DE02521
:201080005BFD90017CE03400FCE55AAE597805C333CE33CED8F92DFFEC3EFE90004AEFF075
:2010A000AF06900049EFF0E4F557F558744B2558F582E43400F58374FFF00558E558700294
:2010C00005576420455770E4121B227B017A0079497567227FA01218078F5CE55C70037FCD
:2010E0009022055AE55A7002055902105DD294C2AF75E40875E596E5E4540F70FA75E467E3
:2011000075E596E5E4540F70FA75E60275E46C75E51DE5E4540F70FA75E60375E46C75E59D
:2011200061E5E4540F70FA80FEE4F553F554900076E070429000707411F0900073740FF042
:20114000900077E52DF090001FE0900078F0A3F0A3E54DF0E54CA3F0A3E53FF0E53EA3F076
:20116000A3E54BF0E54AA3F0A3E525F0E524FFA3EFF0752B1322900076E06401600302122C
:20118000679000707443F09000737441F07B017A0079797D017C007F051218CD7B017A0046
:2011A000797E7D087C007F041218CD7B017A0079827D207C007F0F1218CD121B227B017AE9
:2011C0000079917D807C007F0E1218CD121B227B017A00799F7DA27C007F041218CD7B011A
:2011E0007A0079A37DC07C007F031218CDAF3AAE39AD38AC371203B7EF25E090007BF09044
:201200000020E025E090007CF090001FE09000A4F0A3F0A37402F0A314F0900174E0900062
:20122000A8F0900173E09000A9F07B017A0079AA7DE47C007F0A1218CD121B22E4FF747974
:201240002FF582E43400F583E02554F554E43553F5530FBF3BE8121B22900077E554F0E5AD
:2012600053A3F0752B4522752EC322E4F54CF54DF53EF53FF54AF54B900017E07004F52D8F
:20128000800B20A1047F0080027F018F2D121B22E4F5517F021215CFEF253FF53FEE353EE9
:2012A000F53E7F011215CFEF254BF54BEE354AF54A121B227F201215CFEF254DF54DEE3590
:2012C0004CF54C0551E551C3940540C7AE4CAF4D7C007D051205988E4C8F4DAE3EAF3F7CE3
:2012E000007D051205988E3E8F3FAE4AAF4B7C007D051205988E4A8F4B30A603E480049001
:201300000017E090001FF0900176E0FF3395E0FEEF25E0FFEE33FEC3E5259FEE6480F8E57E
:2013200024648098400590001F8022900013E0FF3395E0FEEF25E0FFEE33FED3E5259FEED3
:201340006480F8E5246480985008900017E0FF121B37227551017552007553EFAB5105532F
:20136000E553AA527002055214F9E4120574AB510553E553AA527002055214F974551205B6
:2013800074AB510553E553AA527002055214F974AA120574AF2B7E00A853AC52AD517B0107
:2013A0007A00796F120508E52BFD7C00755A00755B00755C54AB51AA52A95312188EE52BA3
:2013C0002553F553E43552F552AB510553E553AA527002055214F9E554120574AB51055325
:2013E000E553AA527002055214F9E4120574D29BF523D287FF0FBF80FC74EF2523F582E447
:201400003400F583E0F599E4F52A227581B002144C020026E493A3F8E493A34003F6800177
:20142000F208DFF48029E493A3F85407240CC8C333C4540F4420C8834004F456800146F6BA
:20144000DFE4800B0102040810204080900003E47E019360BCA3FF543F30E509541FFEE4F2
:2014600093A360010ECF54C025E060A840B8E493A3FAE493A3F8E493A3C8C582C8CAC583B6
:20148000CAF0A3C8C582C8CAC583CADFE9DEE780BEE4F551F552900074E02410600E24F363
:2014A000600D14602824247050020632021129900076E064017049A3E07002800C120FD42B
:2014C0008F52900075E04552F0752B0A22120E418F519000707409F09000737407F0900047
:2014E00075E04551F090017BE0900078F090017AE0900079F0752B0B22900075E04410F053
:2015000022AE07121B15121B40E5D9641860028038AF05121B40E5D964286002802B75D82C
:201520006430DBFDEE04FF121B40E5D9644060028017E4FFE56314FEEFC39E502175D844F7
:2015400030DBFDE5D96450600675D8547F0022E5DA120574740129F9E43AFA0F80D675D8BE
:201560004030DBFDE5DA12057475D8547F0122121B22E542600464107054121B08AB33AAC7
:2015800032A931A830C31205FB5019E53324F4F533E5323401F532E43531F531E43530F5B0
:2015A00030121B2D121B08AB46AA45A944A843C31205FB5019E5462470F546E5453417F512
:2015C00045E43544F544E43543F5431219B322E4F552F553FDFC8FA343C01043A1207597DB
:2015E00005E59770047E0180027E00EE20E3F2EF24FE600D24E2600E241F701490FFFE80CE
:201600000890FFFC800390FFF4E04253A3E04205EDAE047802C333CE33CED8F9AC0653043A
:2016200003755200E5524204E553AE04FF22E4900173F0A3F0F55CF55DC3E55C941D502322
:20164000855D82855C83E493FF900174E02FF0900173E03400F0121B22055DE55D70DA05FE
:201660005C80D6E4F55CF55DC3E55C94E3501B900174E024FFF0900173E03400F0121B22FC
:20168000055DE55D70E2055C80DE22C0E0C083C082C0D075D000C000C006C00730992FC272
:2016A00099C29B05239000F3E02407FFE433FEC3E5239FEE6480F8748098501074EF25239F
:2016C000F582E43400F583E0F5998002C287D007D006D000D0D0D082D083D0E032E4F55CF1
:2016E000F55D852421852522FB7A00795C756302FD7F90121501E55DAE5C7807CEA2E71375
:20170000CE13D8F8F55D8E5C855C24F525E53B700AE52524CEF541E524800DE53BB4020C79
:20172000E55024CEF541E54F34FFF54022900048E02FFDE433FCE412037EAB29AA28A927AA
:20174000A8261200758F3A8E398D388C37E4FFFE7D7C7C42AB3AAA39A938A83712030C607B
:201760000D400BE4F53AF53975387C753742AF3AAE39AD38AC370219098B5C8A5D895EE563
:201780006224FFFFE434FFFEEF255EF55EEE355DF55DE4FFEFC395625026AB5CE55E155E5A
:2017A000AA5D7002155DF912052EFEAB5F0561E561AA607002056014F9EE1205740F80D482
:2017C000220535E535AE347002053414C394A0EE940F4032E52A64017024D287D29DE52E15
:2017E0007006121B22121491E52E600C900072F0900070E02402F52B121B22021353E4F546
:2018000034F5357817F622121B15121B40E5D964186002801BE4900180F0900180E0C395AF
:2018200067502212052EFF121B40E5D96428600675D8547F0022740129F9E43AFA9001806C
:20184000E004F080D575D8547F0122A905E4900180F0900180E0C3995033A3EEF0A3EFF0B6
:201860007D00900181E05480FC900181ECF0A3EDF0EC7004C2A48002D2A4D2A5C2A5EF250B
:20188000E0FFEE33FE900180E004F080C5228B558A568957E48023ED1DAE0470011C4E60E0
:2018A0001F900180E0FFAB550557E557AA567002055614F912052EFEEF6E900180F080D7AF
:2018C000900180E0AB5AAA5BA95C0205748F688C698D6A8B6B8A6C896DE4F56EE56EC395D6
:2018E000685025056AE56AAE697002056914FF121AB6AB6B056DE56DAA6C7002056C14F981
:20190000EF120574056E80D4228F6B8E6A8D698C6890001AE0FCA3E0FDE412037EAB6BAA4B
:201920006AA969A8681201668F6B8E6A8D698C681203B7900009E02FFF900008E03EFE7D22
:2019400043021944EF7802C333CE33CED8F9FF5307FCED24BF600B14600A14600C14600ED6
:2019600024ED800D43061080084306208003430630D286C2867D1012184BD286228F5D8CEF
:201980005E8D5F8B608A618962E4FCECC3955D5021055FE55FAE5E7002055E14FFAB60AAF9
:2019A00061A9628C82758300120547FD121AD80C80D922E5426401602CE54EB4011B121B87
:2019C0002290000DE0FF12172D90000BE0FEA3E0FF7D44121944E4F54E1216DD121B22125B
:2019E0000B00121B2222C0E0C0D0C28E758D28758B00C2AFE50C2401F50CE4350BF50BE431
:201A0000350AF50AE43509F509D2AFD28ED0D0D0E03275840775854075912E75929D75A4DA
:201A20004275A53075B10275B201E5A7440475C1FFF5A775C2A575C35AD294D2AF228B5DC6
:201A4000E55DB40208755E01755F18800CE55DB403078F5E8D5FE4F560121B227B007A00E4
:201A6000795E855D677F90021807E490006FF0A37408F0A374A0F0E4A3F0A37406F0A374F2
:201A8000FDF0A3740AF0A37401F0A3F0A3F0752B0A0213538F5CE4F55DE55DC3955C50158C
:201AA000121B22E4FFFE0FBF00010EBEFFF8BFFFF5055D80E422AD07EEFF530701A2AF92EA
:201AC00000C2AF8FF1AF058FF3E5F130E7FB53F17FAFF2A20092AF22AB07EEFF530701A2F2
:201AE000AF9200C2AF8FF18DF2AF038FF3E5F130E7FB53F17FA20092AF22758910758D2819
:201B0000E4F58BD2ABD28E22C2AFAF0CAE0BAD0AAC09D2AF2275DD0F75DC0F75D86430DBF1
:201B2000FD22C2AF75C2A575C35AD2AF22E5426401600312126B22EF7003C29722D29722FC
:111B40008FDA75D84430DBFD22F0D880A85FE087C9F1
:00000001FF