:200000000215D2C2A7E4C313EF137F0025E025E0FE7D06121C00D2A7C2A722021B7AE4F526
:20002000E222FF0208AE020B0000420173FFFF42017700000209000000FFFFFFFFFFFFFF86
:20004000F0D880A85FE087C9010FE4FEEEC39F5014121CC3E4FDFC0DBD00010CBC8FF8BDD6
:20006000FFF50E80E722FFFFFFFFFF0218C4E709F608DFFA8046E709F208DFFA803E888204
:200080008C83E709F0A3DFFA8032E309F608DFFA8078E309F208DFFA807088828C83E309D4
:2000A000F0A3DFFA806489828A83E0A3F608DFFA805889828A83E0A3F208DFFA804C80D21A
:2000C00080FA80C680D4806980F28033801080A680EA809A80A880DA80E280CA80338982D8
:2000E0008A83ECFAE493A3C8C582C8CCC583CCF0A3C8C582C8CCC583CCDFE9DEE7800D894F
:20010000828A83E493A3F608DFF9ECFAA9F0EDFB2289828A83ECFAE0A3C8C582C8CCC5836B
:20012000CCF0A3C8C582C8CCC583CCDFEADEE880DB89828A83E493A3F208DFF980CC88F0F7
:20014000EF60010E4E60C388F0ED2402B4040050B9F582EB2402B4040050AF232345822315
:200160009000BE73BB010689828A83E0225002E722BBFE02E32289828A83E49322BB010C4E
:20018000E58229F582E5833AF583E0225006E92582F8E622BBFE06E92582F8E222E582297B
:2001A000F582E5833AF583E49322BB010689828A83F0225002F722BBFE01F322EF8DF0A4DF
:2001C000A8F0CF8CF0A428CE8DF0A42EFE22BC000BBE0029EF8DF084FFADF022E4CCF875BA
:2001E000F008EF2FFFEE33FEEC33FCEE9DEC984005FCEE9DFE0FD5F0E9E4CEFD22EDF8F56F
:20020000F0EE8420D21CFEADF075F008EF2FFFED33FD4007985006D5F0F222C398FD0FD5E2
:20022000F0EA22C5F0F8A3E028F0C5F0F8E582158270021583E038F022E88FF0A4CC8BF049
:20024000A42CFCE98EF0A42CFC8AF0EDA42CFCEA8EF0A4CDA8F08BF0A42DCC3825F0FDE9B0
:200260008FF0A42CCD35F0FCEB8EF0A4FEA9F0EB8FF0A4CFC5F02ECD39FEE43CFCEAA42D02
:20028000CE35F0FDE43CFC2275F008758200EF2FFFEE33FECD33CDCC33CCC58233C5829B9C
:2002A000ED9AEC99E58298400CF582EE9BFEED9AFDEC99FC0FD5F0D6E4CEFBE4CDFAE4CC32
:2002C000F9A88222B800C1B90059BA002DEC8BF084CFCECDFCE5F0CBF97818EF2FFFEE33AF
:2002E000FEED33FDEC33FCEB33FB10D703994004EB99FB0FD8E5E4F9FA227818EF2FFFEE09
:2003000033FEED33FDEC33FCC933C910D7059BE99A4007EC9BFCE99AF90FD8E0E4C9FAE40D
:20032000CCFB2275F010EF2FFFEE33FEED33FDCC33CCC833C810D7079BEC9AE899400AEDB1
:200340009BFDEC9AFCE899F80FD5F0DAE4CDFBE4CCFAE4C8F922EF4BFFEE4AFEED49FDECB1
:2003600048FC22EB9FF5F0EA9E42F0E99D42F0E89C45F022E8600FEFC333FFEE33FEED33E1
:20038000FDEC33FCD8F122E6FC08E6FD08E6FE08E6FF22E6FB08E6F908E6FA08E6CBF8220F
:2003A000FAE6FB0808E6F925F0F618E6CA3AF622D083D082F8E4937012740193700DA3A3ED
:2003C00093F8740193F5828883E4737402936860EFA3A3A380DFD083D082F8E4937012749F
:2003E0000193700DA3A393F8740193F5828883E473740293B5F0067403936860E9A3A3A3E2
:20040000A380D8E4F526F527900070E0752400F525A3E0FEE42525F525EE3524F524A3E087
:20042000F5237881E6F52C08E6F52D90006DE060030204EF1213D7AD25AC24AF23121A3B88
:20044000E5246003020700E5251203B0048236048638046E4004A4A404ABA504BEC104BE43
:20046000C204C9CA04D2E004DEE200000700209603020700E4900073F0A3F0A3F0A3F0024E
:20048000070078798002787BE6FC08E6FDFF900014E0FEEF8EF0A4900073F0EEFF7E001220
:2004A00001BC80451213F27D0380051213F27D027F901217B5900073E528F0020700900082
:2004C00014E0900073F00207009000731213FC020700E4900073F0A37403F0020700900184
:2004E0006AE0FEA3E0900073F0EEA3F0020700E523B40216900073E0752600F527A3E0FEC5
:20050000E42527F527EE3526F526E524706FE5251203B0053620052F36052F380544A20553
:2005200044A30551A5055ED2056BD30000057D12140640498040C3E5269400400512140697
:20054000403B80321213A74006EFD394FF402E80251213A74006EFD3947D402180181213F1
:20056000A74006EFD394024014800B1213A74006EFD394C8400790006CE04420F090006CB4
:20058000E0640A6003020700E52564407004E52464016033E52564404524701FE523B40616
:2005A0001A1213D77D407C007F04121ADE7B017A0079777D207C007F0280091213D7AD2588
:2005C000AC24AF23121ADED200E5258524F01203D6064800030657002006150036062000CA
:2005E000380633003C06590040067E004A067E005406830075068300770683007806BC0048
:20060000A406CB00A506DD00C006E700C206590140000007007879A62608A6277D428009ED
:20062000787BA62608A6277D43AF27AE26121B14020700900073E0FF600764016003C3801E
:2006400003EF24FF92968036900073E0FF900065F012000312124F802A75470075480075C0
:200660004953754A041213D712198E1207097F0112004AE5236406600302070080051207EC
:2006800009807D120E8C7882E6252DFF18E6352CC313FEEF13FFEEF608EFF67D41121B1473
:2006A00012124F7F0112004A120E8C7881E6FE08E6FF7D41121B1412124F8044900073E05C
:2006C00090016DF0FD7B037F03800D900073E090000FF0FD7B037F02121BD480239000738D
:2006E000E090000BF08019900073E0900008F012124F900065E0FF120003120709121CC31C
:20070000900067E02402F558227D547F0412088875480075493A754A041208A47D4A7F02F9
:2007200012088875480075493E754A021208A4E53F453E7005F53E753F19309607E4FFFE15
:20074000FDFC8008AF56AE55AD54AC5312144EAB35AA34A933A8327F807E237D437C00123A
:2007600002C48F398E388D378C36121C8CE48F39F538F537F53612148CA939A80112144B07
:20078000E53FAE3EA801088005C333CE33CED8F9F53F8E3E7F057E007D587C001217468536
:2007A000393185383085372F85362EAF31AE30AD2FAC2E7814121424E531441CFFE53044F6
:2007C00004FEE52F4485FDA804A905AA06AB07900014E075F020A4FFAEF0EE3395E0FDFCA8
:2007E0001203561214271217467FB37E047D007C001217467FC27E4E7D007C1812174685A4
:200800003D31853C30853B2F853A2EAF31AE30AD2FAC2EC006C0071214ADD007D0061214F6
:2008200017E5314401FFE5304480FEE52E4408120897AB3DAA3CA93BA83A12148C1202C442
:20084000AC00AD01AE02AF03121427C006C0071214ADD007D00612141712148CAB3DAA3CC5
:20086000A93BA83A1202C412144E780F12144BE5314535FFE5304534FEE52F4533FDE52EB7
:200880004532120897021CC37B007A0079407C00121A3B754700228F318E308D2FF52EFC87
:2008A000121746227B007A00794012198E22C0E0C083C082C0D075D000C000C004C005C01B
:2008C00006C007121CE3C3EF950EFFEE950DFED3EF940AEE940040077557007884760012DF
:2008E0001CE38E0D8F0EC2AF209803020A38C298AF997884E61203B0092000092001092F7D
:2009000002093E03094E04096605097E0609990709B10809C10909D50A0A1B0B00000A349B
:200920007884BF55057602020A387600020A387884BFAA057603020A387600020A3878844F
:2009400076047883A607900066EFF0020A387883E66FF6900067EFF0788460057605020A58
:20096000387600020A387884BFA00E7606900068EFF0788366F6020A387600020A38788478
:20098000BFFF1176077883E66FF6900069E4F0F55B020A387600020A387883E66FF69000D4
:2009A0006AEFF0788460057608020A387600020A387883E66FF690006BEFF07884760980F6
:2009C000777883E66FF690006CEFF0787676077884760A80637883E66FF67876E62466F51C
:2009E00082E43400F583EFF006E6FE24FCFD90006AE0B505047884760B900067E02402FDF0
:200A0000E433FCEED39DEC6480F8748098402978847600755701755B0380107883E66F6056
:200A200003755B0478847600755701787F7600087600800478847600D2AFD007D006D005BC
:200A4000D004D000D0D0D082D083D0E032E4F523F524E50A2573FFE5093572FEE5732FFF17
:200A6000E5723EFE7C007D031201CE8E098F0A90006DE0703B74121213DE7410F090006E53
:200A8000E55AF0900014E090006FF0A3F0A3EFF0E509A3F0A3E566F0E565A3F0A3E571F07A
:200AA000E570A3F0A31213FCA3E56FF07558142290006DE064016003020B9F900067745E86
:200AC000F090006A745CF07A0079707D017F05120BAF7A0079757D08120BA37A0079797DA5
:200AE000207C007F0B121A3B7A0079847D757F03120BAF7A00798B7D447F14120BB77A0092
:200B0000799F7D787F04120BB77B017A0079A37D807C007F0E121A3B7A0079B17DA2120B12
:200B2000A37A0079B57DC07C007F03121A3B754701754800754987754A047B007A00795385
:200B400012198E900014E09000B6F0A3F0E4A3F0A37403F090016AE0FEA3E09000BAF0EE8A
:200B6000A3F07B017A0079BC7DE47C007F0A121A3B121CC3E4FF74702FF582E43400F583FC
:200B8000E02524F524E43523F5230FBF56E8121CC390006EE524F0E523A3F075586022756C
:200BA0005BC3227B017C007F04121A3B7B01227B017C00121A3B227B017C00121A3B2275FE
:200BC000230075246674071213BAC0031B8B4775480075490F754A02D003120D1DFAA924C8
:200BE0007B01C0031B8B47754800754912754A02D003120D1D7810E6184670377813E66424
:200C00001C184660037F902274181213BAC0038B47754801754979754A02D00312198E90F4
:200C20000175E4F0A304F0F56AC294E4A3F0A3F0020D1A780FE6FC08E6FD900175E06C70D5
:200C400003A3E06D60037F9022D37813E6942018E6940040037F9022ED24FF7816F6EC345B
:200C6000FF18F6E6FE08E67805C333CE33CED8F97916F7EE19F77815E6FE08E690003EF0E1
:200C8000EE90003DF0E47814F67814E6C31896E41896501E7814E6FF2524F582E43523F5FE
:200CA00083E0FE743F2FF582E43400F583EEF00680D7121CC31214107813E62402F5387F45
:200CC000A01219517811A607121CC3E670037F90227812E6FE08E6FF900177EE8FF0120263
:200CE000237810E66403184670267814F67814E6FF901CF593FE74712FF582E43400F583C8
:200D0000E06E6005D2947F9022781406E6B408DD900175E475F0011202237F002212198E97
:200D200074022524F524E43523F52322E4F565F566FD7F011216D3EF2566F566EE3565F502
:200D4000650DBD08EDE566AE657803CEC313CE13D8F9F5668E657B007A00792E7D76120E43
:200D600081754800754919120E6E7D77120E81754800754962120E6E7D787C007F04121AB0
:200D80003B754700754800754988754A047B007A00792E12198E900019E0F404F5328565AF
:200DA000338566347888120387AB56AA55A954A853C3120363501B1213E6500C12135CAF10
:200DC00032E4FCFDFE020E2112135C1213B0FDFC8021AF56AE55AD54AC537888120393C372
:200DE000120363505F1213E6502F121371AF32E4FCFDFE120239C004C005C006C007121368
:200E000038D007D006D005D0041202C4C3E5349FF534E5339EF533802B1213711213B0FDD7
:200E2000FC120239C004C005C006C007121338D007D006D005D0041202C4EF2534F534EE69
:200E40003533F533C3E533648094805006E4F565F56622D3E53494FFE53364809483400745
:200E60007565037566FF2285336585346622754A017B007A00792E12198E7B007A00792E8A
:200E8000227C007F01121A3B754701227D207F02120FCD754700754800754981754A021257
:200EA0000FD97D757F01120FCD754701754800754912120FBA7D777C007F01121A3B7547B2
:200EC00001754800754962120FBA7D787C007F04121A3B754700754800754988754A04126A
:200EE0000FD9900012E0F404F5327881E6F53308E6F5347888120387AB56AA55A954A853B7
:200F0000C31203635019121495500C121457AF32E4FCFDFE020F6C1214571214A18021AFCC
:200F200056AE55AD54AC537888120393C3120363505D121495502F12146CAF32E4FCFDFE40
:200F4000120239C004C005C006C007121430D007D006D005D0041202C4C3E5349FF534E521
:200F6000339EF533802912146C1214A1120239C004C005C006C007121430D007D006D0053B
:200F8000D0041202C4EF2534F534EE3533F533C3E533648094805007E47881F608F622D3C6
:200FA000E53494FFE533648094837881400676030876FF22A63308A63422754A017B007A89
:200FC00000792E12198E7B007A00792E227B007A00792E7C00121A3B227B007A00792E12A4
:200FE000198E22C200121CE3EF24C8F55EE43EF55D121CE3EF2464F56CE43EF56B121CE337
:201000007885A60608A607D283D286C2A2C29DE4F56AF55BF560F574757532F54E754F325C
:20102000F551755232900007F0F570F571F572F573F565F566900008F0900014F0FF121559
:201040004B7F0112004A121CC37D3C7F011210F9E521B4FF03C38004E52124FF92967D4013
:201060007F041210F9754700754800754953754A047B007A00792112198E7A00790B7DC002
:20108000121105120E8C7881E6FE08E6FF7D41121B14121CC37B02E4FD7F90121BD47A01D9
:2010A000796D7DA412110590016DE0FD7B037F03121BD47A00790F7DA512110F90000FE050
:2010C000FD7B037F02121BD47A0179727DD412110F121CC37B017A0079657D037C007F01E9
:2010E000121A3B900065E0FF1200031207097F0112004A121B490218767B007A0079217C91
:2011000000121A3B227B017C007F01121A3B227B017C007F01121A3B22E4F523F52490019E
:2011200077E0FCA3E0FDC3E49DF526741D9CF525E526541FF52BE526AE257805CEC313CECB
:2011400013D8F9F5268E25E52B603790003EEDF0EC90003DF0E4F527F528C3E528952BE550
:20116000279400500912139370F0052780EC121CC3121410E52B2402F53812124570037FC6
:201180009022E4F529F52AC3E52A9526E5299525506AE4F52CFFFE0FBF00010EBE4EF8BFCB
:2011A00020F5900178E0252BFD900177E03400FCE52AAE297805C333CE33CED8F92DFFECBB
:2011C0003EFE90003EEFF0AF0690003DEFF0E4F527F528121393700205276420452770F3FF
:2011E000121CC312141075382212124570037F9022052AE52A700205290211879000007470
:20120000FFF0FD121388121ADED294C2AF75E40875E596E5E4540F70FA75E46775E596E5D8
:20122000E4540F70FA75E60275E46C75E51DE5E4540F70FA75E60375E46C75E561E5E454D3
:201240000F70FA80FE7FA01219518F2CE52C22E4F572F573F570F571F565F566900014E057
:201260007004F55A800B20A1047F0080027F018F5A30A3047F0080027F018F6F121CC3901A
:201280000008E07008900014F0F567803790016D1213B3EF25E0FFEE33D31213C9400AE46E
:2012A000900014F0756701801B90000F1213B3EF25E0FFEE33C31213C95009900014740174
:2012C000F0E4F567900014E0FF12154B900014E06508600F120709900014E0B401057F02A8
:2012E00012004A900014E0F508E4FD7F021216D3EF2571F571EE3570F5707F201216D3EF48
:201300002573F573EE3572F5720DBD08DEE571AE707803CEC313CE13D8F9F5718E70E57320
:20132000AE727803CEC313CE13D8F9F5738E72120D2C759701021CC3900062E0FF3395E0A2
:20134000FE7C037DE81201BCAB07AA06EA3395E0F9F8227821E475F0010203A0120387C3EE
:20136000EF9556FBEE9555FAED9554F9EC9553F822120393C3E5569BFBE5559AFAE554992D
:20138000F9E55398F8227DFF7B017A0079007C017F0122743F2528F58274003527F583742D
:2013A000FFF00528E52822900073E0FFC3940022900019E0FF3395E0FE222524F524E435BC
:2013C00023F523FAA9247B0122FEE5529FEE6480F8E551648098227B017A00797322900067
:2013E00067F090006A22900019E0C3648094807888227B007A00792875330222E552F0E5A6
:2014000051FFA3EFF022D3E52794FFE5269403227B017A00793D221202C48F318E308D2FC2
:201420008C2E78031203748F318E308D2F8C2E22900062E0FF3395E0FE7C037DE81201BCAE
:20144000AB07AA06EA3395E0F9F8221203748F358E348D338C3222120387C3EF9556FBEEB4
:201460009555FAED9554F9EC9553F822120393C3E5569BFBE5559AFAE55499F9E55398F82E
:20148000227B007A00792F7C007F0222AF35AE34AD33AC3222900012E0C36480948078888B
:2014A00022900012E0FF3395E0FEFDFC22AE3EAF3FAB07AA06E4F9F822E4F521F5229000F4
:2014C0006BE02410601224F5606E24FE600D14603A2424706E020403020A4D90006DE0642E
:2014E000017067A3E0700675580AF56A22E56AB4010E1211198F2290006CE04522F080070A
:2015000090006CE04490F075580A22121CE38E618F62120BBF8F2174091213DE7407F0903A
:20152000006CE04521F0900175E0FEA3E090006FF0EEA3F075580B2290006DE0B4010B7526
:20154000A2082290006CE04410F0228F2E7D36121481121A3B754700754800754979121528
:20156000C4787AE694FF18E694034004E4F608F67D38121481121A3B754700754800754991
:201580007B1215C4787CE694FF18E694034004E4F608F6E52E70127D42FFFE121B147D4375
:2015A000E4FFFE121B14D297227879E6FE08E6FF7D42121B14787BE6FE08E6FF7D43121B0B
:2015C00014C29722754A027B007A00792F12198ED3227581B00216130219C9E493A3F8E4C5
:2015E00093A34003F68001F208DFF48029E493A3F85407240CC8C333C4540F4420C8834014
:2016000004F456800146F6DFE4800B0102040810204080900026E47E019360BCA3FF543F75
:2016200030E509541FFEE493A360010ECF54C025E060A840B8E493A3FAE493A3F8E493A36A
:20164000C8C582C8CAC583CAF0A3C8C582C8CAC583CADFE9DEE780BE752101752200752300
:20166000E6121353E41201AA782112135674551201AA12135374AA1201AAAF587E00A8232E
:20168000AC22AD217B017A00796612013EE558FD7C00752A00752B00752C24AB21AA22A98D
:2016A00023121AA8E5582523F523E43522F522121353E5241201AAC29BE4F550FF0FBF8033
:2016C000FC74E62550F582E43400F583E0F599E4F55722E4F535F536F537F5388FA343C0B1
:2016E0001043A120759705E59770047E0180027E00EE20E3F2EF24FE601124FE601224E455
:201700006013241F701990FFFE800D90FFFC800890FFFA800390FFF4E04236A3E04238E594
:2017200038AE377802C333CE33CED8F9F5388E37753800533703753500E5364238E53542B5
:2017400037AE37AF38228F478E468D458C44754820E4F54DF54CF54B754A80C2A5D2A2C2B8
:20176000A2F549E549C395485048E547554DFFE546554CFEE545554BFDE544554AFCE4FB22
:20178000FAF9F8C31203637004C2A48002D2A4E4FF0FBF02FCD2A5AF47AE46AD45AC4478E7
:2017A000011203748F478E468D458C44C2A5054980B1D2A222AE07121CCE60028038AF0558
:2017C000121CECE5D964286002802B75D86430DBFDEE04FF121CECE5D9644060028017E495
:2017E000FFE53314FEEFC39E502175D84430DBFDE5D96450600675D8547F0022E5DA12017A
:20180000AA740129F9E43AFA0F80D675D84030DBFDE5DA1201AA75D8547F0122121CC3E5E0
:201820006A60046410704E121CE3C37886E69F18E69E500C08740A26F618E436F6121A0261
:20184000121CE3C3E55E9FE55D9E500E74C8255EF55EE4355DF55D121CD9121CE3C3E56C8E
:201860009FE56B9E500F7470256CF56C7417356BF56B121CA922E490016AF0A3F0F52BF5AB
:201880002CC3E52B941D5014852C82852B83E493FF8FF01218B570E9052B80E5E4F52BF513
:2018A0002CC3E52B94E3500C75F0FF1218B570F1052B80ED2290016AE4120223121CC305E7
:2018C0002CE52C22C0E0C083C082C0D075D000C000C006C00730992BC299C29B05509000D1
:2018E000EAE02406FFE433FEC3E5509FEE6480F8748098500E74E62550F582E43400F583BF
:20190000E0F599D007D006D000D0D0D082D083D0E032121386121A3B900000E0F47031F0AE
:20192000121386121ADEE4900066F0A37408F0A374A0F0E4A3F0A37406F0A374FDF0A374D3
:201940000AF0A37401F0A3F0A3F075580A12165822121CCE6002801BE490017BF090017B01
:20196000E0C395385022120164FF121CECE5D96428600675D8547F0022740129F9E43AFA54
:2019800090017BE004F080D575D8547F01228B448A458946E54A24FFFFE434FFFEEF2546A2
:2019A000F546EE3545F545E4FFEFC3954A5019784474FFF5F01203A0120164FE784712134B
:2019C00055EE1201AA0F80E122121BA8121C7012001E120FE3121C9B121912121CE38E61C8
:2019E0008F62121CE3C3EF9562FFEE9561FEC3EF94E0EE942E4003E4F56A12181C121A721B
:201A000080E0E4FDFCE56A6401602FE4FB7F041216D3EF2DFDEE3CFC0BBB08F1759701EDF1
:201A2000AE047803CEC313CE13D8F9AC06C3943EEC94005003C2A622D2A6228F448C458DB4
:201A4000468B478A488949E4F54AE54AC3954450200546E546AE457002054514FF121C2CDA
:201A60007847E475F0011203A0EF1201AA054A80D922E5576401702FE55B7006121CC31239
:201A800014B9E55B600C900069F0900067E02402F558121CC3C37880E694C818E6940050CA
:201AA00003021658E4F557228B258A268927E4801AED1DAE0470011C4E601690017BE0FFDB
:201AC0007825121355120164FEEF6E90017BF080E090017BE0AB2AAA2BA92C0201AA8F2EEC
:201AE0008C2F8D308B318A328933E4FCECC3952E50210530E530AE2F7002052F14FFAB31BB
:201B0000AA32A9338C8275830012017DFD121C4E0C80D922EF7802C333CE33CED8F9FF5326
:201B200007FCBD41054306208013BD4205430660800BBD43054306A080034306E0D286C2B7
:201B4000867D10121C00D28622E4F52BF52C85514E85524FFB7A00792B753302FD7F921278
:201B600017B5E52CAE2B7807CEA2E713CE13D8F8F52C8E2B852B51F55222C0E0C0D075D05C
:201B800000C000C28E758D28758B00C2AF050CE50C7002050B788006E618700106D2AFD250
:201BA0008ED000D0D0D0E0327584077585C875912E75929D75A40A75A5F475B10275B2012A
:201BC000E5A7440475C1FFF5A775C2A575C35AD294D2AF228B2EE52EB40208752F01753015
:201BE00018800CE52EB403078F2F8D30E4F531121CC37B007A00792F852E387F90021951F7
:201C0000E4FCECC39D5024AB07AA06EA5480F583EB540045837004C2A48002D2A4D2A5C27A
:201C2000A5EF25E0FFEE33FE0C80D722AD07EEFF530701A2AF9201C2AF8FF1AF058FF3E57C
:201C4000F130E7FB53F17FAFF2A20192AF22AB07EEFF530701A2AF9201C2AF8FF18DF2AF1A
:201C6000038FF3E5F130E7FB53F17FA20192AF22E47884F6F5577598F0F5BD75BF0475BEF2
:201C80007075BAE075BD03D2ACD2EE227E07EF20E706EF25E0FFDEF6AF0622758910758D01
:201CA00028E4F58BD2ABD28E22E56A64016006121B49121CC32275DD0F75DC0F75D8643054
:201CC000DBFD22C2AF75C2A575C35AD2AF22121CB6121CECE5D9641822E56A640160031205
:1D1CE000124F22C2AFAF0CAE0BD2AF228FDA75D84430DBFD22F0D880A85FE087C939
:00000001FF