:200000000215ABF090016AE03400F0C2AF75C2A575C35AD2AF22E4F5E222FF021A6AFFFF4D
:20002000FFFFFF020D54040800000000420173FFFF420177000000EF7003D29722C297227E
:20004000F0D880A85FE087C9010FE4FEEEC39F501412000BE4FDFC0DBD00010CBCFFF8BD3A
:20006000FFF50E80E722FFFFFFFFFF02187EE709F608DFFA8046E709F208DFFA803E88824A
:200080008C83E709F0A3DFFA8032E309F608DFFA8078E309F208DFFA807088828C83E309D4
:2000A000F0A3DFFA806489828A83E0A3F608DFFA805889828A83E0A3F208DFFA804C80D21A
:2000C00080FA80C680D4806980F28033801080A680EA809A80A880DA80E280CA80338982D8
:2000E0008A83ECFAE493A3C8C582C8CCC583CCF0A3C8C582C8CCC583CCDFE9DEE7800D894F
:20010000828A83E493A3F608DFF9ECFAA9F0EDFB2289828A83ECFAE0A3C8C582C8CCC5836B
:20012000CCF0A3C8C582C8CCC583CCDFEADEE880DB89828A83E493A3F208DFF980CC88F0F7
:20014000EF60010E4E60C388F0ED2402B4040050B9F582EB2402B4040050AF232345822315
:200160009000BE73BB010689828A83E0225002E722BBFE02E32289828A83E49322BB010C4E
:20018000E58229F582E5833AF583E0225006E92582F8E622BBFE06E92582F8E222E582297B
:2001A000F582E5833AF583E49322BB010689828A83F0225002F722BBFE01F322EF8DF0A4DF
:2001C000A8F0CF8CF0A428CE8DF0A42EFE22E88FF0A4CC8BF0A42CFCE98EF0A42CFC8AF068
:2001E000EDA42CFCEA8EF0A4CDA8F08BF0A42DCC3825F0FDE98FF0A42CCD35F0FCEB8EF0E4
:20020000A4FEA9F0EB8FF0A4CFC5F02ECD39FEE43CFCEAA42DCE35F0FDE43CFC2275F0086D
:20022000758200EF2FFFEE33FECD33CDCC33CCC58233C5829BED9AEC99E58298400CF582C9
:20024000EE9BFEED9AFDEC99FC0FD5F0D6E4CEFBE4CDFAE4CCF9A88222B800C1B90059BAD6
:20026000002DEC8BF084CFCECDFCE5F0CBF97818EF2FFFEE33FEED33FDEC33FCEB33FB103A
:20028000D703994004EB99FB0FD8E5E4F9FA227818EF2FFFEE33FEED33FDEC33FCC933C99A
:2002A00010D7059BE99A4007EC9BFCE99AF90FD8E0E4C9FAE4CCFB2275F010EF2FFFEE3300
:2002C000FEED33FDCC33CCC833C810D7079BEC9AE899400AED9BFDEC9AFCE899F80FD5F047
:2002E000DAE4CDFBE4CCFAE4C8F922EB9FF5F0EA9E42F0E99D42F0E89C45F022E8600FEF05
:20030000C333FFEE33FEED33FDEC33FCD8F122E6FC08E6FD08E6FE08E6FF22E6FB08E6F916
:2003200008E6FA08E6CBF822ECF608EDF608EEF608EFF622D083D082F8E49370127401939C
:20034000700DA3A393F8740193F5828883E473740293B5F0067403936860E9A3A3A3A380F3
:20036000D8E4F556F557900070E0755400F555A3E0FEE42555F555EE3554F554A3E0F55383
:2003800090006DE0600302041E7B017A007973AD55AC54AF53121A2EE55460030205BAE577
:2003A00055245B602724E4603C14603924F8604024EA604B24FE6053243E60030205BA7B46
:2003C000007A0079587562027D03800B7B007A0079587562027D027F9012171C900073E594
:2003E00058F00205BA900014E0900073F00205BA900073E525F0E524FFA3EFF00205BAE490
:20040000900073F0A37402F00205BA90016BE0900073F090016AE0900074F00205BAE55388
:20042000B40216900073E0755600F557A3E0FEE42557F557EE3556F556E5547079E5552485
:200440005E602614602324FE603124D3603F14604E24B37061C3E55694004053D3E55794A6
:20046000FFE5569403404F8046900073E0FFC394004006EFD394FF403D8034900073E0FF6F
:20048000C394004006EFD3947D402B8022900073E0FFC394004006EFD3940240198010908F
:2004A0000073E0FFC394004006EFD394C8400790006CE04420F090006CE0640A6003020504
:2004C000BAE55564407004E5546401600F7B017A007973AD55AC54AF53121AA5D200E55540
:2004E0008554F0120334051E0003052D0020054100400560004A056000540565007505653B
:20050000007705650078057600A4058500A5059700C005A100C205410140000005BA90009A
:2005200073E0FF900065F0121B411212DA1207D77810E6FE08E6FF7D42121ADB1212DA808B
:20054000797576007577007578267579047B017A0079731218361205C37F0112004A8005C9
:200560001205C380551207D77810E6FE08E6FF7D42121ADB8044900073E090016DF0FD7BB0
:20058000037F03800D900073E090000FF0FD7B037F02121BCD8023900073E090000BF08050
:2005A00019900073E0900008F01212DA900065E0FF121B411205C312000B900067E0240283
:2005C000F52B227B007A00796F7D547C007F04121A2E7576007577007578697579047B0038
:2005E0007A00796F1218367B007A00796F7D4A7C007F02121A2E75760075770075786D7598
:2006000079027B007A00796F121836E56E456D7005F56D756E198529648528638527628595
:200620002661AB64AA63A962A8617F807E237D437C001202598F688E678D668C65121C5963
:20064000E48F68F567F566F565AF64AE63AD62AC61A968A8011202FC8F648E638D628C61E4
:20066000E56EAE6DA801088005C333CE33CED8F9F56E8E6D7F057E007D587C0012163A85A8
:20068000686085675F85665E85655DAF60AE5FAD5EAC5D78141202FC8F608E5F8D5E8C5D3B
:2006A000E560441CFFE55F4404FEE55E4485FDA804A905AA06AB07900014E075F020A4FF9B
:2006C000AEF0EE3395E0FDFCEB4FF560EA4EF55FE94DF55EE84C1216317FB37E047D007C0F
:2006E0000012163A7FC27E4E7D007C1812163A856C60856B5F856A5E85695DAF60AE5FAD17
:200700005EAC5DC006C007AE6DAF6EAB07AA06E4F9F8D007D0061202598F608E5F8D5E8C09
:200720005D78031202FC8F608E5F8D5E8C5DE5604401F560E55F4480F55FE55EF55EE55D0E
:200740004408121631AB6CAA6BA96AA869AF64AE63AD62AC61120259AC00AD01AE02AF033B
:200760008F608E5F8D5E8C5DC006C007AE6DAF6EAB07AA06E4F9F8D007D0061202598F60C4
:200780008E5F8D5E8C5D78031202FC8F608E5F8D5E8C5DAF64AE63AD62AC61AB6CAA6BA948
:2007A0006AA8691202598F648E638D628C61780F1202FC8F648E638D628C61E5604564F557
:2007C00060E55F4563F55FE55E4562F55EE55D456112163102000B7B007A00795C7D207C0B
:2007E000007F02121A2E7576007577007578107579027B007A00795C1218367B007A0079C2
:200800005C7D757C007F01121A2E7576017577007578127579017B007A00795C1218367BC9
:20082000007A00795C7D777C007F01121A2E7576017577007578627579017B007A00795C3F
:200840001218367B007A00795C7D787C007F04121A2E7576007577007578197579047B00D6
:200860007A00795C121836900012E0F404F5607810E6F56108E6F562781912030FAB29AABE
:2008800028A927A826C31202EB504B900012E0C3648094807819501D12030FC3EF9529FB6B
:2008A000EE9528FAED9527F9EC9526F8AF60E4FCFDFE02096F12030FC3EF9529FBEE9528B4
:2008C000FAED9527F9EC9526F8900012E0FF3395E0FEFDFC803DAF29AE28AD27AC2678191B
:2008E00012031BC31202EB40030209A9900012E0C3648094807819505712031BC3E5299BFE
:20090000FBE5289AFAE52799F9E52698F8AF60E4FCFDFE1201CEC004C005C006C007900091
:2009200062E0FF3395E0FE7C037DE81201BCAB07AA06EA3395E0F9F8D007D006D005D004E2
:20094000120259C3E5629FF562E5619EF561805912031BC3E5299BFBE5289AFAE52799F941
:20096000E52698F8900012E0FF3395E0FEFDFC1201CEC004C005C006C007900062E0FF33C1
:2009800095E0FE7C037DE81201BCAB07AA06EA3395E0F9F8D007D006D005D004120259EF9A
:2009A0002562F562EE3561F561C3E561648094805007E47810F608F622D3E56294FFE561B2
:2009C000648094837810400676030876FF22A66108A66222E4F53EF53FF5627F011216A90A
:2009E000EF253FF53FEE353EF53E0562E562C3940840E8E53FAE3E7803CEC313CE13D8F9C6
:200A0000F53F8E3E7B007A00795D7D767C007F01121A2E75760175770075781912182D7B12
:200A2000007A00795D7D777C007F01121A2E75760175770075786212182D7B007A00795DD3
:200A40007D787C007F04121A2E757600757700757819757904121830900019E0F404F56148
:200A6000853E63853F64781912030FAB29AA28A927A826C31202EB504B900019E0C36480A2
:200A800094807819501D12030FC3EF9529FBEE9528FAED9527F9EC9526F8AF61E4FCFDFEE4
:200AA000020B5D12030FC3EF9529FBEE9528FAED9527F9EC9526F8900019E0FF3395E0FE29
:200AC000FDFC803DAF29AE28AD27AC26781912031BC31202EB4003020B97900019E0C364F2
:200AE0008094807819505712031BC3E5299BFBE5289AFAE52799F9E52698F8AF61E4FCFDCC
:200B0000FE1201CEC004C005C006C007900062E0FF3395E0FE7C037DE81201BCAB07AA0654
:200B2000EA3395E0F9F8D007D006D005D004120259C3E5649FF564E5639EF563805912033F
:200B40001BC3E5299BFBE5289AFAE52799F9E52698F8900019E0FF3395E0FEFDFC1201CE31
:200B6000C004C005C006C007900062E0FF3395E0FE7C037DE81201BCAB07AA06EA3395E041
:200B8000F9F8D007D006D005D004120259EF2564F564EE3563F563C3E56364809480500699
:200BA000E4F53EF53F22D3E56494FFE563648094834007753E03753FFF2285633E85643FB6
:200BC0002275530075546674072554F554E43553F553FAA9547B01C0031B8B767577007558
:200BE000787D757902D00312183674022554F554E43553F553FAA9547B01C0031B8B76752A
:200C00007700757880757902D00312183674022554F554E43553F553787EE618467042787D
:200C200081E6641C184660037F902274182554F554E43553F553FAA9547B01C0038B76752D
:200C40007701757879757902D003121836900175E4F0A304F0F543C294E4A3F0A3F0020D7B
:200C600051787DE6FC08E6FD900175E06C7003A3E06D60037F9022D37881E6942018E69420
:200C80000040037F9022ED24FF7884F6EC34FF18F6E6FE08E67805C333CE33CED8F97984CF
:200CA000F7EE19F77884E690003EF018E690003DF0E418F67882E6C31896E41896501E7829
:200CC00082E6FF2554F582E43553F583E0FE743F2FF582E43400F583EEF00680D712000BBA
:200CE0007B017A00793D7881E62402F5667FA01219AB787FA60712000B787FE670037F90D3
:200D0000227880E6FE08E6FF900178E02FF0900177E03EF0787EE66403184670267882F6A3
:200D20007882E6FF901CB093FE74712FF582E43400F583E06E6005D2947F9022788206E69C
:200D4000B408DD900176E004F07006900175E004F07F0022C0E0C083C082C0D075D000C074
:200D600000C004C005C006C007C2AF209803020EC9C298753400753500AF997813E6B40C32
:200D8000004003020EC5900D8DF8282873020DB1020DB1020DC0020DCF020DDF020DF70233
:200DA0000E0F020E2A020E42020E52020E66020EAC7813BF55057602020EC97600020EC9B2
:200DC0007813BFAA057603020EC97600020EC9781376047812A607900066EFF0020EC97817
:200DE00012E66FF6900067EFF0781360057605020EC97600020EC97813BFA00E7606900029
:200E000068EFF0781266F6020EC97600020EC97813BFFF1176077812E66FF6900069E4F004
:200E2000F52E020EC97600020EC97812E66FF690006AEFF0781360057608020EC9760002FA
:200E40000EC97812E66FF690006BEFF07813760980777812E66FF690006CEFF0780D760759
:200E60007813760A80637812E66FF6780DE62466F582E43400F583EFF006E6FE24FCFD903D
:200E8000006AE0B505047813760B900067E02402FDE433FCEED39DEC6480F8748098402916
:200EA00078137600752A01752E0380107812E66F6003752E0478137600752A01780E7600D5
:200EC000087600800478137600D2AFD007D006D005D004D000D0D0D082D083D0E032E4F568
:200EE00053F554900177E0FCA3E0FDC3E49DF556741D9CF555E556541FF55BE556AE557838
:200F000005CEC313CE13D8F9F5568E55E55B6052900178E090003EF0EC90003DF0E4F557D6
:200F2000F558C3E558955BE55794005018743F2558F582E43400F58374FFF00558E5587098
:200F4000E1055780DD12000B7B017A00793DE55B2402F5667FA01219AB8F5CE55C70037F5A
:200F60009022E4F559F55AC3E55A9556E55995554003020FF7E4F55CFFFE0FBF00010EBE11
:200F80004EF8BF20F5900178E0255BFD900177E03400FCE55AAE597805C333CE33CED8F960
:200FA0002DFFEC3EFE90003EEFF0AF0690003DEFF0E4F557F558743F2558F582E43400F59E
:200FC0008374FFF00558E558700205576420455770E412000B7B017A00793D7566227FA06A
:200FE0001219AB8F5CE55C70037F9022055AE55A70020559020F6790000074FFF07B017A7C
:20100000007900FD7C017F01121AA5D294C2AF75E40875E596E5E4540F70FA75E46775E5B4
:2010200096E5E4540F70FA75E60275E46C75E51DE5E4540F70FA75E60375E46C75E561E592
:20104000E4540F70FA80FEE4F553F55490006DE070469000677412F090006A7410F09000EE
:201060006EE52DF0900014E090006FF0A3F0A3E54EF0E54DA3F0A3E53FF0E53EA3F0A3E57A
:201080004CF0E54BA3F0A3E525F0E524FFA3EFF0A3E54AF0752B142290006DE064016003ED
:2010A0000211A9900067745EF090006A745CF07B017A0079707D017C007F05121A2E7B01CE
:2010C0007A0079757D087C007F04121A2E7B017A0079797D207C007F0B121A2E7B017A00EF
:2010E00079847D757C007F03121A2E7B017A00798B7D447C007F14121A2E7B017A00799F77
:201100007D787C007F04121A2E7B017A0079A37D807C007F0E121A2E7B017A0079B17DA2D0
:201120007C007F04121A2E7B017A0079B57DC07C007F03121A2E75760175770075788775DC
:2011400079047B007A007926121836900014E09000B6F0A3F0E4A3F0A37402F090016BE075
:201160009000BAF090016AE09000BBF07B017A0079BC7DE47C007F0A121A2E12000BE4FF34
:2011800074702FF582E43400F583E02554F554E43553F5530FBF56E812000B90006EE5547F
:2011A000F0E553A3F0752B6022752EC322C200121C83EF24C8F533E43EF532E43DF531E4E0
:2011C0003CF530121C83EF2464F547E43EF546E43DF545E43CF544121C837814120328D2ED
:2011E00086C2A2C29DE4F543F52EF537F54F755032F521752232F524752532900007F0F5C0
:201200004BF54CF54DF54EF53EF53F900008F0900014F0FF1200377F0112004A12000B7B7E
:20122000007A0079517D407C007F04121A2E7576007577007578267579047B007A007951B9
:201240001218367B017A00790B7DC07C007F01121A2E1207D77810E6FE08E6FF7D42121AED
:20126000DB12000B7B02E4FD7F90121BCD7B017A01796D7DA47C007F01121A2E90016DE0DD
:20128000FD7B037F03121BCD7B017A00790F7DA57C007F01121A2E90000FE0FD7B037F02E6
:2012A000121BCD7B017A0179727DD47C007F01121A2E12000B7B017A0079657D037C007F3F
:2012C00001121A2E900065E0FF121B411205C37F0112004A121B100218CCE4F54DF54EF53A
:2012E0004BF54CF53EF53F900014E07004F52D800B20A1047F0080027F018F2D30A3047FFE
:201300000080027F018F4A12000B900008E07008900014F0F540805190016DE0FF3395E0C6
:20132000FEEF25E0FFEE33FED3E5259FEE6480F8E524648098400AE4900014F075400180DA
:201340002890000FE0FF3395E0FEEF25E0FFEE33FEC3E5259FEE6480F8E52464809850091B
:201360009000147401F0E4F540900014E0FF120037900014E0650C600F1205C3900014E0BD
:20138000B401057F0212004A900014E0F50CE4F55C7F021216A9EF254CF54CEE354BF54B5B
:2013A0007F201216A9EF254EF54EEE354DF54D055CE55CC3940840D9E54CAE4B7803CEC316
:2013C00013CE13D8F9F54C8E4BE54EAE4D7803CEC313CE13D8F9F54E8E4D1209D475970115
:2013E00002000B7551017552007553E6AB510553E553AA527002055214F9E41201AAAB51A9
:201400000553E553AA527002055214F974551201AAAB510553E553AA527002055214F97412
:20142000AA1201AAAF2B7E00A853AC52AD517B017A00796612013EE52BFD7C00755A007503
:201440005B00755C54AB51AA52A9531219EFE52B2553F553E43552F552AB510553E553AA46
:20146000527002055214F9E5541201AAC29BE4F523FF0FBF80FC74E62523F582E43400F586
:2014800083E0F599E4F52A22E4F551F55290006BE02410601224F5607824FE600D14603A16
:2014A0002424707802036102104790006DE064017071A3E07006752B0AF54322E543B40140
:2014C0000E120EDE8F5290006CE04552F0800790006CE04490F0752B0A22121C838F3B8EC0
:2014E0003A8D398C38120BC18F519000677409F090006A7407F090006CE04551F090017638
:20150000E090006FF0900175E0900070F0752B0B2290006DE0B4010B75A2082290006CE09F
:201520004410F02212000BE54360046410707B121C83781412031BC31202EB501A78141206
:20154000030FEF240AFFE43EFEE43DFDE43CFC7814120328121962121C83AB33AA32A93168
:20156000A830C31202EB5018E53324C8F533E43532F532E43531F531E43530F530121C9D22
:20158000121C83AB47AA46A945A844C31202EB5019E5472470F547E5463417F546E43545A8
:2015A000F545E43544F544121C76227581B00215EC021919E493A3F8E493A34003F68001D2
:2015C000F208DFF48029E493A3F85407240CC8C333C4540F4420C8834004F456800146F619
:2015E000DFE4800B0102040810204080900026E47E019360BCA3FF543F30E509541FFEE42E
:2016000093A360010ECF54C025E060A840B8E493A3FAE493A3F8E493A3C8C582C8CAC58314
:20162000CAF0A3C8C582C8CAC583CADFE9DEE780BEF55DAF60AE5FAD5EFC8F768E758D7451
:201640008C73757720E4F57CF57BF57A757980C2A5D2A2C2A2F578E578C395775048E57612
:20166000557CFFE575557BFEE574557AFDE5735579FCE4FBFAF9F8C31202EB7004C2A48045
:2016800002D2A4E4FF0FBF02FCD2A5AF76AE75AD74AC7378011202FC8F768E758D748C7393
:2016A000C2A5057880B1D2A222E4F565F566F567F5688FA343C01043A120759705E59770E7
:2016C000047E0180027E00EE20E3F2EF24FE601124FE601224E46013241F701990FFFE803A
:2016E0000D90FFFC800890FFFA800390FFF4E04266A3E04268E568AE677802C333CE33CEE5
:20170000D8F9F5688E67756800536703756500E5664268E5654267AE67AF6822AE07121C19
:2017200090121CA7E5D9641860028038AF05121CA7E5D964286002802B75D86430DBFDEE69
:2017400004FF121CA7E5D9644060028017E4FFE56214FEEFC39E502175D84430DBFDE5D902
:201760006450600675D8547F0022E5DA1201AA740129F9E43AFA0F80D675D84030DBFDE503
:20178000DA1201AA75D8547F01220535E535AE347002053414C394A0EE940F403EE52A6401
:2017A000017030E52E700612000B121488E52E600C900069F0900067E02402F52B12000B92
:2017C000C3780FE694C818E6940050030213E3E4F52A22E4F534F5357813F6227B017A00AB
:2017E00079007DFF7C017F01121A2E900000E0F4703AF07B017A0079007DFF7C017F0112A5
:201800001AA5E4900066F0A37408F0A374A0F0E4A3F0A37406F0A374FDF0A3740AF0A374D9
:2018200001F0A3F0A3F0752B0A1213E3227579017B007A00795D8B738A748975E57924FF88
:20184000FFE434FFFEEF2575F575EE3574F574E4FFEFC395795026AB73E5751575AA7470D8
:20186000021574F9120164FEAB760578E578AA777002057714F9EE1201AA0F80D422C0E088
:20188000C083C082C0D075D000C000C006C00730992BC299C29B05239000EAE02406FFE466
:2018A00033FEC3E5239FEE6480F8748098500E74E62523F582E43400F583E0F599D007D01B
:2018C00006D000D0D0D082D083D0E032E490016AF0A3F0F55BF55CC3E55B941D501B855C08
:2018E00082855B83E493FF90016BE02F120003055CE55C70E2055B80DEE4F55BF55CC3E58E
:201900005B94E3501390016BE024FF120003055CE55C70EA055B80E622121BA1121C3D124F
:2019200000161211AD121C681217DC121C838F3B8E3A8D398C38121C83C3EF953BFFEE95A4
:201940003AFEED9539FDEC9538FCE47BE07A2EF9F8D31202EB5003E4F54312152412178ACB
:2019600080D4E4F551F552E5436401603DE4F5537F041216A9EF2552F552EE3551F551058C
:2019800053E553C3940840E8759701E552AE517803CEC313CE13D8F9F5528E51C3943EE581
:2019A0005194005003C2A622D2A622121C90121CA7E5D964186002801BE490017BF0900190
:2019C0007BE0C395665022120164FF121CA7E5D96428600675D8547F0022740129F9E43A8A
:2019E000FA90017BE004F080D575D8547F01228B558A568957E48023ED1DAE0470011C4EB7
:201A0000601F90017BE0FFAB550557E557AA567002055614F9120164FEEF6E90017BF0809C
:201A2000D790017BE0AB5AAA5BA95C0201AA8F738C748D758B768A778978E4F579E579C3AD
:201A4000957350250575E575AE747002057414FF121BF9AB760578E578AA777002057714D1
:201A6000F9EF1201AA057980D422C0E0C0D075D000C000C28E758D28758B00C2AFE50B2499
:201A800001F50BE4350AF50AE43509F509E43508F508780F06E618700106D2AFD28ED00032
:201AA000D0D0D0E0328F5D8C5E8D5F8B608A618962E4FCECC3955D5021055FE55FAE5E700B
:201AC00002055E14FFAB60AA61A9628C8275830012017DFD121C1B0C80D922EF7802C333AB
:201AE000CE33CED8F9FF5307FCBD41054306208013BD4205430660800BBD43054306A0804C
:201B0000034306E0D286C2867D10121B71D28622E4F55BF55C852421852522FB7A00795BF0
:201B2000756202FD7F9012171CE55CAE5B7807CEA2E713CE13D8F8F55C8E5B855B24F5253F
:201B400022C2A77E00EE7017EF24FC600C24FE600C2404700A7F1480067F2880027F3CEF70
:201B60007F0025E025E0FE7D06121B71D2A7C2A722E4FCECC39D50288E5C8F5DE55C54802A
:201B8000FAE55D54008A5CF55D4A7004C2A48002D2A4D2A5C2A5EF25E0FFEE33FE0C80D312
:201BA0002275840F7585C075912E75929D75A40A75A5F475B10275B201E5A7440475C1FFDF
:201BC000F5A775C2A575C35AD294D2AF228B5CE55CB40208755D01755E18800CE55CB403CA
:201BE000078F5D8D5EE4F55F12000B7B007A00795D855C667F900219ABAD07EEFF530701CF
:201C0000A2AF9201C2AF8FF1AF058FF3E5F130E7FB53F17FAFF2A20192AF22AB07EEFF5375
:201C20000701A2AF9201C2AF8FF18DF2AF038FF3E5F130E7FB53F17FA20192AF22E47813F4
:201C4000F6F52A7598F0F5BD75BF0475BE7075BAE075BD03D2ACD2EE227E07EF20E706EFD1
:201C600025E0FFDEF6AF0622758910758D28E4F58BD2ABD28E22E54364016006121B1012D8
:201C8000000B22C2AFAF0BAE0AAD09AC08D2AF2275DD0F75DC0F75D86430DBFD22E54364FF
:181CA0000160031212DA228FDA75D84430DBFD22F0D880A85FE087C905
:00000001FF