:20000000021570C2A7E4C313EF137F0025E025E0FE7D06121ACCD2A7C2A7220219BCE4F57E
:20002000E222FF0207E5040800000000420173FFFF4201770000020D000000FFFFFFFFFF4B
:20004000F0D880A85FE087C9010FE4FEEEC39F5014121BF8E4FDFC0DBD00010CBC8FF8BDA2
:20006000FFF50E80E722FFFFFFFFFF0217E6E709F608DFFA8046E709F208DFFA803E8882E3
:200080008C83E709F0A3DFFA8032E309F608DFFA8078E309F208DFFA807088828C83E309D4
:2000A000F0A3DFFA806489828A83E0A3F608DFFA805889828A83E0A3F208DFFA804C80D21A
:2000C00080FA80C680D4806980F28033801080A680EA809A80A880DA80E280CA80338982D8
:2000E0008A83ECFAE493A3C8C582C8CCC583CCF0A3C8C582C8CCC583CCDFE9DEE7800D894F
:20010000828A83E493A3F608DFF9ECFAA9F0EDFB2289828A83ECFAE0A3C8C582C8CCC5836B
:20012000CCF0A3C8C582C8CCC583CCDFEADEE880DB89828A83E493A3F208DFF980CC88F0F7
:20014000EF60010E4E60C388F0ED2402B4040050B9F582EB2402B4040050AF232345822315
:200160009000BE73BB010689828A83E0225002E722BBFE02E32289828A83E49322BB010C4E
:20018000E58229F582E5833AF583E0225006E92582F8E622BBFE06E92582F8E222E582297B
:2001A000F582E5833AF583E49322BB010689828A83F0225002F722BBFE01F322EF8DF0A4DF
:2001C000A8F0CF8CF0A428CE8DF0A42EFE22BC000BBE0029EF8DF084FFADF022E4CCF875BA
:2001E000F008EF2FFFEE33FEEC33FCEE9DEC984005FCEE9DFE0FD5F0E9E4CEFD22EDF8F56F
:20020000F0EE8420D21CFEADF075F008EF2FFFED33FD4007985006D5F0F222C398FD0FD5E2
:20022000F0EA22E88FF0A4CC8BF0A42CFCE98EF0A42CFC8AF0EDA42CFCEA8EF0A4CDA8F0CD
:200240008BF0A42DCC3825F0FDE98FF0A42CCD35F0FCEB8EF0A4FEA9F0EB8FF0A4CFC5F0E0
:200260002ECD39FEE43CFCEAA42DCE35F0FDE43CFC2275F008758200EF2FFFEE33FECD33A7
:20028000CDCC33CCC58233C5829BED9AEC99E58298400CF582EE9BFEED9AFDEC99FC0FD52C
:2002A000F0D6E4CEFBE4CDFAE4CCF9A88222B800C1B90059BA002DEC8BF084CFCECDFCE583
:2002C000F0CBF97818EF2FFFEE33FEED33FDEC33FCEB33FB10D703994004EB99FB0FD8E53B
:2002E000E4F9FA227818EF2FFFEE33FEED33FDEC33FCC933C910D7059BE99A4007EC9BFC68
:20030000E99AF90FD8E0E4C9FAE4CCFB2275F010EF2FFFEE33FEED33FDCC33CCC833C810BA
:20032000D7079BEC9AE899400AED9BFDEC9AFCE899F80FD5F0DAE4CDFBE4CCFAE4C8F922A8
:20034000EB9FF5F0EA9E42F0E99D42F0E89C45F022E8600FEFC333FFEE33FEED33FDEC334B
:20036000FCD8F122E6FC08E6FD08E6FE08E6FF22E6FB08E6F908E6FA08E6CBF822ECF60861
:20038000EDF608EEF608EFF622D083D082F8E4937012740193700DA3A393F8740193F58214
:2003A0008883E473740293B5F0067403936860E9A3A3A3A380D8E4F556F557900070E075B8
:2003C0005400F555A3E0FEE42555F555EE3554F554A3E0F5537812E6F55C08E6F55D90003A
:2003E0006DE060030204671212F2AD55AC54AF53121980E554600302062FE555245B60210E
:2004000024E4603014602D24F8603424EA603924FE6041243E600302062F12130D7D03805B
:200420000512130D7D027F901216D8900073E558F002062F900014E0900073F002062F9052
:20044000007312131702062F9000737403F0A314F002062F90016BE0900073F090016AE0C4
:20046000900074F002062FE553B40216900073E0755600F557A3E0FEE42557F557EE3556AD
:20048000F556E5547065E555245E602614602324FE602C24D3603514603F24B3704DC3E501
:2004A000569400403FD3E55794FFE5569403403B80321212AF4006EFD394FF402E8025129F
:2004C00012AF4006EFD3947D402180181212AF4006EFD394024014800B1212AF4006EFD31E
:2004E00094C8400790006CE04420F090006CE0640A600302062FE55564407004E554640155
:200500006033E55564404554701FE553B4061A1212F27D407C007F04121A307B017A007999
:20052000777D207C007F0280091212F2AD55AC54AF53121A30D200E5558554F01203890533
:20054000770003058600200588004005AD004A05AD005405B2007505B2007705B200780519
:20056000EB00A405FA00A5060C00C0061600C2058801400000062F900073E0FF900065F0CE
:2005800012000312116B802A757700757800757926757A041212F212187D1206387F01128F
:2005A000004AE5536406600302062F8005120638807D120DB27813E6255DFF18E6355CC3CE
:2005C00013FEEF13FFEEF608EFF67D42121A6612116B7F0112004A120DB27812E6FE08E650
:2005E000FF7D42121A6612116B8044900073E090016DF0FD7B037F03800D900073E090008B
:200600000FF0FD7B037F02121B288023900073E090000BF08019900073E0900008F0121152
:200620006B900065E0FF120003120638121BF8900067E02402F52B227D547F041207CC7504
:20064000780075796A757A041207DB7D4A7F021207CC75780075796E757A021207DBE56F34
:20066000456E7005F56E756F19852965852864852763852662AB65AA64A963A8627F807E01
:20068000237D437C001202AE8F698E688D678C66121BB4E48F69F568F567F566121392A934
:2006A00069A801121386E56FAE6EA801088005C333CE33CED8F9F56F8E6E7F057E007D580A
:2006C0007C0012166985696185686085675F85665E1213BFAC5E7814121335E561441CFF64
:2006E000E5604404FEE55F4485FDA804A905AA06AB07900014E075F020A4FFAEF0EE3395A9
:20070000E0FDFCEB4FF561EA4EF560E94DF55FE84C1207BF7FB37E047D007C001216697F90
:20072000C27E4E7D007C18121669856D61856C60856B5F856A5E1213BFAC5EC006C00712BC
:2007400013B3D007D006121328E5614401F561E5604480F560E55FF55FE55E44081207BF9B
:20076000AB6DAA6CA96BA86A1213921202AEAC00AD01AE02AF03121338C006C0071213B32E
:20078000D007D006121328121392AB6DAA6CA96BA86A1202AE121389780F121386E5614527
:2007A00065F561E5604564F560E55F4563F55FE55E4562F55E1213BFFC121669021BF8F543
:2007C0005EAF61AE60AD5FFC121669227B007A0079707C00121980757700227B007A007961
:2007E0007012187D22C0E0C083C082C0D075D000C000C004C005C006C007C2AF20980302C2
:20080000095AC298753400753500AF997815E6B40C00400302095690081EF828287302082E
:20082000420208420208510208600208700208880208A00208BB0208D30208E30208F7021D
:20084000093D7815BF5505760202095A760002095A7815BFAA05760302095A760002095A40
:20086000781576047814A607900066EFF002095A7814E66FF6900067EFF0781560057605E4
:2008800002095A760002095A7815BFA00E7606900068EFF0781466F602095A760002095AA3
:2008A0007815BFFF1176077814E66FF6900069E4F0F52E02095A760002095A7814E66FF681
:2008C00090006AEFF078156005760802095A760002095A7814E66FF690006BEFF0781576DB
:2008E0000980777814E66FF690006CEFF0780F76077815760A80637814E66FF6780FE624EA
:2009000066F582E43400F583EFF006E6FE24FCFD90006AE0B505047815760B900067E024E3
:2009200002FDE433FCEED39DEC6480F8748098402978157600752A01752E0380107814E63F
:200940006F6003752E0478157600752A0178107600087600800478157600D2AFD007D0064A
:20096000D005D004D000D0D0D082D083D0E032E4F553F554E50E254ECFE50D354DCF254E77
:20098000CF354DFE7C007D031201CE8E0D8F0E90006DE0703B74121212F97410F090006E56
:2009A000E52DF0900014E090006FF0A3F0A3EFF0E50DA3F0A3E53FF0E53EA3F0A3E54CF0F7
:2009C000E54BA3F0A3121317A3E54AF0752B142290006DE064016003020AC1900067745EA2
:2009E000F090006A745CF07A0079707D017F05120AD17A0079757D08120AC57A0079797D44
:200A0000207C007F0B1219807A0079847D757F03120AD17A00798B7D447F14120AD97A00EC
:200A2000799F7D787F04120AD97B017A0079A37D807C007F0E1219807A0079B17DA2120A8F
:200A4000C57A0079B57DC07C007F03121980757701757800757987757A047B007A0079266D
:200A600012187D900014E09000B6F0A3F0A37403F0A314F090016BE09000BAF090016AE0E0
:200A80009000BBF07B017A0079BC7DE47C007F0A121980121BF8E4FF74702FF582E4340035
:200AA000F583E02554F554E43553F5530FBF56E8121BF890006EE554F0E553A3F0752B6045
:200AC00022752EC3227B017C007F041219807B01227B017C00121980227B017C0012198040
:200AE0002275530075546674071212D5C0031B8B7775780075797E757A02D003120C43FA11
:200B0000A9547B01C0031B8B77757800757981757A02D003120C43787FE61846703778821F
:200B2000E6641C184660037F902274181212D5C0038B77757801757979757A02D0031218D0
:200B40007D900175E4F0A304F0F543C294E4A3F0A3F0020C40787EE6FC08E6FD900175E018
:200B60006C7003A3E06D60037F9022D37882E6942018E6940040037F9022ED24FF7885F6A2
:200B8000EC34FF18F6E6FE08E67805C333CE33CED8F97985F7EE19F77885E690003EF01897
:200BA000E690003DF0E418F67883E6C31896E41896501E7883E6FF2554F582E43553F5839A
:200BC000E0FE743F2FF582E43400F583EEF00680D7121BF81213217882E62402F5687FA026
:200BE0001219437880A607121BF8E670037F90227881E6FE08E6FF900178E02FF090017759
:200C0000E03EF0787FE66403184670267883F67883E6FF901C2A93FE74712FF582E43400B3
:200C2000F583E06E6005D2947F9022788306E6B408DD900176E004F07006900175E004F047
:200C40007F002212187D74022554F554E43553F55322E4F53EF53FFD7F011215F6EF253F06
:200C6000F53FEE353EF53E0DBD08EDE53FAE3E7803CEC313CE13D8F9F53F8E3E7B007A0017
:200C8000795E7D76120DA7757800757919120D947D77120DA7757800757962120D947D787E
:200CA0007C007F0412198075770075780075791B757A047B007A00795E12187D900019E0B9
:200CC000F404F562853E63853F64781B120364AB29AA28A927A826C3120340501B1213017E
:200CE000500C121278AF62E4FCFDFE020D471212781212CBFDFC8021AF29AE28AD27AC2641
:200D0000781B120370C3120340505F121301502F12128DAF62E4FCFDFE120223C004C005F2
:200D2000C006C007121251D007D006D005D0041202AEC3E5649FF564E5639EF563802B129A
:200D4000128D1212CBFDFC120223C004C005C006C007121251D007D006D005D0041202AE32
:200D6000EF2564F564EE3563F563C3E563648094805006E4F53EF53F22D3E56494FFE56307
:200D8000648094834007753E03753FFF2285633E85643F22757A017B007A00795E12187DB3
:200DA0007B007A00795E227C007F01121980757701227D207F02120EF37577007578007510
:200DC0007912757A02120EFF7D757F01120EF3757701757800757912120EE07D777C007F2A
:200DE00001121980757701757800757962120EE07D787C007F041219807577007578007530
:200E0000791B757A04120EFF900012E0F404F5627812E6F56308E6F564781B120364AB296C
:200E2000AA28A927A826C3120340501912139B500C12135CAF62E4FCFDFE020E9212135C15
:200E40001213A78021AF29AE28AD27AC26781B120370C3120340505D12139B502F1213711F
:200E6000AF62E4FCFDFE120223C004C005C006C007121341D007D006D005D0041202AEC3F8
:200E8000E5649FF564E5639EF56380291213711213A7120223C004C005C006C00712134115
:200EA000D007D006D005D0041202AEEF2564F564EE3563F563C3E563648094805007E478B5
:200EC00012F608F622D3E56494FFE563648094837812400676030876FF22A66308A66422D3
:200EE000757A017B007A00795E12187D7B007A00795E227B007A00795E7C00121980227B11
:200F0000007A00795E12187D22E4F553F554900177E0FCA3E0FDC3E49DF556741D9CF555D8
:200F2000E556541FF55BE556AE557805CEC313CE13D8F9F5568E55E55B603A900178E09021
:200F4000003EF0EC90003DF0E4F557F558C3E558955BE557940050091212B870F00557800C
:200F6000EC121BF8121321E55B2402F56812103870037F9022E4F559F55AC3E55A9556E506
:200F8000599555506AE4F55CFFFE0FBF00010EBE4EF8BF20F5900178E0255BFD900177E01F
:200FA0003400FCE55AAE597805C333CE33CED8F92DFFEC3EFE90003EEFF0AF0690003DEF36
:200FC000F0E4F557F5581212B8700205576420455770F3121BF81213217568221210387043
:200FE000037F9022055AE55A70020559020F7A90000074FFF0FD1212A4121A30D294C2AFD9
:2010000075E40875E596E5E4540F70FA75E46775E596E5E4540F70FA75E60275E46C75E527
:201020001DE5E4540F70FA75E60375E46C75E561E5E4540F70FA80FE7FA01219438F5CE5AE
:201040005C22C200121BDEEF24C8F533E43EF532E43DF531E43CF530121BDEEF2464F547AF
:20106000E43EF546E43DF545E43CF544121BDE781612037DD286C2A2C29DE4F543F52EF5E5
:2010800037F54F755032F521752232F524752532900007F0F54BF54CF54DF54EF53EF53F26
:2010A000900008F0900014F0FF121C187F0112004A121BF87B007A0079517D407C007F0453
:2010C000121980757700757800757926757A047B007A00795112187D7A00790B7DC01211C1
:2010E00057120DB27812E6FE08E6FF7D42121A66121BF87B02E4FD7F90121B287A01796DD4
:201100007DA412115790016DE0FD7B037F03121B287A00790F7DA512116190000FE0FD7B65
:20112000037F02121B287A0179727DD4121161121BF87B017A0079657D037C007F011219FB
:2011400080900065E0FF1200031206387F0112004A121A9B02173F7B017C007F01121980B8
:20116000227B017C007F0112198022E4F54DF54EF54BF54CF53EF53F900014E07004F52D9D
:20118000800B20A1047F0080027F018F2D30A3047F0080027F018F4A121BF8900008E07084
:2011A00008900014F0F540803790016D1212CEEF25E0FFEE33D31212E4400AE4900014F006
:2011C000754001801B90000F1212CEEF25E0FFEE33C31212E450099000147401F0E4F540D3
:2011E000900014E0FF121C18E0650C600F120638900014E0B401057F0212004A900014E077
:20120000F50CE4FD7F021215F6EF254CF54CEE354BF54B7F201215F6EF254EF54EEE354D2E
:20122000F54D0DBD08DEE54CAE4B7803CEC313CE13D8F9F54C8E4BE54EAE4D7803CEC3135A
:20124000CE13D8F9F54E8E4D120C52759701021BF8900062E0FF3395E0FE7C037DE81201BE
:20126000BCAB07AA06EA3395E0F9F8221201AAAB510553E553AA5222120364C3EF9529FB60
:20128000EE9528FAED9527F9EC9526F822120370C3E5299BFBE5289AFAE52799F9E5269878
:2012A000F8227DFF7B017A0079007C017F0122900073E0FFC3940022743F2558F582E434F0
:2012C00000F58374FFF00558E55822900019E0FF3395E0FE222554F554E43553F553FAA90E
:2012E000547B0122FEE5259FEE6480F8E524648098227B017A00797322900067F090006AFF
:2013000022900019E0C364809480781B227B007A00795875630222E525F0E524FFA3EFF06C
:20132000227B017A00793D221202AE8F618E608D5F8C5E78031203518F618E608D5F8C5EB2
:2013400022900062E0FF3395E0FE7C037DE81201BCAB07AA06EA3395E0F9F822120364C3FE
:20136000EF9529FBEE9528FAED9527F9EC9526F822120370C3E5299BFBE5289AFAE527998B
:20138000F9E52698F8221203518F658E648D638C6222AF65AE64AD63AC6222900012E0C3A0
:2013A00064809480781B22900012E0FF3395E0FEFDFC22AE6EAF6FAB07AA06E4F9F822AFFC
:2013C00061AE60AD5F22E4F551F55290006BE02410601224F5607424FE600D14603A24240C
:2013E00070740203B602096F90006DE06401706DA3E07006752B0AF54322E543B4010E12BB
:201400000F098F5290006CE04552F0800790006CE04490F0752B0A22121BDE8F3B8E3A8D53
:20142000398C38120AE18F5174091212F97407F090006CE04551F0900176E090006FF09005
:201440000175E0900070F0752B0B2290006DE0B4010B75A2082290006CE04410F022755193
:20146000017552007553E612126F7002055214F9E412126C7002055214F9745512126C707A
:2014800002055214F974AA1201AAAF2B7E00A853AC52AD517B017A00796612013EE52BFD89
:2014A0007C00755A00755B00755C54AB51AA52A953121904E52B2553F553E43552F5521235
:2014C000126F7002055214F9E5541201AAC29BE4F523FF0FBF80FC74E62523F582E43400EC
:2014E000F583E0F599E4F52A22121BF8E54360046410707B121BDE7816120370C31203409B
:20150000501A7816120364EF240AFFE43EFEE43DFDE43CFC781612037D1219F7121BDEABEC
:2015200033AA32A931A830C31203405018E53324C8F533E43532F532E43531F531E4353013
:20154000F530121C0E121BDEAB47AA46A945A844C31203405019E5472470F547E546341770
:20156000F546E43545F545E43544F544121BD1227581B00215B1021834E493A3F8E493A3FA
:201580004003F68001F208DFF48029E493A3F85407240CC8C333C4540F4420C8834004F4B2
:2015A00056800146F6DFE4800B0102040810204080900026E47E019360BCA3FF543F30E5B9
:2015C00009541FFEE493A360010ECF54C025E060A840B8E493A3FAE493A3F8E493A3C8C553
:2015E00082C8CAC583CAF0A3C8C582C8CAC583CADFE9DEE780BEE4F565F566F567F5688FD3
:20160000A343C01043A120759705E59770047E0180027E00EE20E3F2EF24FE601124FE60A9
:201620001224E46013241F701990FFFE800D90FFFC800890FFFA800390FFF4E04266A3E08A
:201640004268E568AE677802C333CE33CED8F9F5688E67756800536703756500E5664268B3
:20166000E5654267AE67AF68228F778E768D758C74757820E4F57DF57CF57B757A80C2A503
:20168000D2A2C2A2F579E579C395785048E577557DFFE576557CFEE575557BFDE574557A98
:2016A000FCE4FBFAF9F8C31203407004C2A48002D2A4E4FF0FBF02FCD2A5AF77AE76AD75E8
:2016C000AC7478011203518F778E768D758C74C2A5057980B1D2A222AE07121C036002808B
:2016E00038AF05121C21E5D964286002802B75D86430DBFDEE04FF121C21E5D9644060029B
:201700008017E4FFE56314FEEFC39E502175D84430DBFDE5D96450600675D8547F0022E59C
:20172000DA1201AA740129F9E43AFA0F80D675D84030DBFDE5DA1201AA75D8547F0122E4C6
:2017400090016AF0A3F0F55BF55CC3E55B941D5017855C82855B83E493FF90016BE02F12F6
:20176000178470E6055B80E2E4F55BF55CC3E55B94E3500F90016BE024FF12178470EE0549
:201780005B80EA22F090016AE03400F0121BF8055CE55C220535E535AE347002053414C3D2
:2017A00094A0EE940F403EE52A64017030E52E7006121BF81213C6E52E600C900069F09041
:2017C0000067E02402F52B121BF8C37811E694C818E69400500302145EE4F52A22E4F5343E
:2017E000F5357815F622C0E0C083C082C0D075D000C000C006C00730992BC299C29B0523FF
:201800009000EAE02406FFE433FEC3E5239FEE6480F8748098500E74E62523F582E43400E1
:20182000F583E0F599D007D006D000D0D0D082D083D0E032121AFC121B9812001E1210429D
:20184000121BC31218C5121BDE8F3B8E3A8D398C38121BDEC3EF953BFFEE953AFEED953980
:20186000FDEC9538FCE47BE07A2EF9F8D31203405003E4F5431214E912179480D48B748A9E
:20188000758976E57A24FFFFE434FFFEEF2576F576EE3575F575E4FFEFC3957A5026AB740E
:2018A000E5761576AA7570021575F9120164FEAB770579E579AA787002057814F9EE12019C
:2018C000AA0F80D4221212A2121980900000E0F47031F01212A2121A30E4900066F0A37470
:2018E00008F0A374A0F0E4A3F0A37406F0A374FDF0A3740AF0A37401F0A3F0A3F0752B0AD8
:2019000012145E228B558A568957E48023ED1DAE0470011C4E601F90017BE0FFAB5505579D
:20192000E557AA567002055614F9120164FEEF6E90017BF080D790017BE0AB5AAA5BA95C71
:201940000201AA121C036002801BE490017BF090017BE0C395685022120164FF121C21E504
:20196000D96428600675D8547F0022740129F9E43AFA90017BE004F080D575D8547F012233
:201980008F748C758D768B778A788979E4F57AE57AC3957450250576E576AE757002057562
:2019A00014FF121B54AB770579E579AA787002057814F9EF1201AA057A80D422C0E0C0D0A6
:2019C00075D000C000C28E758D28758B00C2AFE50B2401F50BE4350AF50AE43509F509E4DC
:2019E0003508F508781106E618700106D2AFD28ED000D0D0D0E032E4FDFCE5436401602F7D
:201A0000E4FB7F041215F6EF2DFDEE3CFC0BBB08F1759701EDAE047803CEC313CE13D8F9CC
:201A2000AC06C3943EEC94005003C2A622D2A6228F5E8C5F8D608B618A628963E4FCECC350
:201A4000955E50210560E560AE5F7002055F14FFAB61AA62A9638C8275830012017DFD12B9
:201A60001B760C80D922EF7802C333CE33CED8F9FF5307FCBD41054306208013BD420543B4
:201A80000660800BBD43054306A080034306E0D286C2867D10121ACCD28622E4F55BF55C97
:201AA000852421852522FB7A00795B756302FD7F901216D8E55CAE5B7807CEA2E713CE134D
:201AC000D8F8F55C8E5B855B24F52522E4FCECC39D50288E5E8F5FE55E5480FAE55F540095
:201AE0008A5EF55F4A7004C2A48002D2A4D2A5C2A5EF25E0FFEE33FE0C80D32275840F75A0
:201B000085C075912E75929D75A40A75A5F475B10275B201E5A7440475C1FFF5A775C2A5A6
:201B200075C35AD294D2AF228B5EE55EB40208755F01756018800CE55EB403078F5F8D60F6
:201B4000E4F561121BF87B007A00795F855E687F90021943AD07EEFF530701A2AF9201C2FF
:201B6000AF8FF1AF058FF3E5F130E7FB53F17FAFF2A20192AF22AB07EEFF530701A2AF92D1
:201B800001C2AF8FF18DF2AF038FF3E5F130E7FB53F17FA20192AF22E47815F6F52A75985C
:201BA000F0F5BD75BF0475BE7075BAE075BD03D2ACD2EE227E07EF20E706EF25E0FFDEF6BC
:201BC000AF0622758910758D28E4F58BD2ABD28E22E54364016006121A9B121BF822C2AF21
:201BE000AF0BAE0AAD09AC08D2AF2275DD0F75DC0F75D86430DBFD22C2AF75C2A575C35AEB
:201C0000D2AF22121BEB121C21E5D9641822E5436401600312116B22EF7003D29722C29778
:121C2000228FDA75D84430DBFD22F0D880A85FE087C9ED
:00000001FF