:020000040800F2
:1000000068120020953C0008C5130008C7130008BB
:10001000C9130008CB130008CD130008000000002E
:10002000000000000000000000000000CF130008E6
:10003000D113000800000000D3130008D5130008F6
:10004000AF3C0008AF3C0008AF3C0008AF3C0008E4
:10005000AF3C0008AF3C0008AF3C0008AF3C0008D4
:10006000AF3C0008AF3C0008AF3C0008AF3C0008C4
:10007000AF3C0008AF3C0008AF3C0008AF3C0008B4
:10008000AF3C0008AF3C0008AF3C00080000000097
:10009000000000000000000000000000AF3C00086D
:1000A000AF3C0008CF170008AF3C0008AF3C000889
:1000B000AF3C0008AF3C0008AF3C000881190008C5
:1000C000AF3C0008771A0008AF3C0008AF3C0008BE
:1000D000AF3C0008D51D0008671E0008AF3C0008B3
:1000E000AF3C0008AF3C0008AF3C00080000000037
:1000F0000000000000000000000000000000000000
:1001000000000000000000000000000000000000EF
:100110000000000000000000AF3C0008AF3C0008F9
:1001200000F002F800F03AF80AA090E8000C8244CF
:100130008344AAF10107DA4501D100F02FF8AFF2AC
:10014000090EBAE80F0013F0010F18BFFB1A43F0B5
:1001500001031847144F0000344F0000103A24BF29
:1001600078C878C1FAD8520724BF30C830C144BF1C
:1001700004680C607047000000230024002500265E
:10018000103A28BF78C1FBD8520728BF30C148BFFA
:100190000B6070471FB51FBD10B510BD03F014FEF6
:1001A0001146FFF7F7FF00F010F803F032FE03B43A
:1001B000FFF7F2FF03BC03F037FE000010B507F0B5
:1001C00068F9002010BD0020704710B501F0A6F8B6
:1001D00000F0DDFF00F01CFF00F07BFA7D2002F054
:1001E0000EFD08B102F024FE012002F096FD612010
:1001F00002F005FD0028FAD045F2555007F040F90D
:10020000032007F040F94FF4FA7007F03FF907F0C8
:1002100040F907F043F90E490E4800F0FFFFC821EE
:100220000D4800F0FBFF49F640410C4800F0F6FF96
:1002300000210B4800F0F2FF4FF4C871094800F0AC
:10024000EDFF01F02FF801F043F8002010BD000091
:1002500080380100D711000857070008C7010008BF
:1002600027100008BD01000837B5F84C0022531CC8
:10027000242B08D234F812508D4204DC04EB4205E2
:100280006D888D4202DA9AB2242AF0D300EBC000C6
:1002900002EBC00000F5A06080B2042202A901F0C8
:1002A000FDF93EBD37B5E94B002233F812408C42D0
:1002B00003D0521C92B2242AF7D300EBC00002EB09
:1002C000C00000F5A06080B2022202A901F0B2F9DC
:1002D0003EBDDE4848307047F0B50646174630F858
:1002E00011000C461546B94225DA16E06D1EAC42E7
:1002F00003DA36F815208242F8DA36F8152026F8A7
:10030000142000E0641CAC4203DA36F81420824268
:10031000F8DD36F8142026F81520AC42E7DB26F885
:100320001400621E3046FFF7D7FF3A46611C304684
:10033000BDE8F040D0E7F0BD352070472DE9FC471F
:100340000E462021DDF828908DF8021001218DF84D
:10035000001003218DF80110C9070191BC4998468E
:10036000B1FBF0F1CBB20724190605D459060B0EE8
:10037000641E14F0FF04F7D100FA04F5A24097B20E
:10038000B44A6946B44801F0CAF84FEA491242EA51
:10039000C802B24842EA045202436946AE4801F03C
:1003A000BEF840F2B3426946AB4801F0B8F8AC4A37
:1003B0006946A94801F0B3F8B6FBF7F0C200A948B6
:1003C00069460243A44801F0AAF8B5FBF6F006FB23
:1003D0001050B0FBF7F0C200B5FBF6F042EAC032B5
:1003E00069469D4801F09BF8BDE8FC871CB51022CA
:1003F0008DF8022001228DF8002003228DF80120C3
:100400004FF4004220F00300019241290BD0422911
:100410000CD043290DD040F460428F4869463030FB
:1004200001F07DF81CBD40F40052F6E740F4C042F4
:10043000F3E740F42042F0E701460020012905D10E
:10044000894801798448183001F0D4B8704738B52C
:10045000097801240128B1F9001012D182480069FD
:1004600042F21072B0FBF2F080B26A46FFF7FCFE77
:100470000446BDF80000B0F5805F02D24221FFF7CC
:10048000B5FF204638BD30B40A7889780446B2F901
:10049000003001200A88012C09D17348006942F21A
:1004A0001071B0FBF1F030BC80B21946FAE630BCF6
:1004B00070472DE9F04700266C4F35463446B1466B
:1004C00007F1140807EB4401012001F0D1F928F8E5
:1004D0001490641CE4B20A2CF4D30922002163486E
:1004E000FFF7FAFE6148092200211430FFF7F4FEFD
:1004F0000120414637F81020164431F81020401CE6
:10050000C0B215440928F5D3C6F3CF04C5F3CF050F
:100510000421574802F027F9012800D100252003C3
:1005200005F58055B0FBF5F0C0F38D00BDE8F08710
:1005300010B501281FD14C4801784029017802D21A
:100540004548243015E0402908D30178802905D298
:1005500000784038C1B240480C300AE00178802968
:1005600009D30178C02906D200788038C1B23A4850
:10057000183001F03FF8012010BD70B501281FD1DF
:10058000394CA07950B10022394D4FF480412846B2
:1005900002F001F9A07918B1012202E00122F3E78B
:1005A00000224FF40041284602F0F5F8A07910B976
:1005B000A078012806D000220821284602F0EBF896
:1005C000012070BD0122F7E710B5012808D12648A7
:1005D00080894FF6FF7101EA80004221FFF706FF94
:1005E000012010BD38B501280AD11F4CA07948B1AF
:1005F00000200090E289032361692069FFF79EFED5
:10060000012038BD0120F4E738B5012819D1164C76
:10061000A078012817D000220821154802F0BBF865
:10062000A0780090E289032361692069FFF786FEC4
:10063000A078012820D000224FF480710D4802F0EC
:10064000AAF8012038BD0122E6E700009C48000816
:100650008023430005005800FC4D00080404850079
:10066000C24F00180180000800000020C4000020D4
:1006700000080140000C01400122DDE7F8B50D46FD
:10068000012822D1404EA6F11804306820610422CE
:1006900004F110014FF4A07000F0CCFF287B062875
:1006A00009D1B088A081A0894FF6FF7101EA8000CE
:1006B0004221FFF79BFEA07948B100200090E2891B
:1006C000032361692069FFF739FE0120F8BD01208D
:1006D000F4E770B52C4C0020183CE070607160703D
:1006E000A070A071294D02460121284602F053F85E
:1006F000A07948B100224FF48041284602F04BF81F
:10070000A07918B1012202E00122F4E700224FF49F
:100710000041284602F03FF800224FF480711C4847
:1007200002F039F800211B4800F064FF194800214D
:100730000C3000F05FFF17483F21183000F05AFFDF
:1007400042210020FFF752FE2846BDE870400022FB
:10075000082102F020B810B54FF400410E4802F015
:1007600002F8012800D00020074C183CE0718021DD
:10077000064801F0F8FF012800D00020207200F0A8
:100780009FFF6081012010BD18000020000801407B
:10079000000C0140084E000800100140F0B589B07F
:1007A0000C4605462022F949684603F0D8FA002095
:1007B0006F464FF6FF7612E015F8011B020B06EAB2
:1007C000001382EA111037F810005840020B06EAB5
:1007D000001301F00F00504037F810005840641E1D
:1007E000A4B2E9D209B0F0BDF0B5ADF5007D034685
:1007F00000206D4603E00C5C2C54401C80B29042FB
:10080000F9D37D2613B1012B22D034E0002003461A
:100810001BE02C5C7E2C02D07D2C0BD010E078B13C
:10082000571EBB420CD0CE545B1C521C9BB292B2E2
:100830005E2405E0CE545B1C521C9BB292B25D2438
:10084000401CCC545B1C80B29BB29342E1D312E0BB
:10085000002003460DE02F5C7D2F05D12C18647815
:100860005E2C0CD05D2C0DD0CF54401C5B1C80B294
:100870009BB29342EFD30DF5007D1046F0BD7E2470
:10088000CC5400E0CE54401C521E80B292B2ECE731
:1008900038B505460022694601F050FA00987E24DA
:1008A000092104704170BA490622097881706321D8
:1008B000C170002101714271B64A12888271120A18
:1008C000C271017241728172C1720B21401CFFF72B
:1008D00065FF00990F220873000A48738C7300208B
:1008E000FFF782FF0146284601F053FB38BD38B5BB
:1008F00005460022694601F021FA00987E2409216C
:1009000004704170A2490622097881706021C1708B
:100910000021017142718171C17101724172817254
:10092000C1720B21401CFFF739FF00990F22087399
:10093000000A48738C730020FFF756FF01462846D3
:1009400001F027FB38BD7FB5044693480178FF29A5
:1009500029D1002505700146012240F2FF1000F068
:1009600069FE002203A9204601F0E8F90398592105
:1009700005704170204601F0D6FA0221204601F0B0
:1009800008FB4FF080456946284600F0F9FE4FF419
:10099000FA6632466946284600F0FBFE0028F8D089
:1009A000204601F0E1F97FBD2DE9F04100250A2044
:1009B0008871C879794F1E460C4630B1012829D07C
:1009C000CB2088710120BDE8F0811221617074484C
:1009D0001021217100782072387860723878A07206
:1009E00070480088A4F80B006F480088A4F80D0038
:1009F0006E480088A4F80F006D480088A4F8110024
:100A00006C48007820B10020E07414201880D9E7E9
:100A10000120F9E75E2161705C212171052204F15A
:100A20000A01012000F03AFE042204F10F0108201F
:100A300000F034FE0B2204F11301202000F02EFE02
:100A4000032204F11E01752000F028FE042204F1A7
:100A500021014FF4A07000F021FE142204F12501C1
:100A6000442000F01BFE042204F13901782000F03C
:100A700015FE0E2204F13D01802000F00FFE04223D
:100A800004F14B01A22000F009FE032204F14F0102
:100A9000C02000F003FE0A2204F15601E42000F019
:100AA000FDFD397884F85010397884F851104248A7
:100AB0004FF4C061A4F852100188A4F8541000202B
:100AC0002118401C897AC0B229448DB25628F7D328
:100AD00025816078801C308074E770B500208871B3
:100AE000C8791D460C46012814D1207A80B101F046
:100AF00039FB012808D12849FF200870012240F263
:100B0000FF1000F097FD18B9A07940F0C200A07165
:100B10000A202880012070BD2DE9F04108460C46CE
:100B20000021217000F8031F244E8588C1881F46CC
:100B300004F1120035B17288954214D0A07940F0CA
:100B4000C30016E01C2905D0A07940F00300A07175
:100B5000002038E7008BB08001F008FB50B9A07985
:100B600040F0C20005E001F035FA18B9A07940F074
:100B70009000A0716D1C75800920607007202071A5
:100B8000A4F809500B20388001201CE7DC4D000838
:100B900080000020820000205C0000200200002075
:100BA000070000206E00002070000020720000206E
:100BB0000A000020080000205A00002074000020D5
:100BC000002088710A201880012070472DE9F04725
:100BD00091468A4604460027FFF77BFB0646A07A2B
:100BE000E17A00EB01201FFA80F8E079012808D1B2
:100BF0006079DA2805D1227B04F10D01404600F02E
:100C000019FD6078801C0021A9F80000E1700D46F4
:100C100044E005EB4500627916F830100127914257
:100C200003D106EBC0035B8853B1914234D106EB8C
:100C3000C000418841452FD1E07980B101281BD007
:100C400005EB450006EBC0004569002D30D0E0798A
:100C50004B4652462146AC46BDE8F047604705EB9F
:100C6000450006EBC00081680029E9D0227B04F131
:100C70000D0003F02FF8E3E705EB450006EBC0009D
:100C800080680028DCD0227B04F10D0103F022F8FB
:100C9000E84901200870D3E76D1CEDB2FFF74CFB6B
:100CA000A842B6DC002F03D1A07940F01000A0715B
:100CB000BDE8F0872DE9F043DF4A8146160687B08C
:100CC000DE49304600F065FDDD4C002530B120786E
:100CD000012803D12570484601F046F802AA69466A
:100CE000484601F02BF80099487846280ED0BDF808
:100CF0000800052807D900240A5D552A78D0641C0D
:100D0000A4B2052CF8D307B0BDE8F083BDF80820E5
:100D1000052AF8D3887853281FD044284DD0452879
:100D2000F1D1C8785828EED108794528EBD1C349CC
:100D3000304600F025FD484600F0CBFF0098C14941
:100D40004E24C0F80150FF200870012240F2FF102D
:100D500000F070FC012862D05CE0C8785428D2D141
:100D600008794128CFD1484600F0B3FF00984E27BC
:100D7000C0F8015001F0FAF9012800D15927009874
:100D8000022105704770484601F003F903A9304677
:100D900000F0F6FC4FF4FA652A4603A9304600F04D
:100DA000F8FC0028F8D0484601F0BDF8012020707A
:100DB000A249304600F0E4FCA5E7C8784F28A2D14C
:100DC000087957289FD14879C01D90429BD89B49EC
:100DD000304600F0D5FC484600F07BFF00984E24DA
:100DE0000023C0F801504179ADF804101A4605E01F
:100DF00018E08618B6797340521C92B28A42F8D332
:100E0000421892799A4205D1801D01F0E3F8012839
:100E100000D15924009802210570447074E001F05B
:100E2000A1F9F6E7052CC7D20E197178AA29C3D10A
:100E3000611DB61C8842BFD97178001B401F8142DA
:100E4000BAD1484600F045FFA71CBDF80830B8B23B
:100E50000021A3F1010C009A05E012F80080401C6B
:100E600088EA010180B26045F7DBD01810F8010C68
:100E7000884215D0B07940F00400B07100200146DE
:100E8000737805E025181544AD786940401C80B2A0
:100E90008342F7D89818E41CC1557078204432E09A
:100EA000181BC01E81B2101901AA801CFFF78EFE0C
:100EB00000200146009A05E0231813449B7859400E
:100EC000401C80B2BDF804309842F5D398B220445B
:100ED00010448170BDF8040014B12044C01C12E01D
:100EE000001D80B2009905E00A1812F8012C0A547E
:100EF000401E80B20028F7D10D7055204870BDF813
:100F000004002044001D81B2484601F042F8FAE690
:100F10004B490020886001F029B970B50D460446A0
:100F200001F058F8024601280ED145498868284446
:100F300088602070C11700EB1160000A607000200B
:100F4000A070E07020716071104670BD70B53C4EAD
:100F500004460D46B0680144B1F5E04F02D9C0F532
:100F6000E04085B23DB12946204601F033F8014604
:100F7000012802D00FE0002070BDB0682844B060A6
:100F80002070C21700EB1260000A60700020A07091
:100F9000E07020716071084670BD10B504882A4861
:100FA0002A4900780978884214D127492848091F1E
:100FB0000078097800F0F00001F0F001884209D1D2
:100FC00024480088A04201D1012010BD00F0ACF8F7
:100FD000A04201D0002010BDBDE8104001F004B9CE
:100FE00010B504881848194900780978884209D151
:100FF00018480088A04201D1012010BD00F094F8EB
:10100000A04201D0002010BDBDE8104001F0AAB8F8
:1010100010B5002000F04EFE012000F04BFEBDE8B0
:10102000104000208FE410B50020FFF743FE0020A1
:1010300010BD000003000020400D0300F800002058
:10104000740000205C000020F8DF0008F85F000852
:10105000F45F000882000020F0B565490124654A6C
:10106000654D2346084617680668BE4200D0002436
:10107000001D121DA842F6D360480A680668B242F5
:1010800000D00023001D091DA942F6D3012C03D076
:10109000012B01D00020F0BD0120F0BD10B5554856
:1010A000574A0168491C02D1001D9042F9D3904271
:1010B00002D101F091F80BE052484078122801D09B
:1010C000012010BDFFF7C8FF0028FAD101F088F811
:1010D00000F083F84C4A00214FF0006010F8013B0B
:1010E0009042194489B2F9D3A1F5004188B2704702
:1010F000454B10B53F4A0020194611F8014B91426B
:10110000204480B2F9D3414A12F8011B9A420844A4
:1011100080B2F9D3A0F5004080B210BD4FF4E04199
:101120004FF00060FFF73ABB4FF4E0413648FFF75D
:1011300035BB3449122001224870491CFF2000F0C1
:1011400079BA304810B541780024122907D111210D
:1011500041700124411C2246FF2000F06BFA20461A
:1011600010BD38B527480478012C07D100218DF82F
:10117000001001226946FE2000F05CFA204638BDCE
:101180002049012002460870FE2000F053BA70B5D5
:10119000FFF79FF8054600240BE004EB440005EB45
:1011A000C003996819B11A7B588800F077FA641C5B
:1011B000A4B2FFF7C1F8A042EFDC15490020088077
:1011C000124A4FF000600C8810F8013B23440B805A
:1011D0009042F8D370BD002070470E4801680E4A57
:1011E00001F4E06111430160BFF3408FFEE70000AE
:1011F0000050000800F000080060000800D000085F
:101200000000010884000020008000080070000831
:101210005A0000200CED00E00400FA0530B43D4C0B
:1012200023780A2B11D23C4A03EB830502EB85029B
:101230001569002D09D1C2E903105B1C237030BC75
:1012400011464FF0804000F09BBA30BC7047F0B5BB
:10125000DFF8C0C09CF80010491E092921D80021E0
:10126000DFF8B4E019E001EB81020EEB82021469B1
:10127000844210D103EB83040EEB840454F8085C21
:10128000143CD56094E8E00082E8E00024695B1E2D
:1012900014618CF80030491CC9B29CF800309942A6
:1012A000E1D3F0BD2DE9F04100241B4D4FF0804704
:1012B000184E08E004EB840005EB8001384600F08E
:1012C0005FFA641CE4B230788442F3D3BDE8F08165
:1012D000DFF844800F4E4FF08047002515E005EB06
:1012E000850108EB8104206968B121463846E2682F
:1012F00000F04FFA38B12146384600F041FA00219B
:101300002269084690476D1CEDB230788542E4D2E0
:10131000E5E700008600002004010020F8B5002069
:1013200001F0CAFC0121244801F05DFD012144F2D5
:101330001D2001F04FFD4FF4E06000F077FF252005
:101340008DF8000001248DF802408DF803406846B6
:1013500000F071FF26208DF800008DF802408DF816
:101360000340684600F067FF0121144801F030FA9D
:101370000024134E022706EB04156946A888ADF831
:1013800000008DF80270287B8DF80300286801F0BA
:1013900094F9A86810B1012101F01AFA641C232CF9
:1013A000E9D300F02FFA002000F0DEFC00F0E0FBB3
:1013B000BDE8F84000F0A4B90100220000043000AC
:1013C000384E00087047FEE7FEE7FEE7FEE770478D
:1013D00070477047704700002748016841F00101DD
:1013E00001604168254A114041600168244A11406A
:1013F0000160016821F480210160416821F4FE014F
:1014000041604FF41F0181600021C1621D49C0038A
:101410000860704730B5184A50681B4B1B4910F0E4
:101420000C0004D01A4C042803D0082803D00B6009
:1014300017E00C6015E05068536800F470104FF02E
:10144000020513F4803F05EB904007D0D36A03F008
:101450000F035B1CB4FBF3F34343E8E70D4B584326
:1014600008605068094AC0F30310121D105C0A6836
:10147000C2400A6030BD0000001002400000FFF8CA
:10148000FFFFF6FE08ED00E000127A008800002061
:10149000001BB70000093D0058B101280BD00228FD
:1014A0000BD003280BD14F48012A00D0002201F0B5
:1014B00072B94D48F8E74D48F6E74D48F4E77047F4
:1014C00010B504464A788088E188DAB1012A0ED046
:1014D000022AC0B24FF0000205D0FFF7DDFF61889D
:1014E0002078012210E0FFF7D7FF618820780022E2
:1014F000C0B2FFF7D1FF0A2002F09EFC618820787D
:10150000012209E0C0B20022FFF7C6FF0A2002F064
:1015100093FC618820780022BDE81040BCE72DE9EB
:10152000F04190460E460446FFF7CAFF002526E02C
:1015300032787068012A05D0A84018EA000F03D05D
:10154000012702E0E840F8E700270A2002F074FCD7
:101550006189207A3A46FFF79FFF0A2002F06CFC6F
:10156000E18820790122FFF797FF0A2002F064FC4E
:10157000E18820790022FFF78FFF6D1CEDB2B07873
:10158000A842D5D80A2002F057FC3146204600F088
:1015900003F80120BDE8F08110B504464A780088C0
:1015A0006188AAB1012A09D0022A02D0C0B2012260
:1015B00001E0C0B20022BDE810406DE7C0B20022D9
:1015C000FFF76AFF0A2002F037FC61882078EDE718
:1015D000C0B20122FFF760FF0A2002F02DFC6188F3
:1015E0002078E6E70014014000080140000C0140AB
:1015F000001001401CB506228DF8022001228DF852
:10160000002000228DF8012020220192084A824207
:1016100002D00C32824205D1A1F10E020A2A01D871
:10162000491CC9B20A466946FFF779FF1CBD000094
:10163000144E00082DE9FE4316460F46804600244E
:101640004FF47A791EE008EB0400010A8DF80810C7
:101650008DF8090000F03F00C0F14005301BA842A2
:1016600000D20546E9B23819CDE90001022302AAE9
:10167000A021124800F074FA0028484609D002F070
:10168000DBFB2C44B442DED3B44205D10120BDE8DB
:10169000FE8302F0D1FBF7E70020F8E70EB5030A5E
:1016A0008DF808308DF80900D0B2CDE90010022382
:1016B00002AAA021014800F03AFA0EBD00540040F1
:1016C00000F006B91FB500208DF80C00022102A819
:1016D000CDE90001012303AA9021084800F027FA70
:1016E0009DF80800000201B29DF8090004B008430B
:1016F000C11700EB5160C01110BD00000054004044
:101700003EB54FF6FF70ADF804003B4849F6404146
:101710004FF080440068B0FBF1F0401EADF80000CF
:101720000020ADF80600ADF802006946204601F041
:101730003DFC0121204601F0E1FE3EBD3EB568467C
:1017400001F0B8FEC820ADF804002720ADF8000075
:1017500000202A4CADF80600ADF80200694620468C
:1017600001F024FC0121204601F07EFF01221146F8
:10177000204601F0D8FE0121204601F0BFFE3EBD0B
:1017800010B50C4602F0D5F8A06000202060A080C3
:1017900010BD2DE9F04115460C46074602F0C9F888
:1017A0002189401A86B2B5F5803F02DAAE4209DAE5
:1017B0000BE0384602F0BDF82081206830442060FC
:1017C000A84202D30120BDE8F0810020FBE710B55C
:1017D0000A4C0121204602F0BAF800280AD0012163
:1017E000204602F0C0F806480068002802D0BDE894
:1017F0001040004710BD000088000020002C014070
:101800009C00002010B586B000214FF46020CDE987
:1018100002018DF804100220534C00918DF8051040
:101820008DF810006946204600F074FD0623012261
:101830000221204600F0EEFD06230122032120466E
:1018400000F0E8FD0121204600F08CFD204600F06C
:10185000A6FD204600F0A8FD0028FAD1204600F0A1
:10186000AAFD204600F0ACFD0028FAD106B010BD5C
:101870002DE9F0410F004FF0000510D0DFF8E880AF
:101880000146022301224446404600F0C3FD0121E7
:10189000204600F09CFD00244FF4FA6606E028463E
:1018A000BDE8F081641CA4B2B44205D202214046D6
:1018B00000F084FE0028F5D0B44204D0404600F089
:1018C000EDFD388001250021404600F080FDE6E76F
:1018D00070B5254E072301221021304600F09AFDF5
:1018E000012000F05FFE0121304600F070FD002471
:1018F0004FF4FA6503E0641CA4B2AC4205D20221A5
:10190000304600F05BFE0028F5D0AC421DD03046DA
:1019100000F0C4FD02F0DCFC4FF06632134B02F025
:10192000EBFC6FF00B0202F073FF114A114B02F057
:10193000E1FD0022104B02F073FB00220F4B02F07E
:10194000BFFA02F08BFA044600E000240021304682
:1019500000F03DFD002000F025FE204602F0C0FE14
:10196000400000B270BD00000024014066660A40DD
:101970008FC2F5285C8FF63F00CCB04000003940A4
:10198000F8B5C04D284601F0CCF8BF4F0022C11B6E
:10199000BE4EBF4C4FEA77330090B8422CD008DCE3
:1019A000102834D0B0F5806F5FD0B0F1021F08D19D
:1019B00020E04039B1F580213FD002293CD00429F4
:1019C0003BD0228062801946284601F0C9F80021E8
:1019D000284600F0EFFF3146284601F0D3F84FF0DB
:1019E0000121284601F0CEF8AA49284601F0CAF89C
:1019F000A9493BE02280F8BD284601F015F821886E
:101A0000A64BC1F30802491C98542180F8BD194621
:101A1000284601F0A5F80021284600F0CBFFE56834
:101A2000002DF3D0218801B0AC46BDE8F040984BC2
:101A30009A481B1D1A1D60476280A1680029E5D0E5
:101A40006088095C401C6080284600F0EBFF9449E8
:101A50000A220020934B096801E0401C80B2B1FBD0
:101A6000F3F454438442F8D8F8BD31462846BDE823
:101A7000F84001F087B870472DE9FF5F1E46DDE9A9
:101A80000E9790464FF0000B72B65D46DFF818A235
:101A90000121009800F084FF8449009800F088F844
:101AA000D8B3DDE90001002200F0C1FF7E490098B3
:101AB000891C00F07DF880B300240BE018F80410B6
:101AC000009800F0AFFF5146009800F071F818B18F
:101AD000641CE4B2B442F1D3B4421FD100240BE041
:101AE00019F80410009800F09DFF5146009800F08E
:101AF0005FF818B1641CE4B2BC42F1D3BC420DD112
:101B000069490098091D00F053F830B1012100988F
:101B100000F050FF4FF0010B04E0FFE76D1CEDB249
:101B2000032DB5D362B6584604B0BDE8F09F2DE949
:101B3000FC4107460020DDE90854009001900E4664
:101B40003846FFF799FF012807D123462A46314638
:101B5000384600F046F8012800D00020BDE8FC819E
:101B60007CB5DDE90645CDE90045FFF785FF7CBD85
:101B70001FB5444C204600F07BFE0021ADF8041058
:101B80004BF6FF71ADF8061021150801ADF80C00F9
:101B90004748ADF80A1000900121204600F0E2FE0F
:101BA0006946204600F077FE1FBD3948C160704786
:101BB0002DE9F0410E46074600244FF47A7503E004
:101BC000641CA4B2AC4205D23146384600F09DFFF9
:101BD0000028F5D0AC4202D10020BDE8F081012000
:101BE000FBE72DE9FF5F1D4690464FF0000972B6F6
:101BF0004E46DFF8B8B00121009800F0D1FE5946FA
:101C00000098FFF7D5FF80B3DDE90001012200F065
:101C10000EFF26490098491CFFF7CAFF28B3DFF8DA
:101C20008CA000246F1E0AF13F0A17E0012D01D09D
:101C3000BC4207D10021009800F0C6FE01210098A7
:101C400000F0B8FE51460098FFF7B2FF40B100988F
:101C500000F0EAFE08F80400641CE4B2AC42E5D3EC
:101C6000AC4203D14FF0010904E0FFE7761CF6B265
:101C7000032EC0D30121009800F0A6FE62B64846AC
:101C800052E7000000540040400002000004000140
:101C9000A00000200008000100100001CC0100207D
:101CA0008800002040420F00800007000100030070
:101CB000400D0300C349C44A01EB402100EB400042
:101CC00042F8201002EB8000002101818180C18058
:101CD000704700EB4002BC48002100EB820001810C
:101CE0008180C180704710B5B74C00EB400204EB17
:101CF000820054F822208388D1548188491CC1F382
:101D0000080181800189491CC1F30801018110BDCE
:101D100030B5AD4D00EB400305EB8300018959B1AF
:101D2000C288D4B2521CC2F30802C280491E01818B
:101D300055F82300204430BD002030BD10B5A24B23
:101D400000EB400011B153F820400C60002A03D092
:101D500003EB80000089108010BD9B4900EB400020
:101D600001EB8000028170477FB580B301282DD13F
:101D7000964C4FF4165000900020ADF80400ADF8DA
:101D80000600ADF80800ADF80C000C20ADF80A0014
:101D90006946204601F01AFE40F2255529462046A4
:101DA00001F067FF40F226663146204601F061FFF0
:101DB00001222946204601F086FE012231462046B6
:101DC00001F081FE0121204601F073FE7FBDFFE797
:101DD0007F4CCEE738B57E4D40F22664214628463A
:101DE00001F028FF01280ED040F225542146284654
:101DF00001F020FF012816D00020FFF7B5FFBDE855
:101E00003840002065E72146284601F032FF0020D7
:101E1000FFF77EFF040005D02178284601F09FFEE1
:101E20000020207038BD2146284601F022FFC8223C
:101E30006449D40618392046FFF7ABFC012802D1CB
:101E40000020FFF746FF5F4920461839FFF798FC4E
:101E5000284601F088FE8DF800009DF80010BDE8CE
:101E6000384000203FE738B5584D40F226642146FF
:101E7000284601F0DFFE01280ED040F2255421460D
:101E8000284601F0D7FE012816D00120FFF76CFF8D
:101E9000BDE8384001201CE72146284601F0E9FE54
:101EA0000120FFF735FF040005D02178284601F016
:101EB00056FE0020207038BD2146284601F0D9FE8C
:101EC000C8224049D4060C392046FFF762FC01289D
:101ED00001D1FFF7FEFE3B4920460C39FFF750FCCD
:101EE000284601F040FE8DF800009DF80010BDE886
:101EF00038400120F7E62DE9F04116460D46074629
:101F000000240CE015F8011B384601F028FE802162
:101F1000384601F085FE0128F9D1641CE4B2B442D0
:101F2000F0D3BDE8F0817FB580B301282DD1274CD7
:101F30004FF4E13000900020ADF80400ADF8060049
:101F4000ADF80800ADF80C000C20ADF80A006946A9
:101F5000204601F03BFD40F225552946204601F080
:101F600088FE40F226663146204601F082FE0122BC
:101F70002946204601F0A7FD01223146204601F006
:101F8000A2FD0121204601F094FD1FE7FFE7104C60
:101F9000CEE710B5044600EB44020B4800EB82008C
:101FA00001810021C1802046FFF7B2FE002808D041
:101FB000017824B10548BDE8104001F0D0BD0448C7
:101FC000F9E710BDE4030020E407002000440040CE
:101FD000003801402DE9F05F0746DFF83482A1F5B3
:101FE0007F400D464FF00009FE3822D0894CA5F500
:101FF0007F40FF3822D0002F66D0D8F80490002010
:102000008B464FF40042A84261D2D8F804109142A6
:102010005DD8C1F3090141443B5C0B72D8F8041050
:1020200000F10100491CC8F804108905EBD1834672
:1020300051E088F80090C8F8049091E004F0F9FFAE
:10204000342005F006FA98F8000004EB802005F033
:102050002AF8042866D198F800102746002504EBDA
:1020600081240DE008EB05062046B16805F0B9F8BB
:10207000042857D1B0682168884253D1241D2D1DF2
:10208000B8F80400C0F30900A842EBD8D8F804104F
:10209000614ECD190CE00021204605F0A2F804287D
:1020A00040D108EB05002168806888423AD12D1D97
:1020B000B542F0D304F0C9FF88F80090C8F8049046
:1020C000FFF737F805F0FAF90020BDE8F09FB8F8FF
:1020D0000400800544D104F0ACFF342005F0B9F9C8
:1020E00098F80010264604EB812004F0DCFF042859
:1020F00002D0C8F8049015E098F80010002406EB10
:102100008126C2460AEB04083046D8F8081005F0CC
:1021100068F8042804D1D8F808003168884204D04F
:10212000CAF8049004F091FFCEE7241D361DB4F5E3
:10213000806FE7D304F089FF9AF800005146401CF5
:102140008AF80000584609E08B883A5CC3F309031B
:102150000B441A724A68521C401C4A60A842F3D3CE
:102160000120B2E74FF6FF71002033E74FF6FE7112
:1021700000202FE72DE9F04116460F46044672B6BF
:1021800004F057FF342005F064F9002508E007EB60
:10219000852004F088FF04281DD105F07AF96D1C14
:1021A000B542F4D33D4604EB86260DE0284621686F
:1021B00005F017F804280ED12068296888420AD152
:1021C00005F067F9241D2D1DA642EFD804F03DFF50
:1021D0000120BDE8F081FEE704220F490F48C9E75E
:1021E00004220E490C48C5E7FEF7A3FF04220B4961
:1021F0000B48FFF7BFFF00F000F80A4801680A4AE1
:1022000001F4E06111430160BFF3408FFEE700007D
:10221000FC0700200080000800F0000800500008C3
:1022200000D000080CED00E00400FA05284908433E
:1022300028490860704730B50F23C278017801251E
:10224000F2B1244A126801F1E02102F4E062C2F521
:10225000E062120AC2F10404D3404278A2408478BA
:102260001C401443220181F80024007800F01F0173
:102270008D404009800000F1E020C0F8005130BDE1
:1022800001F01F0085404809800000F1E020C0F8FF
:10229000805130BD104A114001430E48001F0160BB
:1022A00070470C4A121D0029116801D0014300E05B
:1022B0008143116070474FF0E0210428086903D082
:1022C00020F004000861704740F00400FAE70000C5
:1022D0000000FA050CED00E080FFFF1FC54910B5B6
:1022E000884202D1012144150AE0C349884202D143
:1022F0000121041504E0C14988420AD10121CC031F
:10230000204600F079FD2046BDE81040002100F095
:1023100073BD10BD10B54268B94B0C791A400B68FB
:1023200042EA0422134343608268B64B1A40D1E963
:10233000024323434C7942EA440213438360C26A56
:10234000097C22F47002491EC9B242EA0151C162FD
:1023500010BD00210160017141718160C1600121E6
:10236000017470470029816802D041F0010101E049
:1023700021F00101816070470029816802D041F499
:10238000807101E021F4807181607047002A426809
:10239000C9B201D00A4300E08A43426070478168B5
:1023A00041F00801816070470146002089680907F3
:1023B00000D501207047816841F0040181607047B9
:1023C000014600208968490700D50120704700298F
:1023D000816802D041F4A00101E021F4A0018160F4
:1023E0007047014600208968490200D501207047E6
:1023F0004268491E22F4604242EA4131416070471E
:102400000029416802D041F4006101E021F400613B
:102410004160704770B5072609290AD9C568A1F13E
:102420000A0404EB4404A640B543A3401D43C56021
:1024300007E0056901EB4104A640B543A3401D43F5
:1024400005611F23072A09D2446B521E02EB820248
:1024500093409C4391400C43446370BD0D2A09D2C4
:10246000046BD21F02EB820293409C4391400C43C9
:10247000046370BDC46A0D3A02EB820293409C4330
:1024800091400C43C46270BD0029816802D041F4C0
:10249000801101E021F4801181607047C06C80B22E
:1024A000704754484C30006870470029416802D09A
:1024B00041F4806101E021F48061416070470029AE
:1024C000416802D041F4805101E021F48051416023
:1024D0007047826822F4E0420A4382607047002914
:1024E000816802D041F4004101E021F400418160A3
:1024F00070470029816802D041F4021101E021F403
:10250000021181607047014600208968890200D568
:102510000120704770B5072609290AD9C568A1F1BD
:102520000A0404EB4404A640B543A3401D43C56020
:1025300007E0056901EB4104A640B543A3401D43F4
:102540000561836BC3F30154121B921C02EB8202E0
:102550001F249440A34391400B43836370BD826B5F
:10256000491E22F4401242EA01518163704708B5C6
:1025700008440090026008BD08B508442830009067
:10258000006880B208BD42681F4B1A400A4342608F
:102590007047416282627047426822F01F020A431C
:1025A00042607047134908310028086802D040F49F
:1025B000000001E020F4000008607047024600209F
:1025C00012680A4200D001207047C9430160704779
:1025D00010B50246002054680B0AC9B20C401168BD
:1025E000194202D0002C00D0012010BD6FEA112149
:1025F000016070470024014000280140003C014078
:10260000FFFEF0FFFDF7F1FFFFFD3FFF8F4910B523
:10261000884206D10121042000F0EEFB00210420B5
:102620003BE08B49884206D10121082000F0E4FB01
:102630000021082031E08749884206D1012110207D
:1026400000F0DAFB0021102027E08349884206D100
:102650000121202000F0D0FB002120201DE07F4937
:10266000884206D10121402000F0C6FB0021402015
:1026700013E07B49884206D10121802000F0BCFB99
:102680000021802009E0774988420AD18415012180
:10269000204600F0B1FB00212046BDE8104000F0CC
:1026A000ABBB10BD10B50121084600F0A5FB002111
:1026B000BDE81040012000F09FBBF0B5CC780022AF
:1026C00004F00F03E40601D58C7823430C784FF017
:1026D0000F0C14F0FF0F4FF0010E1BD005680E8891
:1026E0000EFA02F42640A64210D196000CFA06F724
:1026F00025EA070703FA06F5CE783D43282E02D0D7
:10270000482E02D002E0446100E00461521C082A15
:10271000E5D305600A88FF2A1CD94468002202F12B
:1027200008060EFA06F50E882E40AE420ED196002F
:102730000CFA06F7BC4303FA06F7CE783C43282E82
:1027400000D14561CE78482E00D10561521C082A7F
:10275000E5D34460F0BD4FF6FF7101800221817026
:102760000421C17070470246002092680A4200D0DE
:1027700001207047806880B2704702460020D2680E
:102780000A4200D001207047C06880B270470161E2
:102790007047416170470AB10161704741617047FC
:1027A000C160704741F480328261816182618169D8
:1027B000806970472C4B10B51A684FF68074224020
:1027C00042EA00100843186010BD2849C8617047EC
:1027D000F0B5254C002801DAE36900E06368450D97
:1027E0002E0185B2C0F30157B540C0F30342032F59
:1027F00005D0C6020AD503269640B34307E023F06E
:102800007062636823F07063636002E0AB4343F07F
:10281000706201B12A43002801DAE261F0BD626012
:10282000F0BD10B58A0721F003040F49120F2144AF
:102830000F238C6893409C438C608B6890400343CB
:102840008B6010BD0949C1F8DC00704700080140E9
:10285000000C01400010014000140140001801402C
:10286000001C014000200140000001400000204207
:10287000C64910B588424FF0010101D14C0501E075
:102880004FF48004204600F0C0FA2046BDE8104016
:10289000002100F0BABA70B50446808886B00D46B3
:1028A00020F03F06684600F044FAB9490298B0FBB0
:1028B000F1F189B20E43A680228822F00102228023
:1028C000B44B2A689A421CD85200B0FBF2F080B296
:1028D000042800D20420491C2184A083208840F0D1
:1028E0000100208020884FF6F5310840A9886A89C8
:1028F000114301432180A88929890843208106B01A
:1029000070BDEB88A3F53F46FF3E0BD002EBC20340
:1029100003EB0212B0FBF2F080B240F480400205FB
:1029200006D007E002EB4202B0FBF2F080B2F6E71D
:1029300040F001004FF4967251434FF47A72B1FBAC
:10294000F2F140F40040C6E741F288310160002115
:1029500081804BF6FF72C280018141814FF480413A
:10296000818170470029018802D041F0010101E016
:1029700021F00101018070470029818802D041F4D3
:10298000006101E021F400618180704700298188A5
:1029900002D041F4805101E021F4805181807047E0
:1029A0000029018802D041F4807101E021F4807196
:1029B000018070470029018802D041F4007101E0D4
:1029C00021F40071018070470029018802D041F490
:1029D000806101E021F4806101807047828901F00B
:1029E000FE0122F0FE021143818170470029818996
:1029F00002D041F0010101E021F001018181704725
:102A00000029018802D041F0400101E021F040019D
:102A100001807047002A828801D00A4300E08A437F
:102A20008280704701827047008AC0B2704712B13D
:102A300041F0010101E001F0FE010182704708B59B
:102A400008440090008808BD0029018802D041F4A4
:102A5000004101E0C1F30E0101807047B1F5006F44
:102A6000018803D021F400610180704741F40061C6
:102A7000FAE7B1F5005F018803D021F4005101802D
:102A8000704741F40051FAE70029018802D041F46F
:102A9000805101E021F4805101807047B1F5006F51
:102AA000018803D021F400610180704741F4006186
:102AB000FAE70029018802D041F0200101E021F06D
:102AC000200101807047008B000A704700290188AF
:102AD00002D041F0100101E021F0100101807047A7
:102AE0000029018803D021F080010180704741F066
:102AF0008001FAE7B1F5804F818B02D021F480414B
:102B000001E041F4804181837047034600209A8AA6
:102B10001B8B42EA034222F07F42914300D1012005
:102B20007047818A008B41EA004121F07F40704765
:102B30000CB50246002000920A0F21F07F4101925D
:102B400002D0009A143202E0009A090C1832009266
:102B500012680A4200D001200CBDC943818270472F
:102B600010B5034600209A884FF4E06404EA11444B
:102B70009B8A224021F07F410B4202D0002A00D0E4
:102B8000012010BDC94381827047000000540040FD
:102B900040420F00A0860100AE48016841F00101EB
:102BA00001604168AC4A114041600168AB4A114084
:102BB0000160016821F480210160416821F4FE0177
:102BC00041604FF41F0181600021C1627047A1493B
:102BD0000A6822F480320A600A6822F480220A60BD
:102BE000B0F5803F07D0B0F5802F03D1086840F4DE
:102BF000A02008607047086840F48030F9E7034679
:102C000000205909934A01290AD002290AD0516AA1
:102C100003F01F02012393400B4200D001207047B4
:102C20001168F5E7116AF3E718B500204FF4A064C6
:102C300000903120FFF7E3FF0099491C0091A14269
:102C400001D00028F5D03120FFF7D9FF002800D0AF
:102C5000012018BD7F4A116821F0F80141EAC00047
:102C6000106070477E49086070477A4B5A68084385
:102C700022F474121043586070477949086670470F
:102C8000744B10B5DA6A774C084322401043D8627F
:102C900010BD704A516821F0030101435160704733
:102CA0006C48406800F00C0070476A4A516821F097
:102CB000F001014351607047664A516821F4E061B8
:102CC000014351607047634A516821F4605141EA01
:102CD000C000506070475F4A0029517A01D001431B
:102CE00000E08143517270475D49C1F8D8007047D8
:102CF000584A516821F44041014351607047554999
:102D0000002281F8202081F82020012802D0042808
:102D100002D1052081F820007047534908607047B0
:102D20004C490A6A02430A6270474F4944390860B5
:102D3000704730B5474A51684C4B11F00C0104D034
:102D40004B4C042903D0082903D0036017E004602A
:102D500015E05168536801F470114FF0020513F447
:102D6000803F05EB914107D0D36A03F00F035B1C52
:102D7000B4FBF3F34B43E8E73E4B59430160516822
:102D80000F2303EA11113C4B5C5C0168E140416098
:102D90005468072505EA14241C5D21FA04F48460B4
:102DA000546805EAD4241B5DD940C16052680323EE
:102DB00003EA9232304B1B1F9A5CB1FBF2F10161C6
:102DC00030BD244A0029516901D0014300E081430C
:102DD000516170471F4A0029916901D0014300E009
:102DE0008143916170471B4A0029D16901D0014399
:102DF00000E08143D1617047164A0029D16801D0B3
:102E0000014300E08143D1607047124A00291169F3
:102E100001D0014300E081431161704712494039FC
:102E2000086070470E49C86470470A49C871704706
:102E30000848416A41F0807141627047054A014685
:102E4000002092680A4200D0012070470149887230
:102E500070470000001002400000FFF8FFFFF6FE80
:102E600000004242F0FFFEFF8004424200127A005E
:102E7000001BB70000093D00B4000020F94910B55F
:102E8000884202D10121C41486E0B0F1804F09D0FC
:102E9000F54988420DD101210220FFF7B6FF00213C
:102EA000022064E001210846FFF7AFFF0021012066
:102EB0005DE0EE49884206D101210420FFF7A5FF1D
:102EC0000021042053E0EA49884206D1012108206C
:102ED000FFF79BFF0021082049E0E649884206D120
:102EE00001211020FFF791FF002110203FE0E2496F
:102EF000884206D101212020FFF787FF00212020F2
:102F000035E0DE49884202D10121441444E0DC4925
:102F1000884202D10121CC043EE0DA49884202D144
:102F200001210C0538E0D849884202D101214C0525
:102F300032E0D649884206D101214020FFF765FFE3
:102F40000021402013E0D249884206D1012180208F
:102F5000FFF75BFF0021802009E0CE4988420AD1BB
:102F6000841501212046FFF750FF00212046BDE8CF
:102F70001040FFF74ABFC849884202D101210C0422
:102F80000AE0C649884202D101214C0404E0C44948
:102F900088420AD101218C042046FFF72DFF2046EC
:102FA000BDE810400021FFF727BF10BD30B50288F3
:102FB000AC4CB24DA0420DD0A8420BD0B0F1804F26
:102FC00008D0A94B984205D0A84B984202D0A84BF4
:102FD000984203D122F070034A881A43A54B9842C5
:102FE00006D0A54B984203D022F44073CA881A43F6
:102FF00002808A8882850A880285A0420AD0A84277
:1030000008D0A54A904205D0A44A904202D0A44AD2
:10301000904201D1097A01860121818230BD30B50B
:10302000028C22F001020284028C8388048B22F03D
:10303000020224F073050C882C430D8915434A883D
:103040002A43884DA8420BD08C4DA84208D0924DFF
:10305000A84205D0914DA84202D0914DA8420DD171
:1030600022F008054A8923F440732A4322F004051C
:103070008A882A438D891D43CB892B43838004830F
:10308000C9888186028430BD70B5028C22F010029E
:103090000284028C8388048B0D8824F4E6464FF664
:1030A000FF7404EA052535430E8922F0200204EA64
:1030B000061616434A8804EA02123243694EB042A9
:1030C00002D06E4EB04215D122F080064A8923F418
:1030D000406304EA0212324322F040068A8804EA7E
:1030E000021232438E8904EA86061E43CB8904EA23
:1030F0008303334383800583C9880187028470BDBD
:1031000070B5028C22F480720284028C8388848BD6
:103110000D8824F0730425430E894FF6FF7422F4C2
:10312000007204EA062616434A8804EA0222324361
:103130004C4EB04202D0514EB04215D122F400663E
:103140004A8923F4405304EA0222324322F480667F
:103150008A8804EA022232438E8904EA06161E4354
:10316000CB8904EA0313334383808583C98881872D
:10317000028470BD70B5028C22F480520284058CEA
:103180008288838B0C8823F4E6464FF6FF7303EAAC
:103190000424344325F400560D8903EA05353543EC
:1031A0004E8803EA06362E432E4DA84202D0334DF8
:1031B000A84205D122F480458A8903EA82122A4373
:1031C00082808483C988A0F84010068470BD828BF9
:1031D00022F440628283828B4FF6FF7303EA01215F
:1031E0000A4382837047828B22F00C028283828B97
:1031F0000A4382837047028B22F440620283028B6F
:103200004FF6FF7303EA01210A4302837047F0B5CA
:10321000048C24F010040484078B048C4FF6FF7593
:1032200027F4734705EA03333B4305EA02221A43B6
:103230000C4B05EA011698420ED0104B98420BD069
:10324000B0F1804F08D0084B984205D0074B984208
:1032500002D0074B984225D124F02001314341F0A0
:10326000100124E0002C0140000400400008004050
:10327000000C0040001000400014004000340140E9
:10328000004C014000500140005401400018004033
:10329000001C00400020004000400140004401406C
:1032A0000048014024F0A0030B4343F010010283C7
:1032B0000184F0BD028B22F00C020283028B0A43D0
:1032C0000283704770B5048C24F001040484058BDC
:1032D000048C4FF6FF7606EA0313134325F0F3053B
:1032E000F84A2B4390420ED0F74A90420BD0B0F1EF
:1032F000804F08D0F54A904205D0F54A904202D05E
:10330000F44A904202D124F0020201E024F00A02C1
:103310000A4342F001010383018470BD2DE9F84F97
:103320000D4604460888E74FDFF89CC3DFF89C830E
:10333000DFF89C934988AA882B894FF0804A48B3CC
:1033400004282FD04FF6FF760828934632D0208CE1
:103350009E4620F480502084A38B208C06EA013204
:10336000009223F4734306EA0B221A4306EA0E3353
:103370001343BC420AD0644508D0544506D04445A6
:1033800004D04C4502D0D34A944242D120F400509C
:10339000009940E02046FFF795FFE9882046BDE808
:1033A000F84F87E72046FFF732FFE9882046BDE85F
:1033B000F84F20E7208C20F480702084B4F81CE0C3
:1033C000208C06EA031306EA01222EF0F30E43EAEC
:1033D0000B0343EA0E030092BC420AD0644508D0B6
:1033E000544506D0444504D04C4502D0B94A9442D5
:1033F00003D120F40070009901E020F4206008431C
:1034000040F48070A3832084E9882046BDE8F84F0B
:10341000E9E620F40240084340F48050A38320846E
:10342000E9882046BDE8F84FD1E62DE9F0410C4689
:10343000002649880746012501B90226A288012AEB
:1034400000D10225208823890028384610D0FFF7B4
:10345000DEFEE1883846FFF7CEFE23892A46314654
:103460003846FFF72FFFE1883846BDE8F04121E7F5
:10347000FFF728FFE1883846FFF71CFF23892A461B
:1034800031463846FFF7C3FEE1883846BDE8F041D3
:10349000B1E610B50A884B88CC881A438B88234341
:1034A0001A430B891A434B8989891A430A43A0F8A6
:1034B000442010BD4FF6FF71818000210180C18042
:1034C0004180017270470021018041808180C1806C
:1034D000018141818181C18170470021018041804A
:1034E00001228280C18001817047002101804180DA
:1034F0008180C180018141818181704700290188DB
:1035000002D041F0010101E021F00101018070478A
:10351000002930F8441F02D041F4004101E0C1F31A
:103520000E0101807047002A828901D00A4300E021
:103530008A4382817047818270471143A0F8481006
:103540007047002A828901D00A4300E08A438281C1
:103550007047018921F0070101817047028922F03B
:1035600070020A430281704700B50346FFF7F6FF79
:10357000188940F00700188100BD70B516460D4649
:10358000602904464FF0010231460AD0FFF79AFE47
:1035900029462046FFF7E2FF208940F007002081FE
:1035A00070BDFFF734FEF3E730B504894FF6FF75C1
:1035B00005EA03231343E4B20B432343038130BDE5
:1035C00010B50446FFF7F0FF208940F07700208116
:1035D00010BD10B50446FFF7E7FF208940F4804096
:1035E000208110BD018582827047028822F070021E
:1035F0000A430280704770B50589048B068C25F05C
:1036000007050D434FF6FC410C4040F201110C43FD
:103610004FF6FF7101EA031126F0220611433143F0
:1036200005810483018470BD028B22F070020A437D
:1036300002837047028B4FF6FF7322F4E04203EAE5
:103640000121114301837047828B22F070020A43EB
:1036500082837047828B4FF6FF7322F4E04203EAC5
:1036600001211143818370470029018802D041F074
:10367000800101E021F080010180704700298188EC
:1036800002D041F0040101E021F004018180704783
:103690000029818802D041F0080101E021F00801F1
:1036A000818070470029818802D041F0010101E04A
:1036B00021F0010181807047028B22F008020A4349
:1036C00002837047002C0140003401400004004098
:1036D00000080040000C0040028B4FF6FF7322F4FC
:1036E000006203EA012111430183EAE7828B22F0A1
:1036F00008020A438283E4E7828B4FF6FF7322F4C9
:10370000006203EA012111438183DAE7028B22F090
:1037100004020A430283D4E7028B4FF6FF7322F4BC
:10372000806203EA012111430183CAE7828B22F000
:1037300004020A438283C4E7828B4FF6FF7322F4AC
:10374000806203EA012111438183BAE7028B22F0F0
:1037500080020A430283B4E7028B4FF6FF73C2F381
:103760000E0203EA012111430183AAE7828B22F0B2
:1037700080020A438283A4E7828B4FF6FF73C2F371
:103780000E0203EA0121114381839AE7028C22F0A1
:1037900002020A43028494E7028C22F008020A43E0
:1037A00002848EE7028C4FF6FF7322F0200203EAB8
:1037B00001111143018484E7028C4FF6FF7322F05C
:1037C000800203EA0111114301847AE7028C4FF66B
:1037D000FF7322F4007203EA01211143018470E7B0
:1037E000028C4FF6FF7322F4006203EA01211143B9
:1037F000018466E7028C4FF6FF7322F4005203EA5D
:103800000131114301845CE710B50123048C8B4026
:103810009C430484038C8A401343038410BD10B579
:103820000423048C8B409C430484038C8A40134300
:10383000038410BD30B50124058C00F118038C40C1
:10384000A543058489B108290FD0091FC1F34E0093
:103850001844016821F4E041016001684FF6FF73EC
:1038600003EA02221143016030BD03EB51000168FD
:1038700021F0700101600168F4E70029018802D09D
:1038800041F0020101E021F00201018019E7002965
:10389000018802D041F0040101E021F0040101801F
:1038A0000FE70029818802D041F0800101E021F07A
:1038B0008001818005E7028822F0080202800288E8
:1038C0000A430280FDE6828822F0700282808288AC
:1038D0000A438280F5E6028922F00702028102890A
:1038E0000A430281EDE6028922F080020281028908
:1038F0000A430281E5E68184E3E68185E1E681868B
:10390000DFE60187DDE68187DBE6A0F84010D8E638
:10391000028822F44072028002880A430280D0E6C4
:10392000808ECEE6008FCCE6808FCAE6B0F84000ED
:10393000C7E6808CC5E6008DC3E602460020128AE9
:103940000A4200D00120BCE6C9430182B9E6024622
:103950000020138A92890B4202EA010202D0002A57
:1039600000D00120ADE6C9430182AAE6C44910B5E2
:1039700088420AD101218C032046FFF73DFA2046F8
:10398000BDE810400021FFF737BABE49884202D196
:1039900001214C0410E0BC49884202D101218C0471
:1039A0000AE0BA49884202D10121CC0404E0B849B6
:1039B00088420AD101210C052046FFF726FA20464D
:1039C000BDE810400021FFF720BA10BD30B5044615
:1039D000008A85B00D464CF6FF710840E988014326
:1039E0002182A0894EF6F3110840A9882A89114343
:1039F0006A8902431143A181A08A4FF6FF41084022
:103A0000A9890143A1826846FFF793F99C48844243
:103A100001D1039800E00298A189090400EBC001DC
:103A200001EB0010296801D5490000E08900B0FBD6
:103A3000F1F06422B0FBF2F109010B096FF01805F7
:103A40006B4300EB8300A3891D044FF0320306D5BE
:103A500003EBC000B0FBF2F000F0070005E003EB61
:103A60000010B0FBF2F000F00F000843208105B019
:103A700030BD4FF41651016000218180C180018169
:103A80000C2242818181704710B5028A4FF2FF03F8
:103A90001A400B884C8823438C88C9880C432343E5
:103AA0001343038210BD0021018041808180C180C9
:103AB00070470029818902D041F4005101E021F4CE
:103AC00000518181704710B5C1F3421301F01F040A
:103AD0000121A140012B07D0022B07D01430002A6E
:103AE000026805D00A4304E00C30F8E71030F6E72E
:103AF0008A43026010BD002A828A01D00A4300E096
:103B00008A4382827047028A22F00F020282028A6E
:103B10000A4302827047828922F40062828182898C
:103B20000A43828170470029818902D041F0020155
:103B300001E021F0020181817047028A22F0200217
:103B40000282028A0A43028270470029018A02D057
:103B500041F4804101E021F4804101827047C1F3CA
:103B60000801818070478088C0F308007047818910
:103B700041F0010181817047028BD2B20283028B36
:103B800042EA012101837047028B02F47F420283E3
:103B9000028B0A43028370470029818A02D041F0D8
:103BA000200101E021F02001818270470029818AF3
:103BB00002D041F0100101E021F010018182704734
:103BC0000029818A02D041F0080101E021F00801BA
:103BD000818270470029818902D041F4004101E0CF
:103BE000C1F30E01818170470029818A02D041F41E
:103BF000006101E021F4006181827047828A22F035
:103C000004028282828A0A43828270470029818A62
:103C100002D041F0020101E021F0020181827047EF
:103C20000246002012880A4200D001207047C94392
:103C30000180704770B501F01F0501260024C1F313
:103C4000421306FA05F2012B0FD0022B0FD0838A04
:103C50004FEA11210088134206FA01F600EA060035
:103C600001D000B10124204670BD8389F0E7038AAA
:103C7000EEE70A0A01219140C94301807047000024
:103C8000003801400044004000480040004C004023
:103C9000005000400948804709480047FEE7FEE71A
:103CA000FEE7FEE7FEE7FEE7FEE7FEE7FEE7FEE7EC
:103CB00004480549054A064B70470000D91300081F
:103CC00021010008680C002068120020680E002006
:103CD000680E0020032A40F2308010F0030C00F040
:103CE000158011F8013BBCF1020F624498BF11F836
:103CF00001CB00F8013B38BF11F8013BA2F10402EF
:103D000098BF00F801CB38BF00F8013B11F0030366
:103D100000F02580083AC0F0088051F8043B083ACA
:103D200051F804CBA0E80810F5E7121D5CBF51F86C
:103D3000043B40F8043BAFF30080D20724BF11F8E6
:103D4000013B11F801CB48BF11F8012B24BF00F84B
:103D5000013B00F801CB48BF00F8012B704710B5BC
:103D6000203AC0F00B80B1E81850203AA0E8185073
:103D7000B1E81850A0E81850BFF4F5AF5FEA027C34
:103D800024BFB1E81850A0E8185044BF18C918C0A3
:103D9000BDE810405FEA827C24BF51F8043B40F844
:103DA000043B08BF7047D20728BF31F8023B48BF29
:103DB00011F8012B28BF20F8023B48BF00F8012B67
:103DC0007047704770477047754600F029F8AE4657
:103DD00005006946534620F00700854618B020B517
:103DE000FFF766FFBDE820404FF000064FF00007E8
:103DF0004FF000084FF0000B21F00701AC46ACE893
:103E0000C009ACE8C009ACE8C009ACE8C0098D46FF
:103E100070470446AFF300802046FCF7C8F9000065
:103E200000487047040C002001491820ABBEFEE793
:103E30002600020070470000064B10B50021064A1C
:103E40001C6801E0491C89B2B4FBF2F343438B4286
:103E5000F8D810BD8800002040420F0021F0004239
:103E6000A2F16052B2F5801F01F0004328BFD2F1E9
:103E70007F6C0BD95FEA001C43EAC20242EB507030
:103E800018BF704728BF20F001007047B2F5801FAF
:103E9000BCBF184670474FEA410C1CF5001F02D208
:103EA000084600F07EBC70B500F0D0FA0000008932
:103EB000FFF7F6BF4FF00040A0F58000704700000C
:103EC00010B591EA030F48BF83F0004300F1268349
:103ED000841A71EB030C05D2121943EB0C03001B7F
:103EE00061EB0C01DFF824E14FEA1154A4EB135C01
:103EF0001EEA430F18BF9EEA445F73D023EA0E0305
:103F0000DCF1200E21EA045143F4801332D322FA6B
:103F10000CFE10EB0E0023FA0CFE41EB0E01CCF16F
:103F2000200E03FA0EFE10EB0E0051F10001B1F568
:103F3000801FCCF1200E32D201EB045112FA0EF2A6
:103F4000BDE8104058BF7047401C38BF5FEA4202CE
:103F500018BF7047002814BF20F0010041F1000194
:103F60004FEA410313F5001F38BF7047A1F1C0416C
:103F700000F0BABA012A43EB0302ACF1200CDCF1E9
:103F80001F0E32BF4FF0000E23FA0CF310EB0300AC
:103F900041EB0451B4EB115FD0D0A1EB045101F51A
:103FA000801149085FEA300001EB04510ED350F153
:103FB000000038BF12FA0EFE08D1BDE81040C9E774
:103FC000401C38BF5FEA4202CAD1C3E7BDE81040D7
:103FD0004FEA410313F5001F38BF7047A1F1C041FC
:103FE00000F082BA9EEA445F08D011EA5E0FBDE895
:103FF000104004BF01F0004100207047BDE81040B0
:1040000070B500F023FA00BF64FBBE3E0000E0FF85
:1040100002494FF0000000F0C9BB00BF0000F87F6C
:104020002DE9C04130B4DFF8A0C23CEA111418BF3A
:104030003CEA131400F0EC8081EA03051CEA111439
:1040400044EAD57418BF1CEA131500F0C780A4EB2E
:1040500005044FF0004545EAC12145EAC32341EA82
:10406000505143EA525304F17F74994204F50034ED
:104070004FEAC0204FEAC22208BF904200F09C8065
:104080004FEA13650FF24016765D4FEA134506FBC3
:1040900005F7C7F1807706FB07F74FEAD737A7FB8D
:1040A00003687642C8F58038A7FB06CE38BFA8F172
:1040B000010807FB08E64FF0000EA6FB028CE6FBAA
:1040C00003CEDCF1000CCEF1004E38BFAEF1010E94
:1040D000A6FB0C584FF000074FF00005E6FB0E87DB
:1040E000A1FB08C6A0FB07CE16EB0E0645F10005A6
:1040F000E1FB076515F1E04E7EBFA4F580345FEA71
:1041000046066D4116F1800745F100054FEA172775
:104110004FEA066647EA0567A6F1DE46B6F1805F1C
:104120004FEA15251FD9384624F0010C05EBC47160
:10413000BCF1FE6F01EB0C1102D8F0BCBDE80081B0
:1041400024425CBF01F5801E9EEAC47F02D4F0BC0D
:10415000BDE80081244238D4F0BCA1F1C041BDE8E3
:10416000004100F0C1B94FEAD22242EA43524FEA7D
:10417000D323A7FB02864FEAD02040EA415007FB39
:1041800003661EEA0E0F4FEAD12105FB026658BFF7
:10419000A6EB0056B6EB00564FEA520E4EEAC37E2F
:1041A00018EB0E0E56EB530EBDD518EB02085E4110
:1041B0007F1C55F10005B6E74FF480154FF000075E
:1041C0004FF000064FF00008ADE7F0BC4FF00000E4
:1041D00001F1C04101F00041BDE8008111EA0C1F6E
:1041E0000CEA131500D00CE013EA0C1F00F0258038
:1041F0004FF00000F0BC81EA030101F00041BDE88E
:104200000081F0BCBDE8004181EA030100F06CB917
:10421000F0BCBDE8004170B500F018F9097EFC3E25
:1042200000F007B881EA03014FF0000001F00041FF
:10423000704781EA030100F057B9F0BCBDE80041C6
:104240004FF0000021497047FFFDFBF9F7F5F4F24C
:10425000F0EEEDEBE9E8E6E4E3E1E0DEDDDBDAD821
:10426000D7D5D4D3D1D0CFCDCCCBCAC8C7C6C5C47F
:10427000C2C1C0BFBEBDBCBBBAB9B8B7B6B5B4B396
:10428000B2B1B0AFAEADACABAAA9A8A8A7A6A5A481
:10429000A3A3A2A1A09F9F9E9D9C9C9B9A99999845
:1042A0009797969595949393929191908F8F8E8EE8
:1042B0008D8C8C8B8B8A8989888887878685858475
:1042C00084838382828181800000FF070000F87F61
:1042D000B0FA80F310FA03F10AD0C3F11D0303F51D
:1042E00080634FEA41504FEA035202EBD1217047FD
:1042F0004FF0000070470000DFF848C170B51CEABD
:10430000111E1EBF1CEA13159EEA0C0F95EA0C0F36
:1043100000F06F8081EA030423EA4C134EEAD47E56
:1043200021EA4C1141F4801143F48013AE44A1FB07
:10433000024CA0FB0365AEF17F7E361955EB0C05F0
:10434000A1FB034C4CF10003A0FB021C16EB0C0676
:10435000654153F10003094218BF46F0010613F40A
:10436000007F0BD14FEA03314FEA0530340341EAB5
:10437000155140EA16506FF003020AE04FEAC321DC
:104380004FEAC520F40241EA555140EA56506FF019
:10439000020202EB2E4201EB025585EACE710AD0F1
:1043A0005FEA440C18BF24F0004450F1000041F1D2
:1043B000000120EAD47040F2FE7C624500D270BD5C
:1043C000A84214BF4FF080444FF04044002E08BF75
:1043D0000024BEF1806FA8BFA1F1C041BDE87040CC
:1043E00080F282804FF0000001F1C04101F00041F5
:1043F00070479EEA0C0F0CEA131518BF95EA0C0FD4
:1044000006D04FF0000081EA030E0EF0004170BDAF
:1044100000F01CF88900013E00F007B800F009B870
:104420004FEA430C5FEA5C5C08D081EA030100F0CC
:104430005BB84FEA410C5FEA5C5CF6D14FF00000DC
:10444000014970470000FF070000F87F0EF1020EDF
:104450002EF0030E5EF8046B364205D4012A43EBBE
:10446000030515F5001F12D8012841EB010C1CF5BE
:10447000001F0CD80ED14FEAD17C15F5001F0CEBB4
:104480004C0C0CF1020C08BF4CEBD37C04E04FF059
:10449000080C01E04FEAD37C0CEB4C0526FA05F63C
:1044A00006F00706B6F1040C06D20EEB860CBDE84A
:1044B00070404CF0010C6047DFE80CF0090B020281
:1044C0004FF000414FF00000A1F5002170BD1946EA
:1044D0001046012851EB010418BFD4F5001484BF25
:1044E000002001F0004170BD0808A0F500114FEA5E
:1044F0003101704791EA030F10B581F000413FF59B
:10450000E7AC83F0004300F009B8000010B591EA71
:10451000030F48BF83F000433FF5DAAC841A71EB18
:10452000030C07D212198CF0004C43EB0C03001B58
:1045300061EB0C01DFF8A4E14FEA1154A4EB135C2A
:104540001EEA430F18BF9EEA445F00F0B08023EAE2
:104550006E03524221EA0451C3EB6E0338BF5B1E67
:10456000DCF1200E25D322FA0CFE10EB0E0043FAEC
:104570000CFE41EB0E01CCF1200E03FA0EFE10EB07
:104580000E0051F10001CCF1200E29D412FA0EF2E6
:1045900001EB0451BDE8104058BF7047401C1CBFE0
:1045A000B2F1004F704700280CBF491C20F00100F9
:1045B000704712EB020E43EB030218BF4FF0010EDF
:1045C0004EEA4202ACF1200CDCF11E0E54D943FA43
:1045D0000CFE10EB0E0051F1FF31CCF11E0ED5D5C3
:1045E0000EF1010E12FA0EFE404141EB010101EB0A
:1045F000445C5FEA5C5C10D910EBDE7001EB0451A7
:1046000038BFBEF1004FBDE8104018BF704700280A
:104610000CBF491C20F00100704730D24FEAD42C67
:1046200011F5001124F400641BD0B1FA81F20B3AA9
:10463000A41AA41ED2F12003914030FA03F31943C7
:10464000904001EBCC71002C01EB0451BDE810400F
:10465000A8BF704701F1C0414FF0000001F00041D8
:104660007047B0FA80F310FA03F100D110BDE41ADC
:10467000173C4805C90AE4E701EB045110BD491095
:1046800001EB0451BDE810404FEA300002E04FF06A
:10469000000170474A0008BF0042F8D0B2F5001F81
:1046A00028BF704701F000414FF0000070479EEABC
:1046B000445F07D011EA5E0FBDE8104004BF00213F
:1046C00000207047BDE8104070B5FFF7BFFE00BF87
:1046D00040DFF63E83F00041104670470000E0FFE7
:1046E00041000B0ED3F19E0208D950F400034FEAAB
:1046F000032323FA02F048BF4042704710B500F090
:104700000AF800BF49922480002070476FF00042F1
:1047100082EA200070470EF1020E2EF0030E5EF8C2
:10472000044B244204D44FEA4102B2F17F4F11D826
:104730004FEA4003B3F17F4F0CD80ED14FEAD07C43
:10474000B2F17F4F0CEB4C0C0CF1020C08BF4CEBA0
:10475000D17C04E04FF0080C01E04FEAD17C0CEB77
:104760004C0324FA03F404F00704B4F1040C06D259
:104770000EEB840CBDE810404CF0010C6047DFE804
:104780000CF0070802024FF00040A0F5800010BDB9
:104790000846420018BFD2F1807288BF00F0004086
:1047A00010BDFF2141EAD050C00570470CF00F0347
:1047B000092B08BF082000F059800A2B0BD0082BCA
:1047C00018BF704708BF1CF0400F0AD04FF0000020
:1047D0004FF0000170471CF0400F18BF4FF0004031
:1047E00070471CF0100F08D020F0704300F07F429B
:1047F00042EAD3014FEA4370704700F0604021F075
:104800007F4242EA000201F07F4040EA7270704746
:104810004FF0FF0C4CF4E06C1CEA11531CBF9CEAF7
:10482000030C9445C2BFDA4201EB02517047002BE2
:104830000DD0BCF1000F0FD0002A01F00041A4BF41
:1048400041F0E04141F07F614FF00000704701F01E
:1048500000414FF00000704750EA01334FF09B0CCD
:1048600018BF4CF0806C7FF4D3AB70471CF4801FF2
:1048700011D01CF4E02F03D06FEACC31490070470F
:104880004FF04050EFF3008222F0704242EA000203
:1048900082F3008870474FF000007047E8038403FC
:1048A0002003BC025802F40190012C01C8006400EE
:1048B0000000F6FF9CFF38FFD4FE70FE0CFEA8FD42
:1048C00044FDE0FC7CFC18FC0EFCB4FB50FBECFA55
:1048D00088FA24FA40065CF9F8F894F830F8CAE04F
:1048E000C0E0CEDCDA003C00000000000600002042
:1048F00001000000000000007B050008DA00100144
:104900000000000068000020060000000000000019
:1049100000000000DA000100000000001E0000207E
:10492000010000000000000000000000DA000200AA
:10493000000000001F000020010000000000000037
:1049400000000000DA00030000000000000000206A
:10495000010000000000000031050008DA0004003A
:104960000000000020000020010000000000000006
:1049700000000000DA0034000000000022000020E7
:10498000020000000000000000000000DA00360015
:1049900000000000240000200200000000000000D1
:1049A00000000000DA0038000000000026000020AF
:1049B000020000000000000000000000DA003A00E1
:1049C000000000002800002002000000000000009D
:1049D00000000000DA002000000000000C000020B1
:1049E0000200000000000000C9050008DA002200F3
:1049F000000000002A00002002000000000000006B
:104A000000000000DA002400000000002C0000205C
:104A1000020000000000000000000000DA00260094
:104A2000000000002E000020020000000000000036
:104A300000000000DA002800000000003000002024
:104A4000020000000000000000000000DA002E005C
:104A50000000000032000020010000000000000003
:104A600000000000DA0075000000000033000020A4
:104A7000010000000000000000000000DA007600E5
:104A800000000000340000200100000000000000D1
:104A900000000000DA007700000000003500002070
:104AA000010000000000000000000000DA007800B3
:104AB000000000003800002004000000000000009A
:104AC00000000000DA00400100000000100000209B
:104AD0000400000000000000E5050008DA004400C2
:104AE000000000003C000020040000000000000066
:104AF00000000000DA004800000000004000002034
:104B0000020000000000000000000000DA004A007F
:104B1000000000000E000020020000000000000065
:104B200000000000DA004C000000000044000020FB
:104B3000040000000000000000000000DA00500047
:104B400000000000480000200400000000000000F9
:104B500000000000DA0054000000000014000020F3
:104B6000040000000000000000000000DA00400027
:104B700000000000180000200600000000000000F7
:104B80007D060008DA00CA00000000000A000020CC
:104B9000020000000000000000000000DA008000B9
:104BA000000000004C000020020000000000000097
:104BB00000000000DA008200000000004E0000202B
:104BC000020000000000000000000000DA00840085
:104BD0000000000050000020020000000000000063
:104BE00000000000DA0086000000000052000020F3
:104BF000020000000000000000000000DA00A20037
:104C0000000000005400002001000000000000002F
:104C100000000000DA00A3000000000055000020A2
:104C2000010000000000000000000000DA00A40005
:104C300000000000560000200100000000000000FD
:104C400000000000DA00A50000000000570000206E
:104C5000010000000000000000000000DA00D300A6
:104C600000000000570000200100000000000000CC
:104C700000000000DA00C000000000005800002022
:104C8000010000000000000000000000DA00C10088
:104C900000000000010000200100000000000000F2
:104CA00000000000DA00C200000000000200002046
:104CB000010000000000000009060008DA00D20030
:104CC00000000000020000200100000000000000C1
:104CD00000000000DA006001000000000400002075
:104CE000010000000000000039040008DA00620141
:104CF000000000005E000020020000000000000034
:104D00004F040008DA006401000000006000002089
:104D1000040000000000000087040008DA00E20040
:104D2000000000005A000020020000000000000007
:104D300000000000DA00FF01000000005C0000201D
:104D4000010000000000000000000000DA00E400A4
:104D500000000000EC0000200A000000000000003D
:104D600000000000DA0000010000000064000020E4
:104D7000040000000000000000000000F00000003F
:104D80000000000000000000000000000000000023
:104D9000A9090008FD00000000000000000000005C
:104DA0000000000000000000DB0A0008FE00000018
:104DB00000000000000000000000000000000000F3
:104DC000190B0008FB0000000000000000000000BC
:104DD0000000000000000000C10B000800002110CE
:104DE000422063308440A550C660E7700881299155
:104DF0004AA16BB18CC1ADD1CEE1EFF10000100042
:104E000000004000000020000000008001000800B9
:104E10000100100000000040010008000100100027
:104E20000100000202000020020000400100000119
:104E300002000020020000400008014001000000C4
:104E40000000000010000000000801400200000007
:104E50000000000000000000000801400400000005
:104E600000000000100000000008014008000000E1
:104E700000000000100000000008014010000000C9
:104E800000000000100000000008014020000000A9
:104E90000000000010000000000801404000000079
:104EA0000000000010000000000801408000000029
:104EB0000000000048000000000801400001000060
:104EC0000000000010000000000801400002000087
:104ED000000000001800000000080140000400006D
:104EE000000000000400000000080140000800006D
:104EF0000000000010000000000801400010000049
:104F00000000000010000000000801400020000028
:104F100000000000100000000008014000400000F8
:104F200000000000100000000008014000800000A8
:104F30000000000010000000000C01400100000013
:104F40000000000010000000000C01400200000002
:104F50000000000010000000000C014004000000F0
:104F60000000000010000000000C014008000000DC
:104F70000000000010000000000C014010000000C4
:104F80000000000010000000000C014020000000A4
:104F90000000000010000000000C01404000000074
:104FA000000000001C000000000C01408000000018
:104FB000000000001C000000000C01400001000087
:104FC0000000000010000000000C01400002000082
:104FD0000000000010000000000C01400004000070
:104FE0000000000010000000000C0140000800005C
:104FF0000000000010000000000C01400010000044
:105000000000000010000000000C01400020000023
:105010000000000010000000000C014000400000F3
:105020000000000010000000000C014000800000A3
:1050300000000000100000000010014000200000EF
:1050400000000000100000000010014000400000BF
:10505000000000001000000000100140008000006F
:105060000000000048000000FC5F00080000002075
:10507000C40000005C010008C0600008C4000020FB
:10508000A4110000780100080000000000000000EA
:105090000000000000000000000000000000000010
:1050A0000000000000000000000000000000000000
:1050B00000000000000000000000000000000000F0
:1050C00000000000000000000000000000000000E0
:105FF00011000000620000005000000000000000DE
:106000000000000000000000000000000000000090
:106010000000000000000000000000000000000080
:106020000000000000000000000000000000000070
:106030000000000000000000000000000000000060
:106040000000000000000000000000000000000050
:106050000000000000000000000000000000000040
:106060000000000000000000000000000000000030
:106070000000000000000000000000000000000020
:106080000000000000127A00000000000000000084
:1060900001020304060708090000000000000000D8
:1060A00000000000000000000000000002040608DC
:1060B00000000000010203040102030406070809AE
:1060C00000000000000000000000000000000000D0
:1060D00000000000000000000000000000000000C0
:1060E00000000000000000000000000000000000B0
:1060F00000000000000000000000000000000000A0
:10700000FD4A116801F03801014311607047FA49E7
:107010000A6822F008020A600A6802430A607047A0
:10702000F5490A6822F010020A600A6802430A6001
:107030007047F148F1494160F14941607047EE48BD
:10704000EE494160EE4941607047EB48016941F00B
:10705000800101617047E848016941F080010161E8
:107060007047E5490420CA68D20701D00120704763
:10707000CA68520701D502207047C968C906FBD506
:107080000320704700B50346FFF7EBFF02E0FFF770
:10709000E8FF5B1E012803D0002B00D1052000BDB6
:1070A000002BF4D1FAE770B505464FF43026304690
:1070B000FFF7E8FF042811D1CF4C206940F002000F
:1070C00020616561206940F0400020613046FFF793
:1070D000D9FF216941F6FD721140216170BD30B5C3
:1070E0004FF430252846FFF7CDFF042810D1C24CBD
:1070F000206940F004002061206940F040002061D8
:107100002846FFF7BFFF216941F6FB72114021615C
:1071100030BD00B50346FFF7A4FF02E0FFF7A1FF73
:107120005B1E012803D0002B00D1052000BD002BE1
:10713000F4D1FAE730B54FF430252846FFF7E9FFE0
:10714000042810D1AC4C206940F004002061206973
:1071500040F0400020612846FFF7DBFF216941F63F
:10716000FB721140216130BDA3490020C969890724
:1071700000D50120704770B5A525FFF7F5FF00B1D8
:1071800000254FF430263046FFF77CFF042827D136
:10719000994C9A48A0609A48A060206940F020006D
:1071A0002061206940F0400020613046FFF76AFF0F
:1071B00041F6EF7604280ED1206941F6DF710840D0
:1071C0002061206940F0100020618E4805804FF456
:1071D0000050FFF757FF052802D021693140216197
:1071E00070BDF8B5064600204FF4005C00900D46D7
:1071F0006046FFF747FF042816D17F4C206940F016
:107200000100206135806046FFF73CFF41F6FE77C4
:10721000042806D1B61C280C009630806046FFF783
:1072200031FF216939402161F8BDF0B506464FF4C0
:1072300000570D463846FFF725FF04280CD16E4C49
:10724000206940F00100206135803846FFF71AFFC1
:107250002169BA1E11402161F0BDF0B506464FF418
:1072600000570D463846FFF70DFF042813D1624C36
:107270006248A0606248A060206940F01000206170
:1072800035803846FFF7FEFE052804D0216941F617
:10729000EF7211402161F0BD2DE9F041C043C7B24A
:1072A000C0F30726C0F30745040E4FF400584046CC
:1072B000FFF7E8FE04283CD1DFF83CC14F49CCF889
:1072C00008104F49CCF80810DCF8101041F01001FC
:1072D000CCF81010FF2F07D04A48083007804046EE
:1072E000FFF7D0FE04281BD1FF2E07D045480A30F7
:1072F00006804046FFF7C6FE042811D1FF2D07D0B7
:1073000040480C3005804046FFF7BCFE042807D1FA
:10731000FF2C07D03B480E3004804046FFF7B2FEFA
:10732000052806D0DCF8101041F6EF721140CCF8B9
:107330001010BDE8F08170B505464FF43026304698
:10734000FFF7A0FE042818D12B4C2C48A0602C4835
:10735000A060206940F020002061206940F04000DA
:1073600020613046FFF78EFE41F6DF71042805D01C
:10737000052802D022690A40226170BD20690840B8
:107380002061206940F0100020611E480DB10021ED
:1073900000E0A52101803046FFF774FE0528ECD0FF
:1073A000216941F6EF721140216170BDF0B5124CB8
:1073B0000746124816460D46A0601148A0604FF4DB
:1073C000005C6046FFF75EFE042814D1206940F09F
:1073D0001000206135430B493D43891C45F0F800FE
:1073E00008806046FFF74EFE052804D0216941F66B
:1073F000EF7211402161F0BD00200240230167457A
:10740000AB89EFCD00F8FF1F1C48C06980087047AA
:107410001A48006A7047194900200968890600D592
:1074200001207047154A0029116901D0014300E08D
:1074300081431161704701460020104A012903D0A1
:10744000D2680A4203D17047D169C907FBD0012035
:1074500070470A49C860704708490420CA68D207C3
:1074600001D001207047CA68520701D50220704739
:10747000C968C906FBD50320704700000020024000
:107480000D49086070470C49486070470A49886098
:10749000704709494AF6AA200860704706494CF629
:1074A000CC4008607047044A01460020D2680A4276
:1074B00000D00120704700000030004072B6FFF796
:1074C000B8FD3420FFF7C5FF00244FF0006505EB41
:1074D0008420FFF7E8FD04281AD1FFF7DAFF641CC7
:1074E0001C2CF4D30B4C0C4E28462168FFF779FE78
:1074F00004280DD120682968884209D1FFF7C9FF07
:10750000241D2D1DB442EFD3FFF79FFDFAF775FE42
:0C751000FEE700000080000800F000080A
:0400000508000121CD
:00000001FF
