:020000040800F2
:C80000004812002039400008F5170008F7170008F9170008FB170008FD17000800000000000000000000000000000000FF1700080118000800000000031800080518000853400008534000085340000853400008534000085340000853400008534000085340000853400008534000085340000853400008534000085340000853400008534000085340000853400008000000000000000000000000000000005340000853400008534000085340000853400008534000085340000853400008551D0008534000084B1E00085F
:C800C8005340000853400008534000083D210008FB210008534000085340000853400008534000080000000000000000000000000000000000000000000000000000000000000000000000000000000000000000534000085340000800F002F800F03FF80AA090E8000C82448344AAF10107DA4501D100F034F8AFF2090EBAE80F0013F0010F18BFFB1A43F0010318473859000058590000103A24BF78C878C1FAD8520724BF30C830C144BF04680C60704700000023002400250026103A28BF78C1FBD8520728BF30C148BF81
:C80190000B607047782903F0AB87002070471FB51FBD10B510BD04F0EFF91146FFF7F7FF00F00DF804F00DFA03B4FFF7F2FF03BC04F012FA10B507F064F9002010BD10B501F0ACFA01F0E3F901F00EF900F0B2F97D2002F0DEFE08B102F0F4FF012002F066FF612002F0D5FE0028FAD045F2555007F03EF9032007F03EF94FF49C7007F03DF907F03EF907F041F90021084801F005FA0021074801F001FA4FF4C071064801F0FCF901F03EFA01F052FA002010BDB70700082F140008C5010008FE487047322070472DE9FC4793
:C80258000E462021DDF828908DF8021001218DF8001003218DF80110C9070191F5499846B1FBF0F1CBB20724190605D459060B0E641E14F0FF04F7D100FA04F5A24097B2ED4A6946ED4801F056FB4FEA491242EAC802EB4842EA045202436946E74801F04AFB40F2B3426946E44801F044FBE54A6946E24801F03FFBB6FBF7F0C200E24869460243DD4801F036FBB5FBF6F006FB1050B0FBF7F0C200B5FBF6F042EAC0326946D64801F027FBBDE8FC871CB510228DF8022001228DF8002003228DF801204FF4004220F003002D
:C8032000019241290BD042290CD043290DD040F46042C8486946183001F009FB1CBD40F40052F6E740F4C042F3E740F42042F0E71CB50020ADF804006946012001F072FC01A9032001F06EFC0421BE4802F0CDFB01280AD101A9032001F064FCBDF80000BDF804100844ADF80000BDF800000103BDF8040000F58050B1FBF0F0C0F38D001CBD10B5012805D1AF480178A9480C3001F038FB012010BD70B5012820D1AA4C607958B10022A74E4FF480452946304602F0B3FB607918B1012202E00122F2E700224FF400413046F2
:C803E80002F0A7FB607910B9A078012806D0002229469C4802F09DFB012070BD0122F7E710B5012808D1964840894FF6FF7101EA80004221FFF772FF012010BD38B501280AD18F4C607948B100200090A2890123E169A069FFF70AFF012038BD0120F4E72DE9FF41012846D1864C0821204602F058FB01280BD11021204602F052FB012805D12021204602F04CFB012818D0012256023146204602F05CFB750501A9284601F070FB4FF4F0673A4601A9284601F06FFB0028F8D000223146204602F049FB6F4DA87801281AD034
:C804B00000224FF48041204602F03FFBA8780090AA890123E969A869FFF7C4FEA87801280BD000224FF48071204602F02EFB04B00120BDE8F0810122E3E70122F2E7F8B50D46012822D15C4E5B4C20363068A061042204F118014FF4A07001F0ABFA287B062809D1B088608160894FF6FF7101EA80004221FFF7EEFE607948B100200090A2890123E169A069FFF78CFE0120F8BD0120F4E710B54FF48051464802F0FAFA0021464802F0F6FA0021454802F0F2FA0021444802F0EEFABDE810400421424802F0E8BA70B53C4C04
:C80578000020E07020716070A0706071374D02460121284602F0D5FA607950B100224FF480463146284602F0CCFA607918B1012202E00122F3E700224FF40041284602F0C0FA2C4D00224FF48071284602F0B9FA217822480C3001F029FA42210020FFF795FE31462846BDE87040002202F0A9BA2DE9FC41054601AA694601F08DFDBDF804000C287ED100980478412C7AD3284601F04DFD002100980A46835C521C5940D2B20B2AF9D3124B5A2C42D9C27A8A423FD1A4F15A024FF0050C92FBFCF716460CFB176296FBFCF723
:C8064000D2B2B3F814E019E06850000880234300050058003855000804048500C24F0018018000080008014000000020000C0140001001400014014000180140774503D096FBFCF6002E39D1012A06D0022A06D0032A06D0042A06D00FE057240DE052240BE0562409E05A2407E000210122865C521C7140D2B20B2AF9D3C27A8A4202D05821017070E0714E572C06D0522C2DD0562C40D05A2C4CD066E0002100EB4102B2F8012026F81120491CC9B20529F5D3308840F480513180308900E058E040F004003081624802F08C
:C80708001DFA7188614802F019FAB188604802F015FAF1885F4802F011FA31895E4802F00DFA3DE0002100EB410336F81120491CC9B2A3F801200529F5D300220121435C491C5A40C9B20B29F9D3C27228E053A1401C03F08DFC0021009A0120135C401C5940C0B20B28F9D319E04178572902D0522909D00AE0807898820222484940F2024001F06BF901E0998A81700021009A0120135C401C5940C0B20B28F9D3D1720C21284601F0B6FD0020BDE8FC8110B50020FFF715FF0120FFF712FF002010BD2DE9F041314F4FF455
:C807D00000552946384602F098F9012800D00020314C143CA0712A4E2946304602F08DF9012800D00020E0714FF4FA70E081FFF7A7FD2082208A1E21B0FBF1F0608201F06FF920810821384602F077F9002501280CD0A02020816570A570A07801281BD000224FF48071384602F07FF91021384602F063F9012802D042F21070E0812021384602F05AF9012802D0208A40086082E078012802D002E00122E2E7E5700421304602F04AF938B100224FF48051384602F05BF901202CE60122F6E7C400002000080140000C01402D
:C8089800001001400014014000180140322E580014000020F0B589B00C4605462022F749684603F071FD00206F464FF6FF7612E015F8011B020B06EA001382EA111037F810005840020B06EA001301F00F00504037F810005840641EA4B2E9D209B0F0BDF0B5ADF5007D034600206D4603E00C5C2C54401C80B29042F9D37D2613B1012B22D034E0002003461BE02C5C7E2C02D07D2C0BD010E078B1571EBB420CD0CE545B1C521C9BB292B25E2405E0CE545B1C521C9BB292B25D24401CCC545B1C80B29BB29342E1D312E04B
:C8096000002003460DE02F5C7D2F05D12C1864785E2C0CD05D2C0DD0CF54401C5B1C80B29BB29342EFD30DF5007D1046F0BD7E24CC5400E0CE54401C521E80B292B2ECE738B505460022694601F0B2FB00987E24092104704170B8490622097881706321C170002101714271B44A12888271120AC271017241728172C1720B21401CFFF765FF00990F220873000A48738C730020FFF782FF0146284601F090FC38BD38B505460022694601F083FB00987E24092104704170A0490622097881706021C170002101714271817116
:C80A2800C171017241728172C1720B21401CFFF739FF00990F220873000A48738C730020FFF756FF0146284601F064FC38BDF0B585B004004FF4806640F2014702D0012C04D008E001226946304602E001226946384601F027F89DF80000FF2835D100258DF8005014B1012C04D008E001226946304602E001226946384600F0DFFF002204A9204601F030FB04985921057041704FF4E131204601F0FAFB0221204601F029FC4FF0804501A9284601F04BF84FF4F066324601A9284601F04AF80028F8D04FF49641204601F011
:C80AF000E2FB05B0F0BD2DE9F04100250A208871C879674F1E460C4630B1012829D0CB2088710120BDE8F0811221617061481021217100782072387860723878A0725E480088A4F80B005D480088A4F80D005C480088A4F80F005B480088A4F811005A48007820B10020E07414201880D9E70120F9E75E2161705C212171052204F10A01012000F0ABFF042204F10F01082000F0A5FF0B2204F11301202000F09FFF032204F11E01752000F099FF042204F121014FF4A07000F092FF142204F12501442000F08CFF042204F1C3
:C80BB8003901782000F086FF0E2204F13D01802000F080FF042204F14B01A22000F07AFF032204F14F01C02000F074FF0A2204F15601E42000F06EFF397884F85010397884F851102F484FF4C061A4F852100188A4F8541000202118401C897AC0B229448DB25628F7D325816078801C308074E770B500208871C8791D460C46012814D1207A80B101F064FC012808D11E49FF200870012240F2FF1000F008FF18B9A07940F0C200A0710A202880012070BD2DE9F04108460C460021217000F8031F134E8588C1881F4604F15A
:C80C8000120035B1728895422FD0A07940F0C30031E019E0185500087C0000207E00002002000020060000200E000020100000201200002008000020070000206200002064000020700000201C2905D0A07940F00300A07100201DE7008BB08001F018FC50B9A07940F0C20005E001F045FB18B9A07940F09000A0716D1C75800920607007202071A4F809500B203880012001E7002088710A201880012070472DE9F04791468A4604460027FFF790FA0646A07AE17A00EB01201FFA80F8E079012808D16079DA2805D1227B73
:C80D480004F10D01404600F089FE6078801C0021A9F80000E1700D4644E005EB4500627916F830100127914203D106EBC0035B8853B1914234D106EBC000418841452FD1E07980B101281BD005EB450006EBC0004569002D30D0E0794B4652462146AC46BDE8F047604705EB450006EBC00081680029E9D0227B04F10D0003F0A8FAE3E705EB450006EBC00080680028DCD0227B04F10D0103F09BFAFA4901200870D3E76D1CEDB2FFF730FAA842B6DC002F03D1A07940F01000A071BDE8F0872DE9F04F89B00646F2A0009030
:C80E1000F3A008900024F4A007902546ADF81840EBA706AA01A9304601F072F94FF0804AEF4AF049504600F09FFEDFF8BC8350B198F80010012906D188F800504FF49641304601F030FA01984FF0FF094FF4F06B417846297DD1BDF81810052979D38178532936D1C17854297BD1007941284AD1304601F010F901984E27C0F8015001F03FFB012800D159270198022104704770304601F03BFA02A95746504600F05EFEBA465F463A4602A9504600F05DFE0028F8D04FF4E131304601F0F5F9012088F80000C849504600F087
:C80ED80049FE01988178532916D0C9B2442947D0452976D0432940D1C17848293DD100794B283AD1304601F0D2F8019840F8015F456000F8014CCBE0C07854282DD101980079422829D1304601F0C1F80198C0F801504E2501F0F0FA012800D159250198022104704570304601F0ECF902A95446504600F00FFE5D462A4602A9204600F00FFE0028F8D0012001E062E005E088F80000A249204600F0FDFD09B0BDE8F08FC1784F29F9D101795729F6D14079BDF81810C01D8842F0D89849504600F0EAFD304601F084F8019BA8
:C80FA000C3F801504E2500225979104604E01F18BF797A40401C80B28842F8D358188079904205D1981D01F0D7F9012800D15925019804704570CAE0FFE7C1785829C8D100794528C5D18349504600F0BFFD304601F059F80198C0F80150CAE001228DF8149005A9900205E08DF81490012205A940F2014000F026FD0128D9D101F074FAD5E7304601F07AF9A3E7BDF8181004299FD9405C0A289CD1384603F04DF9024601983946401C03F01BF9A0B3009803F043F90246DDE90010401C03F011F958B3089803F039F902463B
:C810680001980899401C03F007F900287ED0079803F02EF9024601980799401C03F0FCF80028CDD1304601F00AF8079803F020F901460198401C03F0B1F9019800F8014B54490A8854A102F0E3FF0521B5E700E025E0304600F0F3FF384603F009F901460198401C03F09AF94E2501F01DFA012800D159250198022104704570304601F019F902A95446504600F03CFD5D462A4602A9204600F03CFD0028F8D02BE73B49504600F02FFD304600F0C9FF009803F0DFF801460198401C03F070F94E270025009803F0D5F8801CF8
:C8113000019B82B203EB020C00201CF8011C07E000EB0208401C13F8088080B288EA05058842F5D38818185CA84205D1604601F00BF9012800D15927019804704770022157E7FFE71F49504600F0F8FC304600F092FF089803F0A8F801460198401C03F039F94E25002E3FF431AF012E3FF434AF16E7FEB5054602AA01A900F0B1FFBDF80810052908D901980024025D552A23D0641CA4B2052CF8D3FEBD00000300002041542B535441000041542B444F57000041542B455845000041542B43484B3F0000EE0200D8000020B9
:C811F80070000020620000202530345800000000052CDDD206197078AA28D9D1601DB61C8142D5D97278081B401F8242D0D1284600F03DFFA71CBDF80830B9B20020A3F1010C019A05E012F801E0491C8EEA000089B26145F7DBD11811F8011C814218D0B07940F00400B07100200146737808E004EB000C9444401C9CF802C080B28CEA01018342F4D89818E41CC1557078204431E0181BC01E81B210196A46801CFFF741FD00200146BDF80030019A05E026181644B6787140401C80B29842F7D3E01810448170BDF800002E
:C812C00014B12044C01C12E0001D81B2019805E0421812F8012C4254491E89B20029F7D1017055214170BDF800002044001D81B2284601F013F867E754490020886001F007B970B50D46044601F036F8024601280ED14E498868284488602070C11700EB1160000A60700020A070E07020716071104670BD70B5454E04460D46B0680144B1F5E04F02D9C0F5E04085B23DB12946204601F011F80146012802D00FE0002070BDB0682844B0602070C21700EB1260000A60700020A070E07020716071084670BD10B504883248C4
:C8138800324900780978884214D12F493048091F0078097800F0F00001F0F001884209D12C480088A04201D1012010BD00F0C0F8A04201D0002010BDBDE8104001F0E2B810B504882048214900780978884209D120480088A04201D1012010BD00F0A8F8A04201D0002010BDBDE8104001F088B810B500224FF48051174801F09AFB0222164940F2024000F05DFB002000F038FE012000F035FE0020FFF719FBBDE810400120FFF714BB10B50020FFF7B6FE0120FFF7B3FE0020FFF7E1FC0120FFF7DEFC002010BD700000208F
:C8145000F8DF0008F85F0008F45F00087E000020000C014014000020F0B565490124654A654D2346084617680668BE4200D00024001D121DA842F6D360480A680668B24200D00023001D091DA942F6D3012C03D0012B01D00020F0BD0120F0BD10B55548574A0168491C02D1001D9042F9D3904202D101F05BF80BE052484078122801D0012010BDFFF7C8FF0028FAD101F052F800F083F84C4A00214FF0006010F8013B9042194489B2F9D3A1F5004188B27047454B10B53F4A0020194611F8014B9142204480B2F9D3414AD0
:C815180012F8011B9A42084480B2F9D3A0F5004080B210BD4FF4E0414FF00060FFF7BAB94FF4E0413648FFF7B5B93449122001224870491CFF2000F089BA304810B541780024122907D1112141700124411C2246FF2000F07BFA204610BD38B527480478012C07D100218DF8001001226946FE2000F06CFA204638BD2049012002460870FE2000F063BA70B5FEF754FE054600240BE004EB440005EBC003996819B11A7B588800F087FA641CA4B2FEF745FEA042EFDC154900200880124A4FF000600C8810F8013B23440B80BB
:C815E0009042F8D370BD002070470E4801680E4A01F4E06111430160BFF3408FFEE700000050000800F000080060000800D0000800000108800000200080000800700008620000200CED00E00400FA0530B43D4C23780A2B11D23C4A03EB830502EB85021569002D09D1C2E903105B1C237030BC11464FF0804000F089BA30BC7047F0B5DFF8C0C09CF80010491E092921D80021DFF8B4E019E001EB81020EEB82021469844210D103EB83040EEB840454F8085C143CD56094E8E00082E8E00024695B1E14618CF80030491C82
:C816A800C9B29CF800309942E1D3F0BD2DE9F04100241B4D4FF08047184E08E004EB840005EB8001384600F04DFA641CE4B230788442F3D3BDE8F081DFF844800F4E4FF08047002515E005EB850108EB8104206968B121463846E26800F03AFA38B12146384600F02FFA00212269084690476D1CEDB230788542E4D2E5E7000082000020E4000020F8B5002001F094FC0121084601F015FD01212A4801F023FD012144F27D0001F015FD4FF4E06000F03DFF25208DF8000001248DF802408DF80340684600F037FF26208DF863
:C8177000000002268DF802608DF80340684600F02CFF0121194801F0F5F9194F002407EB04156946A888ADF800008DF80260287B8DF80300286801F05AF9A86810B1012101F0E0F9641C502CE9D34FF496442146002000F078FD2146012000F074FD002000F05AFC012000F057FC00F0B3FBBDE8F84000F0A5B900000100220000043000505500087047FEE7FEE7FEE7FEE7704770477047704700002748016841F0010101604168254A114041600168244A11400160016821F480210160416821F4FE0141604FF41F01816068
:C81838000021C1621D49C0030860704730B5184A50681B4B1B4910F00C0004D01A4C042803D0082803D00B6017E00C6015E05068536800F470104FF0020513F4803F05EB904007D0D36A03F00F035B1CB4FBF3F34343E8E70D4B584308605068094AC0F30310121D105C0A68C2400A6030BD0000001002400000FFF8FFFFF6FE08ED00E000127A0084000020001BB70000093D0058B101280BD002280BD003280BD14F48012A00D0002201F02CB94D48F8E74D48F6E74D48F4E7704710B504464A788088E188DAB1012A0ED0EB
:C8190000022AC0B24FF0000205D0FFF7DDFF61882078012210E0FFF7D7FF618820780022C0B2FFF7D1FF0A2002F06CFE61882078012209E0C0B20022FFF7C6FF0A2002F061FE618820780022BDE81040BCE72DE9F04190460E460446FFF7CAFF002526E032787068012A05D0A84018EA000F03D0012702E0E840F8E700270A2002F042FE6189207A3A46FFF79FFF0A2002F03AFEE18820790122FFF797FF0A2002F032FEE18820790022FFF78FFF6D1CEDB2B078A842D5D80A2002F025FE3146204600F003F80120BDE8F08109
:C819C80010B504464A7800886188AAB1012A09D0022A02D0C0B2012201E0C0B20022BDE810406DE7C0B20022FFF76AFF0A2002F005FE61882078EDE7C0B20122FFF760FF0A2002F0FBFD61882078E6E70014014000080140000C0140001001401CB506228DF8022001228DF8002000228DF8012020220192084A824202D00C32824205D1A1F10E020A2A01D8491CC9B20A466946FFF779FF1CBD0000505500082DE9FE4316460F46804600244FF47A791EE008EB0400010A8DF808108DF8090000F03F00C0F14005301BA84282
:C81A900000D20546E9B23819CDE90001022302AAA021124800F046FA0028484609D002F0A9FD2C44B442DED3B44205D10120BDE8FE8302F09FFDF7E70020F8E70EB5030A8DF808308DF80900D0B2CDE90010022302AAA021014800F00CFA0EBD0054004000F0D8B81FB500208DF80C00022102A8CDE90001012303AA9021084800F0F9F99DF80800000201B29DF8090004B00843C11700EB5160C01110BD0000005400403EB54FF6FF70ADF8040026484FF416414FF080440068B0FBF1F0401EADF800000020ADF80600ADF8CF
:C81B580002006946204601F0F7FB0121204601F09BFE3EBD10B50C4602F0B1F8A06010BD70B515460C4602F0AAF82189401A80B2B5F5803F05DAA84201DB012070BD002070BD61684FF6FF726FF30F0161602678002346B190420DD2A0F57F42FE3A00D12370014305E0904204D10120207001F580316160A942E2D36360DEE78400002010B586B000214FF46020CDE902018DF804100220534C00918DF805108DF810006946204600F05CFD062301220221204600F0D6FD062301220321204600F0D0FD0121204600F074FD14
:C81C2000204600F08EFD204600F090FD0028FAD1204600F092FD204600F094FD0028FAD106B010BD2DE9F0410F004FF0000510D0DFF8E8800146022301224446404600F0ABFD0121204600F084FD00244FF4FA6606E02846BDE8F081641CA4B2B44205D20221404600F06CFE0028F5D0B44204D0404600F0D5FD388001250021404600F068FDE6E770B5254E072301221021304600F082FD012000F047FE0121304600F058FD00244FF4FA6503E0641CA4B2AC4205D20221304600F043FE0028F5D0AC421DD0304600F0ACFD8A
:C81CE80002F0D8FE4FF06632134B02F0E7FE6FF00B0203F06FF9114A114B02F0DDFF0022104B02F06FFD00220F4B02F0BBFC02F087FC044600E000240021304600F025FD002000F00DFE204603F0BCF8400000B270BD00000024014066660A408FC2F5285C8FF63F00CCB04000003940F8B5C04D284601F0B4F8BF4F0022C11BBE4EBF4C4FEA77330090B8422CD008DC102834D0B0F5806F5FD0B0F1021F08D120E04039B1F580213FD002293CD004293BD0228062801946284601F0B1F80021284600F0D7FF3146284601F000
:C81DB000BBF84FF00121284601F0B6F8AA49284601F0B2F8A9493BE02280F8BD284600F0FDFF2188A64BC1F30802491C98542180F8BD1946284601F08DF80021284600F0B3FFE568002DF3D0218801B0AC46BDE8F040984B9A481B1D1A1D60476280A1680029E5D06088095C401C6080284600F0D3FF94490A220020934B096801E0401C80B2B1FBF3F454438442F8D8F8BD31462846BDE8F84001F06FB870472DE9FF5F1E46DDE90E9790464FF0000B72B65D46DFF818A20121009800F06CFF8449009800F088F8D8B3DDE97B
:C81E78000001002200F0A9FF7E490098891C00F07DF880B300240BE018F80410009800F097FF5146009800F071F818B1641CE4B2B442F1D3B4421FD100240BE019F80410009800F085FF5146009800F05FF818B1641CE4B2BC42F1D3BC420DD169490098091D00F053F830B10121009800F038FF4FF0010B04E0FFE76D1CEDB2032DB5D362B6584604B0BDE8F09F2DE9FC4107460020DDE90854009001900E463846FFF799FF012807D123462A463146384600F046F8012800D00020BDE8FC817CB5DDE90645CDE90045FFF7F2
:C81F400085FF7CBD1FB5444C204600F063FE0021ADF804104BF6FF71ADF8061021150801ADF80C004748ADF80A1000900121204600F0CAFE6946204600F05FFE1FBD3948C16070472DE9F0410E46074600244FF47A7503E0641CA4B2AC4205D23146384600F085FF0028F5D0AC4202D10020BDE8F0810120FBE72DE9FF5F1D4690464FF0000972B64E46DFF8B8B00121009800F0B9FE59460098FFF7D5FF80B3DDE90001012200F0F6FE26490098491CFFF7CAFF28B3DFF88CA000246F1E0AF13F0A17E0012D01D0BC4207D1ED
:C82008000021009800F0AEFE0121009800F0A0FE51460098FFF7B2FF40B1009800F0D2FE08F80400641CE4B2AC42E5D3AC4203D14FF0010904E0FFE7761CF6B2032EC0D30121009800F08EFE62B6484652E70000005400404000020000040001980000200008000100100001AC0100208400002040420F008000070001000300400D0300B549B64A01EB402100EB400042F8201002EB8000002101818180C180704700EB4002AE48002100EB820001818180C180704710B5A94C00EB400204EB820054F822208388D1548188EE
:C820D000491CC1F3080181800189491CC1F30801018110BD30B59F4D00EB400305EB8300018959B1C288D4B2521CC2F30802C280491E018155F82300204430BD002030BD10B5944B00EB400011B153F820400C60002A03D003EB80000089108010BD8D4900EB400001EB800002817047F8B58A4D40F226642146284601F046FF01280BD040F225542146284601F03EFF012821D0BDE8F84000209EE70122804F16033146384600F0E2FC2146284601F04CFF0020FFF7B0FF040006D02178284601F0B9FE00202070F8BD3146EC
:C82198003846BDE8F840002200F0CBBC2146284601F035FF6C494FF08044C02218392046FFF7DEFC012802D10020FFF770FF664920461839FFF7CEFC284601F09AFE8DF800009DF800100020FFF76BFF62480268002AD3D05D480189006801B0BDE8F0401047F8B55D4D40F226642146284601F0E7FE01280BD040F225542146284601F0DFFE012821D0BDE8F84001203FE70122504F16033146384600F083FC2146284601F0EDFE0120FFF751FF040006D02178284601F05AFE00202070F8BD31463846BDE8F840002200F0BB
:C82260006CBC2146284601F0D6FE3D494FF08044C0220C392046FFF77FFC012801D1FFF712FF374920460C39FFF770FC284601F03CFE8DF800009DF800100120FFF70DFF33484268002AD4D02E48818AC06801B0BDE8F04010477FB570B301282BD12D4C0020ADF80400ADF80600ADF80800ADF80C000C200091ADF80A006946204601F047FD40F225552946204601F094FE40F226663146204601F08EFE01222946204601F0B3FD01223146204601F0AEFD0121204601F0A0FD7FBD134CD1E770B5054600EB45020F4800EB64
:C8232800820001810021C1802846FFF7D7FE040010D0012211030B4800F0FBFB3DB1012D08D121780948BDE8704001F0D6BD21780348F8E770BD0000C4030020C407002000380140000C0140A8000020004400402DE9F05F0746DFF83482A1F57F400D464FF00009FE3822D0894CA5F57F40FF3822D0002F66D0D8F8049000208B464FF40042A84261D2D8F8041091425DD8C1F3090141443B5C0B72D8F8041000F10100491CC8F804108905EBD1834651E088F80090C8F8049091E004F027FE342005F034F898F8000004EBEC
:C823F000802004F058FE042866D198F800102746002504EB81240DE008EB05062046B16804F0E7FE042857D1B0682168884253D1241D2D1DB8F80400C0F30900A842EBD8D8F80410614ECD190CE00021204604F0D0FE042840D108EB05002168806888423AD12D1DB542F0D304F0F7FD88F80090C8F80490FFF76DF805F028F80020BDE8F09FB8F80400800544D104F0DAFD342004F0E7FF98F80010264604EB812004F00AFE042802D0C8F8049015E098F80010002406EB8126C2460AEB04083046D8F8081004F096FE04286A
:C824B80004D1D8F808003168884204D0CAF8049004F0BFFDCEE7241D361DB4F5806FE7D304F0B7FD9AF800005146401C8AF80000584609E08B883A5CC3F309030B441A724A68521C401C4A60A842F3D30120B2E74FF6FF71002033E74FF6FE7100202FE72DE9F04116460F46044672B604F085FD342004F092FF002508E007EB852004F0B6FD04281DD104F0A8FF6D1CB542F4D33D4604EB86260DE02846216804F045FE04280ED12068296888420AD104F095FF241D2D1DA642EFD804F06BFD0120BDE8F081FEE704220F4938
:C82580000F48C9E704220E490C48C5E7FEF7D9FF04220B490B48FFF7BFFF00F000F80A4801680A4A01F4E06111430160BFF3408FFEE70000DC0700200080000800F000080050000800D000080CED00E00400FA052849084328490860704730B50F23C27801780125F2B1244A126801F1E02102F4E062C2F5E062120AC2F10404D3404278A24084781C401443220181F80024007800F01F018D404009800000F1E020C0F8005130BD01F01F0085404809800000F1E020C0F8805130BD104A114001430E48001F016070470C4A26
:C8264800121D0029116801D0014300E08143116070474FF0E0210428086903D020F004000861704740F00400FAE700000000FA050CED00E080FFFF1FC54910B5884202D1012144150AE0C349884202D10121041504E0C14988420AD10121CC03204600F079FD2046BDE81040002100F073BD10BD10B54268B94B0C791A400B6842EA0422134343608268B64B1A40D1E9024323434C7942EA440213438360C26A097C22F47002491EC9B242EA0151C16210BD00210160017141718160C1600121017470470029816802D041F07A
:C8271000010101E021F00101816070470029816802D041F4807101E021F4807181607047002A4268C9B201D00A4300E08A4342607047816841F0080181607047014600208968090700D501207047816841F0040181607047014600208968490700D5012070470029816802D041F4A00101E021F4A00181607047014600208968490200D5012070474268491E22F4604242EA4131416070470029416802D041F4006101E021F400614160704770B5072609290AD9C568A1F10A0404EB4404A640B543A3401D43C56007E00569B4
:C827D80001EB4104A640B543A3401D4305611F23072A09D2446B521E02EB820293409C4391400C43446370BD0D2A09D2046BD21F02EB820293409C4391400C43046370BDC46A0D3A02EB820293409C4391400C43C46270BD0029816802D041F4801101E021F4801181607047C06C80B2704754484C30006870470029416802D041F4806101E021F48061416070470029416802D041F4805101E021F4805141607047826822F4E0420A43826070470029816802D041F4004101E021F40041816070470029816802D041F4021185
:C828A00001E021F4021181607047014600208968890200D50120704770B5072609290AD9C568A1F10A0404EB4404A640B543A3401D43C56007E0056901EB4104A640B543A3401D430561836BC3F30154121B921C02EB82021F249440A34391400B43836370BD826B491E22F4401242EA01518163704708B508440090026008BD08B5084428300090006880B208BD42681F4B1A400A4342607047416282627047426822F01F020A4342607047134908310028086802D040F4000001E020F40000086070470246002012680A42DE
:C829680000D001207047C9430160704710B50246002054680B0AC9B20C401168194202D0002C00D0012010BD6FEA1121016070470024014000280140003C0140FFFEF0FFFDF7F1FFFFFD3FFF8F4910B5884206D10121042000F0EEFB002104203BE08B49884206D10121082000F0E4FB0021082031E08749884206D10121102000F0DAFB0021102027E08349884206D10121202000F0D0FB002120201DE07F49884206D10121402000F0C6FB0021402013E07B49884206D10121802000F0BCFB0021802009E0774988420AD134
:C82A300084150121204600F0B1FB00212046BDE8104000F0ABBB10BD10B50121084600F0A5FB0021BDE81040012000F09FBBF0B5CC78002204F00F03E40601D58C7823430C784FF00F0C14F0FF0F4FF0010E1BD005680E880EFA02F42640A64210D196000CFA06F725EA070703FA06F5CE783D43282E02D0482E02D002E0446100E00461521C082AE5D305600A88FF2A1CD94468002202F108060EFA06F50E882E40AE420ED196000CFA06F7BC4303FA06F7CE783C43282E00D14561CE78482E00D10561521C082AE5D34460D3
:C82AF800F0BD4FF6FF710180022181700421C17070470246002092680A4200D001207047806880B2704702460020D2680A4200D001207047C06880B2704701617047416170470AB10161704741617047C160704741F480328261816182618169806970472C4B10B51A684FF68074224042EA00100843186010BD2849C8617047F0B5254C002801DAE36900E06368450D2E0185B2C0F30157B540C0F30342032F05D0C6020AD503269640B34307E023F07062636823F07063636002E0AB4343F0706201B12A43002801DAE26161
:C82BC000F0BD6260F0BD10B58A0721F003040F49120F21440F238C6893409C438C608B68904003438B6010BD0949C1F8DC00704700080140000C0140001001400014014000180140001C0140002001400000014000002042C64910B588424FF0010101D14C0501E04FF48004204600F0C0FA2046BDE81040002100F0BABA70B50446808886B00D4620F03F06684600F044FAB9490298B0FBF1F189B20E43A680228822F001022280B44B2A689A421CD85200B0FBF2F080B2042800D20420491C2184A083208840F0010020808B
:C82C880020884FF6F5310840A9886A89114301432180A88929890843208106B070BDEB88A3F53F46FF3E0BD002EBC20303EB0212B0FBF2F080B240F48040020506D007E002EB4202B0FBF2F080B2F6E740F001004FF4967251434FF47A72B1FBF2F140F40040C6E741F288310160002181804BF6FF72C280018141814FF48041818170470029018802D041F0010101E021F00101018070470029818802D041F4006101E021F40061818070470029818802D041F4805101E021F48051818070470029018802D041F4807101E087
:C82D500021F48071018070470029018802D041F4007101E021F40071018070470029018802D041F4806101E021F4806101807047828901F0FE0122F0FE021143818170470029818902D041F0010101E021F00101818170470029018802D041F0400101E021F0400101807047002A828801D00A4300E08A438280704701827047008AC0B2704712B141F0010101E001F0FE010182704708B508440090008808BD0029018802D041F4004101E0C1F30E0101807047B1F5006F018803D021F400610180704741F40061FAE7B1F50D
:C82E1800005F018803D021F400510180704741F40051FAE70029018802D041F4805101E021F4805101807047B1F5006F018803D021F400610180704741F40061FAE70029018802D041F0200101E021F0200101807047008B000A70470029018802D041F0100101E021F01001018070470029018803D021F080010180704741F08001FAE7B1F5804F818B02D021F4804101E041F4804181837047034600209A8A1B8B42EA034222F07F42914300D101207047818A008B41EA004121F07F4070470CB50246002000920A0F21F0A6
:C82EE0007F41019202D0009A143202E0009A090C1832009212680A4200D001200CBDC9438182704710B5034600209A884FF4E06404EA11449B8A224021F07F410B4202D0002A00D0012010BDC9438182704700000054004040420F00A0860100AE48016841F0010101604168AC4A114041600168AB4A11400160016821F480210160416821F4FE0141604FF41F0181600021C1627047A1490A6822F480320A600A6822F480220A60B0F5803F07D0B0F5802F03D1086840F4A02008607047086840F48030F9E70346002059092F
:C82FA800934A01290AD002290AD0516A03F01F02012393400B4200D0012070471168F5E7116AF3E718B500204FF4A06400903120FFF7E3FF0099491C0091A14201D00028F5D03120FFF7D9FF002800D0012018BD7F4A116821F0F80141EAC000106070477E49086070477A4B5A68084322F47412104358607047794908667047744B10B5DA6A774C084322401043D86210BD704A516821F003010143516070476C48406800F00C0070476A4A516821F0F001014351607047664A516821F4E061014351607047634A516821F4BB
:C8307000605141EAC000506070475F4A0029517A01D0014300E08143517270475D49C1F8D8007047584A516821F440410143516070475549002281F8202081F82020012802D0042802D1052081F8200070475349086070474C490A6A02430A6270474F4944390860704730B5474A51684C4B11F00C0104D04B4C042903D0082903D0036017E0046015E05168536801F470114FF0020513F4803F05EB914107D0D36A03F00F035B1CB4FBF3F34B43E8E73E4B5943016051680F2303EA11113C4B5C5C0168E14041605468072537
:C831380005EA14241C5D21FA04F48460546805EAD4241B5DD940C1605268032303EA9232304B1B1F9A5CB1FBF2F1016130BD244A0029516901D0014300E08143516170471F4A0029916901D0014300E08143916170471B4A0029D16901D0014300E08143D1617047164A0029D16801D0014300E08143D1607047124A0029116901D0014300E081431161704712494039086070470E49C86470470A49C87170470848416A41F0807141627047054A0146002092680A4200D0012070470149887270470000001002400000FFF8EB
:C8320000FFFFF6FE00004242F0FFFEFF8004424200127A00001BB70000093D00B4000020F94910B5884202D10121C41486E0B0F1804F09D0F54988420DD101210220FFF7B6FF0021022064E001210846FFF7AFFF002101205DE0EE49884206D101210420FFF7A5FF0021042053E0EA49884206D101210820FFF79BFF0021082049E0E649884206D101211020FFF791FF002110203FE0E249884206D101212020FFF787FF0021202035E0DE49884202D10121441444E0DC49884202D10121CC043EE0DA49884202D101210C0539
:C832C80038E0D849884202D101214C0532E0D649884206D101214020FFF765FF0021402013E0D249884206D101218020FFF75BFF0021802009E0CE4988420AD1841501212046FFF750FF00212046BDE81040FFF74ABFC849884202D101210C040AE0C649884202D101214C0404E0C44988420AD101218C042046FFF72DFF2046BDE810400021FFF727BF10BD30B50288AC4CB24DA0420DD0A8420BD0B0F1804F08D0A94B984205D0A84B984202D0A84B984203D122F070034A881A43A54B984206D0A54B984203D022F4407312
:C8339000CA881A4302808A8882850A880285A0420AD0A84208D0A54A904205D0A44A904202D0A44A904201D1097A01860121818230BD30B5028C22F001020284028C8388048B22F0020224F073050C882C430D8915434A882A43884DA8420BD08C4DA84208D0924DA84205D0914DA84202D0914DA8420DD122F008054A8923F440732A4322F004058A882A438D891D43CB892B4383800483C9888186028430BD70B5028C22F010020284028C8388048B0D8824F4E6464FF6FF7404EA052535430E8922F0200204EA061616437F
:C83458004A8804EA02123243694EB04202D06E4EB04215D122F080064A8923F4406304EA0212324322F040068A8804EA021232438E8904EA86061E43CB8904EA8303334383800583C9880187028470BD70B5028C22F480720284028C8388848B0D8824F0730425430E894FF6FF7422F4007204EA062616434A8804EA022232434C4EB04202D0514EB04215D122F400664A8923F4405304EA0222324322F480668A8804EA022232438E8904EA06161E43CB8904EA0313334383808583C9888187028470BD70B5028C22F4805290
:C83520000284058C8288838B0C8823F4E6464FF6FF7303EA0424344325F400560D8903EA053535434E8803EA06362E432E4DA84202D0334DA84205D122F480458A8903EA82122A4382808483C988A0F84010068470BD828B22F440628283828B4FF6FF7303EA01210A4382837047828B22F00C028283828B0A4382837047028B22F440620283028B4FF6FF7303EA01210A4302837047F0B5048C24F010040484078B048C4FF6FF7527F4734705EA03333B4305EA02221A430C4B05EA011698420ED0104B98420BD0B0F1804F69
:C835E80008D0084B984205D0074B984202D0074B984225D124F02001314341F0100124E0002C01400004004000080040000C0040001000400014004000340140004C0140005001400054014000180040001C00400020004000400140004401400048014024F0A0030B4343F0100102830184F0BD028B22F00C020283028B0A430283704770B5048C24F001040484058B048C4FF6FF7606EA0313134325F0F305F84A2B4390420ED0F74A90420BD0B0F1804F08D0F54A904205D0F54A904202D0F44A904202D124F0020201E062
:C836B00024F00A020A4342F001010383018470BD2DE9F84F0D4604460888E74FDFF89CC3DFF89C83DFF89C934988AA882B894FF0804A48B304282FD04FF6FF760828934632D0208C9E4620F480502084A38B208C06EA0132009223F4734306EA0B221A4306EA0E331343BC420AD0644508D0544506D0444504D04C4502D0D34A944242D120F40050009940E02046FFF795FFE9882046BDE8F84F87E72046FFF732FFE9882046BDE8F84F20E7208C20F480702084B4F81CE0208C06EA031306EA01222EF0F30E43EA0B0343EAFC
:C83778000E030092BC420AD0644508D0544506D0444504D04C4502D0B94A944203D120F40070009901E020F42060084340F48070A3832084E9882046BDE8F84FE9E620F40240084340F48050A3832084E9882046BDE8F84FD1E62DE9F0410C46002649880746012501B90226A288012A00D10225208823890028384610D0FFF7DEFEE1883846FFF7CEFE23892A4631463846FFF72FFFE1883846BDE8F04121E7FFF728FFE1883846FFF71CFF23892A4631463846FFF7C3FEE1883846BDE8F041B1E610B50A884B88CC881A43DE
:C83840008B8823431A430B891A434B8989891A430A43A0F8442010BD4FF6FF71818000210180C1804180017270470021018041808180C180018141818181C181704700210180418001228280C180018170470021018041808180C18001814181818170470029018802D041F0010101E021F0010101807047002930F8441F02D041F4004101E0C1F30E0101807047002A828901D00A4300E08A4382817047818270471143A0F848107047002A828901D00A4300E08A4382817047018921F0070101817047028922F070020A4378
:C83908000281704700B50346FFF7F6FF188940F00700188100BD70B516460D46602904464FF0010231460AD0FFF79AFE29462046FFF7E2FF208940F00700208170BDFFF734FEF3E730B504894FF6FF7505EA03231343E4B20B432343038130BD10B50446FFF7F0FF208940F07700208110BD10B50446FFF7E7FF208940F48040208110BD018582827047028822F070020A430280704770B50589048B068C25F007050D434FF6FC410C4040F201110C434FF6FF7101EA031126F022061143314305810483018470BD028B22F0F6
:C839D00070020A4302837047028B4FF6FF7322F4E04203EA0121114301837047828B22F070020A4382837047828B4FF6FF7322F4E04203EA01211143818370470029018802D041F0800101E021F08001018070470029818802D041F0040101E021F00401818070470029818802D041F0080101E021F00801818070470029818802D041F0010101E021F0010181807047028B22F008020A4302837047002C0140003401400004004000080040000C0040028B4FF6FF7322F4006203EA012111430183EAE7828B22F008020A43F2
:C83A98008283E4E7828B4FF6FF7322F4006203EA012111438183DAE7028B22F004020A430283D4E7028B4FF6FF7322F4806203EA012111430183CAE7828B22F004020A438283C4E7828B4FF6FF7322F4806203EA012111438183BAE7028B22F080020A430283B4E7028B4FF6FF73C2F30E0203EA012111430183AAE7828B22F080020A438283A4E7828B4FF6FF73C2F30E0203EA0121114381839AE7028C22F002020A43028494E7028C22F008020A4302848EE7028C4FF6FF7322F0200203EA01111143018484E7028C4FF6D5
:C83B6000FF7322F0800203EA0111114301847AE7028C4FF6FF7322F4007203EA01211143018470E7028C4FF6FF7322F4006203EA01211143018466E7028C4FF6FF7322F4005203EA0131114301845CE710B50123048C8B409C430484038C8A401343038410BD10B50423048C8B409C430484038C8A401343038410BD30B50124058C00F118038C40A543058489B108290FD0091FC1F34E001844016821F4E041016001684FF6FF7303EA02221143016030BD03EB5100016821F0700101600168F4E70029018802D041F002010B
:C83C280001E021F00201018019E70029018802D041F0040101E021F0040101800FE70029818802D041F0800101E021F08001818005E7028822F00802028002880A430280FDE6828822F07002828082880A438280F5E6028922F00702028102890A430281EDE6028922F08002028102890A430281E5E68184E3E68185E1E68186DFE60187DDE68187DBE6A0F84010D8E6028822F44072028002880A430280D0E6808ECEE6008FCCE6808FCAE6B0F84000C7E6808CC5E6008DC3E602460020128A0A4200D00120BCE6C94301821F
:C83CF000B9E602460020138A92890B4202EA010202D0002A00D00120ADE6C9430182AAE6C44910B588420AD101218C032046FFF73DFA2046BDE810400021FFF737BABE49884202D101214C0410E0BC49884202D101218C040AE0BA49884202D10121CC0404E0B84988420AD101210C052046FFF726FA2046BDE810400021FFF720BA10BD30B50446008A85B00D464CF6FF710840E98801432182A0894EF6F3110840A9882A8911436A8902431143A181A08A4FF6FF410840A9890143A1826846FFF793F99C48844201D1039823
:C83DB80000E00298A189090400EBC00101EB0010296801D5490000E08900B0FBF1F06422B0FBF2F109010B096FF018056B4300EB8300A3891D044FF0320306D503EBC000B0FBF2F000F0070005E003EB0010B0FBF2F000F00F000843208105B030BD4FF41651016000218180C18001810C2242818181704710B5028A4FF2FF031A400B884C8823438C88C9880C4323431343038210BD0021018041808180C18070470029818902D041F4005101E021F400518181704710B5C1F3421301F01F040121A140012B07D0022B07D0C6
:C83E80001430002A026805D00A4304E00C30F8E71030F6E78A43026010BD002A828A01D00A4300E08A4382827047028A22F00F020282028A0A4302827047828922F40062828182890A43828170470029818902D041F0020101E021F0020181817047028A22F020020282028A0A43028270470029018A02D041F4804101E021F4804101827047C1F30801818070478088C0F308007047818941F0010181817047028BD2B20283028B42EA012101837047028B02F47F420283028B0A43028370470029818A02D041F0200101E078
:C83F480021F02001818270470029818A02D041F0100101E021F01001818270470029818A02D041F0080101E021F00801818270470029818902D041F4004101E0C1F30E01818170470029818A02D041F4006101E021F4006181827047828A22F004028282828A0A43828270470029818A02D041F0020101E021F00201818270470246002012880A4200D001207047C9430180704770B501F01F0501260024C1F3421306FA05F2012B0FD0022B0FD0838A4FEA11210088134206FA01F600EA060001D000B10124204670BD8389C9
:C8401000F0E7038AEEE70A0A01219140C943018070470000003801400044004000480040004C0040005000400948804709480047FEE7FEE7FEE7FEE7FEE7FEE7FEE7FEE7FEE7FEE704480549054A064B704700000918000821010008480C002048120020480E0020480E00200FB41CB5074B06AA7B4469460090059800F03FFA0020694600F04EFA1CBC5DF814FB0000AD04000070B5044685690068C10601D5302600E02026C00707D070BDD4E9012130469047206A401C20626D1EF6D570BD70B5044685690078C00707D181
:C840D80070BDD4E9012120209047206A401C20626D1EF6D570BD000070B504460D4621461068AFF300802188090502D50F4A7A4402E00E4A7A440E32002104F1240305E000F00F060009965D5E54491C0028F7D120780023000704D5702D02D009B1022311322046BDE8704000F085B9461900002DE9F05F894604464FF0000ADFF824B1FB44C0F820A02046E168884700287DD0252806D0D4E901219047206A401C2062F1E700255F462046E16888472028064607DB312E05D2B81910F8200C08B10543F1E7A80701D525F032
:C841A0000405C4F81CA00027C4F818A02A2E09D0304600F020FA38B304EB8708303EC8F8186019E059F8041B204604EB87029161E1688847012F064618D1E069002820DA25F020051DE0D8F8180000EB800006EB40003038C8F818002046E1688847064600F0F9F90028EED1012F0AD02E2E08D12046E16888477F1C0646022F45F02005C4DBA069002803DA404245F00105A061E80701D025F01005A6B1A6F14100192802D8203645F400654A463146204625604D46FBF79FFF60B1012807D0ED1D25F0070000E007E000F106
:C8426800080978E705F1040975E730467AE7206ABDE8F09F1C19000040EA010310B59B070FD1042A0DD310C808C9121F9C42F8D020BA19BA884201D9012010BD4FF0FF3010BD1AB1D30703D0521C07E0002010BD10F8013B11F8014B1B1B07D110F8013B11F8014B1B1B01D1921EF1D1184610BD10B5431C02E010F8011B71B18107FAD14FF0013202C88C1A8C4314EAC211F9D0C01A0A0603D0C01E10BDC01A10BD0A0401D0801E10BD0902FCD0401E10BD032A40F2308010F0030C00F0158011F8013BBCF1020F624498BFF1
:C843300011F801CB00F8013B38BF11F8013BA2F1040298BF00F801CB38BF00F8013B11F0030300F02580083AC0F0088051F8043B083A51F804CBA0E80810F5E7121D5CBF51F8043B40F8043BAFF30080D20724BF11F8013B11F801CB48BF11F8012B24BF00F8013B00F801CB48BF00F8012B704710B5203AC0F00B80B1E81850203AA0E81850B1E81850A0E81850BFF4F5AF5FEA027C24BFB1E81850A0E8185044BF18C918C0BDE810405FEA827C24BF51F8043B40F8043B08BF7047D20728BF31F8023B48BF11F8012B28BFCA
:C843F80020F8023B48BF00F8012B70474FF000020429C0F0128010F0030C00F09480CCF1040CBCF1020F18BF00F8012BA8BF20F8022BA1EB0C0100F086B85FEAC17C24BF00F8012B00F8012B48BF00F8012B70477047704770472DE9F0470D4699469246044600F124080168880604D5E06921F01001216000E00120A84201DD471B00E00027A1697A1902EB0900081AA0612078C00602D42046FFF707FE002608E0D4E901211AF806009047206A401C761C20624E45F4DB2078C0060AD52046FFF7F4FD06E0D4E90121302084
:C844C0009047206A401C2062381EA7F10107F4DC07E0D4E9012118F805009047206A401C2062281EA5F10105F3DC2046FFF7EEFD2078000602D50220BDE8F0870120FBE701694A1C02610878704700B58FB0CDE901310021059105497944CDE9031011466846FFF711FE0FB000BD0000E5FFFFFF0A6802F8010B0A6070474FF0000200B5134694469646203922BFA0E80C50A0E80C50B1F12001BFF4F7AF090728BFA0E80C5048BF0CC05DF804EB890028BF40F8042B08BF704748BF20F8022B11F0804F18BF00F8012B70475D
:C8458800754600F029F8AE4605006946534620F00700854618B020B5FFF758FDBDE820404FF000064FF000074FF000084FF0000B21F00701AC46ACE8C009ACE8C009ACE8C009ACE8C0098D4670470446AFF300802046FBF7EDFD000000487047E40B002001491820ABBEFEE726000200704730380A2801D20120704700207047064B10B50021064A1C6801E0491C89B2B4FBF2F343438B42F8D810BD8400002040420F0021F00042A2F16052B2F5801F01F0004328BFD2F17F6C0BD95FEA001C43EAC20242EB507018BF704742
:C846500028BF20F001007047B2F5801FBCBF184670474FEA410C1CF5001F02D2084600F07EBC70B500F0D0FA00000089FFF7F6BF4FF00040A0F580007047000010B591EA030F48BF83F0004300F12683841A71EB030C05D2121943EB0C03001B61EB0C01DFF824E14FEA1154A4EB135C1EEA430F18BF9EEA445F73D023EA0E03DCF1200E21EA045143F4801332D322FA0CFE10EB0E0023FA0CFE41EB0E01CCF1200E03FA0EFE10EB0E0051F10001B1F5801FCCF1200E32D201EB045112FA0EF2BDE8104058BF7047401C38BF91
:C84718005FEA420218BF7047002814BF20F0010041F100014FEA410313F5001F38BF7047A1F1C04100F0BABA012A43EB0302ACF1200CDCF11F0E32BF4FF0000E23FA0CF310EB030041EB0451B4EB115FD0D0A1EB045101F5801149085FEA300001EB04510ED350F1000038BF12FA0EFE08D1BDE81040C9E7401C38BF5FEA4202CAD1C3E7BDE810404FEA410313F5001F38BF7047A1F1C04100F082BA9EEA445F08D011EA5E0FBDE8104004BF01F0004100207047BDE8104070B500F023FA00BF64FBBE3E0000E0FF02494FF06A
:C847E000000000F0C9BB00BF0000F87F2DE9C04130B4DFF8A0C23CEA111418BF3CEA131400F0EC8081EA03051CEA111444EAD57418BF1CEA131500F0C780A4EB05044FF0004545EAC12145EAC32341EA505143EA525304F17F74994204F500344FEAC0204FEAC22208BF904200F09C804FEA13650FF24016765D4FEA134506FB05F7C7F1807706FB07F74FEAD737A7FB03687642C8F58038A7FB06CE38BFA8F1010807FB08E64FF0000EA6FB028CE6FB03CEDCF1000CCEF1004E38BFAEF1010EA6FB0C584FF000074FF000058D
:C848A800E6FB0E87A1FB08C6A0FB07CE16EB0E0645F10005E1FB076515F1E04E7EBFA4F580345FEA46066D4116F1800745F100054FEA17274FEA066647EA0567A6F1DE46B6F1805F4FEA15251FD9384624F0010C05EBC471BCF1FE6F01EB0C1102D8F0BCBDE8008124425CBF01F5801E9EEAC47F02D4F0BCBDE80081244238D4F0BCA1F1C041BDE8004100F0C1B94FEAD22242EA43524FEAD323A7FB02864FEAD02040EA415007FB03661EEA0E0F4FEAD12105FB026658BFA6EB0056B6EB00564FEA520E4EEAC37E18EB0E0EA1
:C849700056EB530EBDD518EB02085E417F1C55F10005B6E74FF480154FF000074FF000064FF00008ADE7F0BC4FF0000001F1C04101F00041BDE8008111EA0C1F0CEA131500D00CE013EA0C1F00F025804FF00000F0BC81EA030101F00041BDE80081F0BCBDE8004181EA030100F06CB9F0BCBDE8004170B500F018F9097EFC3E00F007B881EA03014FF0000001F00041704781EA030100F057B9F0BCBDE800414FF0000021497047FFFDFBF9F7F5F4F2F0EEEDEBE9E8E6E4E3E1E0DEDDDBDAD8D7D5D4D3D1D0CFCDCCCBCAC84B
:C84A3800C7C6C5C4C2C1C0BFBEBDBCBBBAB9B8B7B6B5B4B3B2B1B0AFAEADACABAAA9A8A8A7A6A5A4A3A3A2A1A09F9F9E9D9C9C9B9A9999989797969595949393929191908F8F8E8E8D8C8C8B8B8A8989888887878685858484838382828181800000FF070000F87FB0FA80F310FA03F10AD0C3F11D0303F580634FEA41504FEA035202EBD12170474FF0000070470000DFF848C170B51CEA111E1EBF1CEA13159EEA0C0F95EA0C0F00F06F8081EA030423EA4C134EEAD47E21EA4C1141F4801143F48013AE44A1FB024CA0FB76
:C84B00000365AEF17F7E361955EB0C05A1FB034C4CF10003A0FB021C16EB0C06654153F10003094218BF46F0010613F4007F0BD14FEA03314FEA0530340341EA155140EA16506FF003020AE04FEAC3214FEAC520F40241EA555140EA56506FF0020202EB2E4201EB025585EACE710AD05FEA440C18BF24F0004450F1000041F1000120EAD47040F2FE7C624500D270BDA84214BF4FF080444FF04044002E08BF0024BEF1806FA8BFA1F1C041BDE8704080F282804FF0000001F1C04101F0004170479EEA0C0F0CEA131518BF3A
:C84BC80095EA0C0F06D04FF0000081EA030E0EF0004170BD00F01CF88900013E00F007B800F009B84FEA430C5FEA5C5C08D081EA030100F05BB84FEA410C5FEA5C5CF6D14FF00000014970470000FF070000F87F0EF1020E2EF0030E5EF8046B364205D4012A43EB030515F5001F12D8012841EB010C1CF5001F0CD80ED14FEAD17C15F5001F0CEB4C0C0CF1020C08BF4CEBD37C04E04FF0080C01E04FEAD37C0CEB4C0526FA05F606F00706B6F1040C06D20EEB860CBDE870404CF0010C6047DFE80CF0090B02024FF0004151
:C84C90004FF00000A1F5002170BD19461046012851EB010418BFD4F5001484BF002001F0004170BD0808A0F500114FEA3101704791EA030F10B581F000413FF5E7AC83F0004300F009B8000010B591EA030F48BF83F000433FF5DAAC841A71EB030C07D212198CF0004C43EB0C03001B61EB0C01DFF8A4E14FEA1154A4EB135C1EEA430F18BF9EEA445F00F0B08023EA6E03524221EA0451C3EB6E0338BF5B1EDCF1200E25D322FA0CFE10EB0E0043FA0CFE41EB0E01CCF1200E03FA0EFE10EB0E0051F10001CCF1200E29D40A
:C84D580012FA0EF201EB0451BDE8104058BF7047401C1CBFB2F1004F704700280CBF491C20F00100704712EB020E43EB030218BF4FF0010E4EEA4202ACF1200CDCF11E0E54D943FA0CFE10EB0E0051F1FF31CCF11E0ED5D50EF1010E12FA0EFE404141EB010101EB445C5FEA5C5C10D910EBDE7001EB045138BFBEF1004FBDE8104018BF704700280CBF491C20F00100704730D24FEAD42C11F5001124F400641BD0B1FA81F20B3AA41AA41ED2F12003914030FA03F31943904001EBCC71002C01EB0451BDE81040A8BF7047A9
:C84E200001F1C0414FF0000001F000417047B0FA80F310FA03F100D110BDE41A173C4805C90AE4E701EB045110BD491001EB0451BDE810404FEA300002E04FF0000170474A0008BF0042F8D0B2F5001F28BF704701F000414FF0000070479EEA445F07D011EA5E0FBDE8104004BF002100207047BDE8104070B5FFF7BFFE00BF40DFF63E83F00041104670470000E0FF41000B0ED3F19E0208D950F400034FEA032323FA02F048BF4042704710B500F00AF800BF49922480002070476FF0004282EA200070470EF1020E2EF02A
:C84EE800030E5EF8044B244204D44FEA4102B2F17F4F11D84FEA4003B3F17F4F0CD80ED14FEAD07CB2F17F4F0CEB4C0C0CF1020C08BF4CEBD17C04E04FF0080C01E04FEAD17C0CEB4C0324FA03F404F00704B4F1040C06D20EEB840CBDE810404CF0010C6047DFE80CF0070802024FF00040A0F5800010BD0846420018BFD2F1807288BF00F0004010BDFF2141EAD050C00570470CF00F03092B08BF082000F059800A2B0BD0082B18BF704708BF1CF0400F0AD04FF000004FF0000170471CF0400F18BF4FF0004070471CF00A
:C84FB000100F08D020F0704300F07F4242EAD3014FEA4370704700F0604021F07F4242EA000201F07F4040EA727070474FF0FF0C4CF4E06C1CEA11531CBF9CEA030C9445C2BFDA4201EB02517047002B0DD0BCF1000F0FD0002A01F00041A4BF41F0E04141F07F614FF00000704701F000414FF00000704750EA01334FF09B0C18BF4CF0806C7FF4D3AB70471CF4801F11D01CF4E02F03D06FEACC31490070474FF04050EFF3008222F0704242EA000282F3008870474FF000007047DA003C000000000005000020010000004B
:C850780000000000B9030008DA0010010000000069000020060000000000000000000000DA0001000000000026000020010000000000000000000000DA0002000000000027000020010000000000000000000000DA00030000000000000000200100000000000000A3030008DA0004000000000028000020010000000000000000000000DA003400000000002A000020020000000000000000000000DA003600000000002C000020020000000000000000000000DA003800000000002E000020020000000000000000000000FF
:C8514000DA003A000000000030000020020000000000000000000000DA002000000000000A000020020000000000000009040008DA0022000000000032000020020000000000000000000000DA0024000000000034000020020000000000000000000000DA0026000000000036000020020000000000000000000000DA0028000000000038000020020000000000000000000000DA002E00000000003A000020010000000000000000000000DA007500000000003B000020010000000000000000000000DA0076000000000050
:C85208003C000020010000000000000000000000DA007700000000003D000020010000000000000000000000DA0078000000000040000020040000000000000000000000DA0040010000000018000020040000000000000025040008DA0044000000000044000020040000000000000000000000DA0048000000000048000020020000000000000000000000DA004A00000000000C000020020000000000000000000000DA004C00000000004C000020040000000000000000000000DA005000000000005000002004000000FC
:C852D0000000000000000000DA005400000000001C000020040000000000000000000000DA00400000000000200000200600000000000000EF040008DA00CA000000000008000020020000000000000000000000DA0080000000000054000020020000000000000000000000DA0082000000000056000020020000000000000000000000DA0084000000000058000020020000000000000000000000DA008600000000005A000020020000000000000000000000DA00A200000000005C0000200100000000000000000000002E
:C8539800DA00A300000000005D000020010000000000000000000000DA00A400000000005E000020010000000000000000000000DA00A500000000005F000020010000000000000000000000DA00D300000000005F000020010000000000000000000000DA00C0000000000060000020010000000000000000000000DA00C1000000000001000020010000000000000000000000DA00C2000000000002000020010000000000000049040008DA00D2000000000002000020010000000000000000000000DA00E20000000000B2
:C854600062000020020000000000000000000000DA00FF010000000064000020010000000000000000000000DA00E40000000000CE0000200A0000000000000000000000DA0000010000000065000020040000000000000000000000F000000000000000000000000000000000000000F70A0008FD00000000000000000000000000000000000000290C0008FE00000000000000000000000000000000000000670C0008FB00000000000000000000000000000000000000110D000800002110422063308440A550C660E7705E
:C8552800088129914AA16BB18CC1ADD1CEE1EFF10100002001000004010000080100040001000004010000080008014001000000000000001000000000080140020000000000000010000000000801400400000000000000180000000008014008000000000000000400000000080140100000000000000010000000000801402000000000000000100000000008014040000000000000001000000000080140800000000000000010000000000801400001000000000000100000000008014000020000000000001800000055
:C855F000000801400004000000000000040000000008014000080000000000001000000000080140001000000000000010000000000801400020000000000000100000000008014000400000000000001000000000080140008000000000000010000000000C0140010000000000000010000000000C0140020000000000000010000000000C0140040000000000000010000000000C0140080000000000000010000000000C0140100000000000000010000000000C0140200000000000000010000000000C014040000000F3
:C856B800000000001C000000000C014080000000000000001C000000000C0140000100000000000010000000000C0140000200000000000010000000000C0140000400000000000010000000000C0140000800000000000010000000000C0140001000000000000010000000000C0140002000000000000010000000000C0140004000000000000010000000000C014000800000000000001000000000100140010000000000000010000000001001400200000000000000100000000010014004000000000000001000000014
:C857800000100140080000000000000010000000001001401000000000000000100000000010014020000000000000001000000000100140400000000000000010000000001001408000000000000000100000000010014000010000000000001000000000100140000200000000000010000000001001400004000000000000100000000010014000080000000000001000000000100140001000000000000010000000001001400020000000000000100000000010014000400000000000001000000000100140008000008D
:C85848000000000010000000001401400100000000000000100000000014014002000000000000001000000000140140040000000000000010000000001401400800000000000000100000000014014010000000000000001000000000140140200000000000000010000000001401404000000000000000100000000014014080000000000000001000000000140140000100000000000010000000001401400002000000000000100000000014014000040000000000001000000000140140000800000000000010000000BE
:C85910000014014000100000000000001000000000140140002000000000000010000000001401400040000000000000100000000014014000800000000000001000000000180140010000000000000010000000001801400200000000000000100000000018014004000000000000001000000000180140080000000000000010000000001801401000000000000000100000000018014020000000000000001000000000180140400000000000000010000000001801408000000000000000100000000018014000010000AA
:C859D800000000001000000000180140000200000000000010000000001801400004000000000000100000000018014000080000000000001000000000180140001000000000000010000000001801400020000000000000100000000018014000400000000000001000000000180140008000000000000010000000303132333435363738394142434445464030580030313233343536373839616263646566403078000400000800000000000000020001000010000000FC5F000800000020C40000005C010008C060000873
:C85AA000C40000208411000078010008000000000000000000000000000000000000000000000000000000000000000000000000000000000000000000000000000000000000000000000000000000000000000000000000000000000000000000000000000000000000000000000000000000000000000000000000000000000000000000000000000000000000000000000000000000000000000000000000000000000000000000000000000000000000000000000000000000000000000000000000000000000000000044
:C85B6800000000000000000000000000000000000000000000000000000000000000000000000000000000000000000000000000000000000000000000000000000000000000000000000000000000000000000000000000000000000000000000000000000000000000000000000000000000000000000000000000000000000000000000000000000000000000000000000000000000000000000000000000000000000000000000000000000000000000000000000000000000000000000000000000000000000000000075
:C85C30000000000000000000000000000000000000000000000000000000000000000000000000000000000000000000000000000000000000000000000000000000000000000000000000000000000000000000000000000000000000000000000000000000000000000000000000000000000000000000000000000000000000000000000000000000000000000000000000000000000000000000000000000000000000000000000000000000000000000000000000000000000000000000000000000000000000000000AC
:C85CF8000000000000000000000000000000000000000000000000000000000000000000000000000000000000000000000000000000000000000000000000000000000000000000000000000000000000000000000000000000000000000000000000000000000000000000000000000000000000000000000000000000000000000000000000000000000000000000000000000000000000000000000000000000000000000000000000000000000000000000000000000000000000000000000000000000000000000000E4
:C85DC00000000000000000000000000000000000000000000000000000000000000000000000000000000000000000000000000000000000000000000000000000000000000000000000000000000000000000000000000000000000000000000000000000000000000000000000000000000000000000000000000000000000000000000000000000000000000000000000000000000000000000000000000000000000000000000000000000000000000000000000000000000000000000000000000000000000000000001B
:C85E8800000000000000000000000000000000000000000000000000000000000000000000000000000000000000000000000000000000000000000000000000000000000000000000000000000000000000000000000000000000000000000000000000000000000000000000000000000000000000000000000000000000000000000000000000000000000000000000000000000000000000000000000000000000000000000000000000000000000000000000000000000000000000000000000000000000000000000052
:C85F50000000000000000000000000000000000000000000000000000000000000000000000000000000000000000000000000000000000000000000000000000000000000000000000000000000000000000000000000000000000000000000000000000000000000000000000000000000000000000000000000000000000000000000000000000000000000000000000000000000000000000000000000000000000011000000620000005000000000000000000000000000000000000000000000000000000000000000C6
:C8601800000000000000000000000000000000000000000000000000000000000000000000000000000000000000000000000000000000000000000000000000000000000000000000000000000000000000000000000000000000000000000000000000000000000000000000127A000000000000000000010203040607080900000000000000000000000000000000000000000000000002040608000000000102030401020304060708090000000000000000000000000000000000000000000000000000000000000000C6
:C860E0000000000000000000000000000000000000000000000000000000000000000000000000000000000000000000000000000000000000000000000000000000000000000000000000000000000000000000000000000000000000000000000000000000000000000000000000000000000000000000000000000000000000000000000000000000000000000000000000000000000000000000000000000000000000000000000000000000000000000000000000000000000000000000000000000000000000000000F8
:C861A80000000000000000000000000000000000000000000000000000000000000000000000000000000000000000000000000000000000000000000000000000000000000000000000000000000000000000000000000000000000000000000000000000000000000000000000000000000000000000000000000000000000000000000000000000000000000000000000000000000000000000000000000000000000000000000000000000000000000000000000000000000000000000000000000000000000000000002F
:C8627000000000000000000000000000000000000000000000000000000000000000000000000000000000000000000000000000000000000000000000000000000000000000000000000000000000000000000000000000000000000000000000000000000000000000000000000000000000000000000000000000000000000000000000000000000000000000000000000000000000000000000000000000000000000000000000000000000000000000000000000000000000000000000000000000000000000000000066
:C863380000000000000000000000000000000000000000000000000000000000000000000000000000000000000000000000000000000000000000000000000000000000000000000000000000000000000000000000000000000000000000000000000000000000000000000000000000000000000000000000000000000000000000000000000000000000000000000000000000000000000000000000000000000000000000000000000000000000000000000000000000000000000000000000000000000000000000009D
:C86400000000000000000000000000000000000000000000000000000000000000000000000000000000000000000000000000000000000000000000000000000000000000000000000000000000000000000000000000000000000000000000000000000000000000000000000000000000000000000000000000000000000000000000000000000000000000000000000000000000000000000000000000000000000000000000000000000000000000000000000000000000000000000000000000000000000000000000D4
:C864C80000000000000000000000000000000000000000000000000000000000000000000000000000000000000000000000000000000000000000000000000000000000000000000000000000000000000000000000000000000000000000000000000000000000000000000000000000000000000000000000000000000000000000000000000000000000000000000000000000000000000000000000000000000000000000000000000000000000000000000000000000000000000000000000000000000000000000000C
:C8659000000000000000000000000000000000000000000000000000000000000000000000000000000000000000000000000000000000000000000000000000000000000000000000000000000000000000000000000000000000000000000000000000000000000000000000000000000000000000000000000000000000000000000000000000000000000000000000000000000000000000000000000000000000000000000000000000000000000000000000000000000000000000000000000000000000000000000043
:C866580000000000000000000000000000000000000000000000000000000000000000000000000000000000000000000000000000000000000000000000000000000000000000000000000000000000000000000000000000000000000000000000000000000000000000000000000000000000000000000000000000000000000000000000000000000000000000000000000000000000000000000000000000000000000000000000000000000000000000000000000000000000000000000000000000000000000000007A
:C86720000000000000000000000000000000000000000000000000000000000000000000000000000000000000000000000000000000000000000000000000000000000000000000000000000000000000000000000000000000000000000000000000000000000000000000000000000000000000000000000000000000000000000000000000000000000000000000000000000000000000000000000000000000000000000000000000000000000000000000000000000000000000000000000000000000000000000000B1
:C867E8000000000000000000000000000000000000000000000000000000000000000000000000000000000000000000000000000000000000000000000000000000000000000000000000000000000000000000000000000000000000000000000000000000000000000000000000000000000000000000000000000000000000000000000000000000000000000000000000000000000000000000000000000000000000000000000000000000000000000000000000000000000000000000000000000000000000000000E9
:C868B000000000000000000000000000000000000000000000000000000000000000000000000000000000000000000000000000000000000000000000000000000000000000000000000000000000000000000000000000000000000000000000000000000000000000000000000000000000000000000000000000000000000000000000000000000000000000000000000000000000000000000000000000000000000000000000000000000000000000000000000000000000000000000000000000000000000000000020
:C8697800000000000000000000000000000000000000000000000000000000000000000000000000000000000000000000000000000000000000000000000000000000000000000000000000000000000000000000000000000000000000000000000000000000000000000000000000000000000000000000000000000000000000000000000000000000000000000000000000000000000000000000000000000000000000000000000000000000000000000000000000000000000000000000000000000000000000000057
:C86A400000000000000000000000000000000000000000000000000000000000000000000000000000000000000000000000000000000000000000000000000000000000000000000000000000000000000000000000000000000000000000000000000000000000000000000000000000000000000000000000000000000000000000000000000000000000000000000000000000000000000000000000000000000000000000000000000000000000000000000000000000000000000000000000000000000000000000008E
:C86B08000000000000000000000000000000000000000000000000000000000000000000000000000000000000000000000000000000000000000000000000000000000000000000000000000000000000000000000000000000000000000000000000000000000000000000000000000000000000000000000000000000000000000000000000000000000000000000000000000000000000000000000000000000000000000000000000000000000000000000000000000000000000000000000000000000000000000000C5
:C86BD0000000000000000000000000000000000000000000000000000000000000000000000000000000000000000000000000000000000000000000000000000000000000000000000000000000000000000000000000000000000000000000000000000000000000000000000000000000000000000000000000000000000000000000000000000000000000000000000000000000000000000000000000000000000000000000000000000000000000000000000000000000000000000000000000000000000000000000FD
:C86C9800000000000000000000000000000000000000000000000000000000000000000000000000000000000000000000000000000000000000000000000000000000000000000000000000000000000000000000000000000000000000000000000000000000000000000000000000000000000000000000000000000000000000000000000000000000000000000000000000000000000000000000000000000000000000000000000000000000000000000000000000000000000000000000000000000000000000000034
:C86D600000000000000000000000000000000000000000000000000000000000000000000000000000000000000000000000000000000000000000000000000000000000000000000000000000000000000000000000000000000000000000000000000000000000000000000000000000000000000000000000000000000000000000000000000000000000000000000000000000000000000000000000000000000000000000000000000000000000000000000000000000000000000000000000000000000000000000006B
:C86E28000000000000000000000000000000000000000000000000000000000000000000000000000000000000000000000000000000000000000000000000000000000000000000000000000000000000000000000000000000000000000000000000000000000000000000000000000000000000000000000000000000000000000000000000000000000000000000000000000000000000000000000000000000000000000000000000000000000000000000000000000000000000000000000000000000000000000000A2
:C86EF0000000000000000000000000000000000000000000000000000000000000000000000000000000000000000000000000000000000000000000000000000000000000000000000000000000000000000000000000000000000000000000000000000000000000000000000000000000000000000000000000000000000000000000000000000000000000000000000000000000000000000000000000000000000000000000000000000000000000000000000000000000000000000000000000000000000000000000DA
:C86FB800000000000000000000000000000000000000000000000000000000000000000000000000000000000000000000000000000000000000000000000000000000000000000000000000FD4A116801F03801014311607047FA490A6822F008020A600A6802430A607047F5490A6822F010020A600A6802430A607047F148F1494160F14941607047EE48EE494160EE4941607047EB48016941F0800101617047E848016941F0800101617047E5490420CA68D20701D001207047CA68520701D502207047C968C906FBD572
:C87080000320704700B50346FFF7EBFF02E0FFF7E8FF5B1E012803D0002B00D1052000BD002BF4D1FAE770B505464FF430263046FFF7E8FF042811D1CF4C206940F0020020616561206940F0400020613046FFF7D9FF216941F6FD721140216170BD30B54FF430252846FFF7CDFF042810D1C24C206940F004002061206940F0400020612846FFF7BFFF216941F6FB721140216130BD00B50346FFF7A4FF02E0FFF7A1FF5B1E012803D0002B00D1052000BD002BF4D1FAE730B54FF430252846FFF7E9FF042810D1AC4C20691E
:C871480040F004002061206940F0400020612846FFF7DBFF216941F6FB721140216130BDA3490020C969890700D50120704770B5A525FFF7F5FF00B100254FF430263046FFF77CFF042827D1994C9A48A0609A48A060206940F020002061206940F0400020613046FFF76AFF41F6EF7604280ED1206941F6DF7108402061206940F0100020618E4805804FF40050FFF757FF052802D021693140216170BDF8B5064600204FF4005C00900D466046FFF747FF042816D17F4C206940F00100206135806046FFF73CFF41F6FE7789
:C8721000042806D1B61C280C009630806046FFF731FF216939402161F8BDF0B506464FF400570D463846FFF725FF04280CD16E4C206940F00100206135803846FFF71AFF2169BA1E11402161F0BDF0B506464FF400570D463846FFF70DFF042813D1624C6248A0606248A060206940F01000206135803846FFF7FEFE052804D0216941F6EF7211402161F0BD2DE9F041C043C7B2C0F30726C0F30745040E4FF400584046FFF7E8FE04283CD1DFF83CC14F49CCF808104F49CCF80810DCF8101041F01001CCF81010FF2F07D082
:C872D8004A48083007804046FFF7D0FE04281BD1FF2E07D045480A3006804046FFF7C6FE042811D1FF2D07D040480C3005804046FFF7BCFE042807D1FF2C07D03B480E3004804046FFF7B2FE052806D0DCF8101041F6EF721140CCF81010BDE8F08170B505464FF430263046FFF7A0FE042818D12B4C2C48A0602C48A060206940F020002061206940F0400020613046FFF78EFE41F6DF71042805D0052802D022690A40226170BD206908402061206940F0100020611E480DB1002100E0A52101803046FFF774FE0528ECD09B
:C873A000216941F6EF721140216170BDF0B5124C0746124816460D46A0601148A0604FF4005C6046FFF75EFE042814D1206940F01000206135430B493D43891C45F0F80008806046FFF74EFE052804D0216941F6EF7211402161F0BD0020024023016745AB89EFCD00F8FF1F1C48C069800870471A48006A7047194900200968890600D501207047154A0029116901D0014300E081431161704701460020104A012903D0D2680A4203D17047D169C907FBD0012070470A49C860704708490420CA68D20701D001207047CA688B
:C8746800520701D502207047C968C906FBD5032070470000002002400D49086070470C49486070470A498860704709494AF6AA200860704706494CF6CC4008607047044A01460020D2680A4200D00120704700000030004072B6FFF7B8FD3420FFF7C5FF00244FF0006505EB8420FFF7E8FD04281AD1FFF7DAFF641C1C2CF4D30B4C0C4E28462168FFF779FE04280DD120682968884209D1FFF7C9FF241D2D1DB442EFD3FFF79FFDFBF747F8FEE700000080000800F0000811
:00000001FF
