:020000040800F2
:1000000090150020C9310008110A0008130A0008E1
:10001000150A0008170A0008190A00080000000065
:100020000000000000000000000000001B0A0008A3
:100030001D0A0008000000001F0A0008210A00082D
:10004000E3310008E3310008E3310008E331000840
:10005000E3310008E3310008E3310008E331000830
:10006000E3310008E3310008E3310008E331000820
:10007000E3310008E3310008E3310008E331000810
:10008000E3310008E3310008E3310008000000001C
:10009000000000000000000000000000E331000844
:1000A000E3310008E3310008E3310008E3310008E0
:1000B000E3310008E3310008E3310008590F00087C
:1000C000E33100084F100008E3310008E331000875
:1000D000E3310008A513000837140008E3310008D5
:1000E000E3310008E3310008E331000800000000BC
:1000F0000000000000000000000000000000000000
:1001000000000000000000000000000000000000EF
:100110000000000000000000E3310008E3310008A7
:1001200000F002F800F03AF80AA090E8000C8244CF
:100130008344AAF10107DA4501D100F02FF8AFF2AC
:10014000090EBAE80F0013F0010F18BFFB1A43F0B5
:1001500001031847543F0000743F0000103A24BFC9
:1001600078C878C1FAD8520724BF30C830C144BF1C
:1001700004680C607047000000230024002500265E
:10018000103A28BF78C1FBD8520728BF30C148BFFA
:100190000B6070471FB51FBD10B510BD03F0F7F819
:1001A0001146FFF7F7FF00F010F803F015F903B45C
:1001B000FFF7F2FF03BC03F019F9000010B507F0D8
:1001C00068F9002010BD0020704710B500F0C8FB92
:1001D0007D2001F0AEFF08B102F0C4F8012002F06A
:1001E00036F8612001F0A5FF0028FAD045F25550FD
:1001F00007F046F9032007F046F94FF49C7007F02A
:1002000045F907F046F907F049F900F0FAFA01213B
:10021000104C0020A0474FF4C871204600F020FB8E
:1002200000F0F8F90C490D4800F01AFB49F640417E
:100230000B4800F015FB00210A4800F011FB0021DB
:10024000094800F00DFB00F04FFB00F063FB0020BD
:1002500010BD000001500008803801001F08000890
:10026000C70100084F060008BD010008F0B589B0BD
:100270000C4605462022FA49684603F00AF8002099
:100280006F464FF6FF7612E015F8011B020B06EAE7
:10029000001382EA111037F810005840020B06EAEA
:1002A000001301F00F00504037F810005840641E52
:1002B000A4B2E9D209B0F0BDF0B5ADF5007D0346BA
:1002C00000206D4603E00C5C2C54401C80B2904230
:1002D000F9D37D2613B1012B22D034E00020034650
:1002E0001BE02C5C7E2C02D07D2C0BD010E078B172
:1002F000571EBB420CD0CE545B1C521C9BB292B218
:100300005E2405E0CE545B1C521C9BB292B25D246D
:10031000401CCC545B1C80B29BB29342E1D312E0F0
:10032000002003460DE02F5C7D2F05D12C1864784A
:100330005E2C0CD05D2C0DD0CF54401C5B1C80B2C9
:100340009BB29342EFD30DF5007D1046F0BD7E24A5
:10035000CC5400E0CE54401C521E80B292B2ECE766
:1003600038B505460022694600F0D0FF00987E248B
:10037000092104704170BB4906220978817063210C
:10038000C170002101714271B74A12888271120A4C
:10039000C271017241728172C1720B21401CFFF760
:1003A00065FF00990F220873000A48738C730020C0
:1003B000FFF782FF0146284601F085F838BD38B5C1
:1003C00005460022694600F0A1FF00987E2409211D
:1003D00004704170A3490622097881706021C170C0
:1003E0000021017142718171C1710172417281728A
:1003F000C1720B21401CFFF739FF00990F220873CF
:10040000000A48738C730020FFF756FF0146284608
:1004100001F059F838BD2DE9F04F8BB0834601AAA1
:10042000694600F073FFBDF80420062A17D9009929
:1004300008787E2813D1881810F8010C7E280ED178
:100440000C460120FFF738FF864AADF80400A1787A
:100450001278914206D029B1584600F022FF0BB025
:10046000BDE8F08F0027277161780122B9B1092911
:1004700003D0062913D0227198E0009A1118001FAA
:1004800011F8033D497803EB01218DB281B2501C74
:10049000FFF7ECFEA84202D00220207186E06079CE
:1004A000BDF8041009304FF0060A884202D084F8E3
:1004B00004A07BE0A01D0890E078099060790A9084
:1004C00009A8029008A803900AA80490E078DFF831
:1004D0009C9107266649674A634BF12811D006DCD8
:1004E00061280ED0622811D0632804D12AE0F228B6
:1004F00011D0F32840D0604A032102A89047C0B22F
:1005000048E0A9F8007001F0CBF843E06179A01D44
:1005100000F0B6F83EE094F80580A51D4146284657
:1005200000F0F2FF012835D1B9F8002002EB0800F5
:10053000A9F800002870000A6870AF70EF702F7182
:100540006F7129E008781178E588884223D14849FD
:100550004A48091F0078097800F0F00001F0F00126
:10056000884218D11888A84216D000F017F9A8427E
:1005700011D101F0D3F80DE008781178E5888842B0
:1005800009D11888A84207D000F008F9A84202D182
:1005900001F082F800B92671E078622801D0F228D3
:1005A00004D184F805A00F20ADF80400BDF80400C4
:1005B000001F81B20098401CFFF758FEBDF80430C0
:1005C00000997E220B4403F8012CBDF80430020A86
:1005D0000B4403F8022CBDF804200A4402F8030C73
:1005E000BDF804200020FFF767FEADF804004FF0CF
:1005F000804405A9204600F0C7FBC82205A9204673
:1006000000F0C8FB0128F8D1BDF80410584600F0EE
:100610005AFF24E710B5002000F034FE012000F05E
:1006200031FE00F0D8F8012805D10020FFF7C7FE01
:100630000120FFF7C4FE00F0BEF8012806D100201B
:10064000FFF78EFEBDE81040012089E610BD10B511
:100650000020FFF7E0FE0120FFF7DDFE002010BDC7
:10066000603E00080200002004000020000000207E
:10067000F8DF0008F85F000801500008F45F000888
:1006800070B5114E04460D4630880144B1F5E04F77
:1006900002D9C0F5E04085B23DB12946204600F0C0
:1006A00033FF0146012802D00CE0002070BD3088E5
:1006B000284430802070000A60700020A070E07034
:1006C00020716071084670BD00000020F0B55A49E5
:1006D00001245A4A5A4D2346084617680668BE4206
:1006E00000D00024001D121DA842F6D355480A6808
:1006F0000668B24200D00023001D091DA942F6D3AE
:10070000012C03D0012B01D00020F0BD0120F0BD51
:1007100010B54A484C4A0168491C02D1001D90425C
:10072000F9D3904202D100F0F1FF0BE04748407846
:10073000122801D0012010BDFFF7C8FF0028FAD110
:1007400000F0E8FF00F06DF8414A00214FF0006032
:1007500010F8013B9042194489B2F9D3A1F5004148
:1007600088B270473A4B10B5344A0020194611F848
:10077000014B9142204480B2F9D3364A12F8011B52
:100780009A42084480B2F9D3A0F5004080B210BD6F
:100790004FF4E0414FF00060FFF768BD4FF4E041D7
:1007A0002B48FFF763BD2949122001224870491CDC
:1007B000FF2000F065BA254810B5417800241229C1
:1007C00007D1112141700124411C2246FF2000F075
:1007D00057FA204610BD38B51C480478012C07D1C3
:1007E00000218DF8001001226946FE2000F048FA31
:1007F000204638BD1549012002460870FE2000F051
:100800003FBA124910B50122491CFF2000F06CFAD2
:100810000122BDE810400D49FE2000F065BA00201D
:1008200070470D4801680D4A01F4E0611143016011
:10083000BFF3408FFEE700000050000800F0000802
:100840000060000800D00008000001080600002039
:1008500000800008007000080CED00E00400FA05BC
:1008600030B43D4C23780A2B11D23C4A03EB83056C
:1008700002EB85021569002D09D1C2E903105B1C4A
:10088000237030BC11464FF0804000F07DBA30BC80
:100890007047F0B5DFF8C0C09CF80010491E092968
:1008A00021D80021DFF8B4E019E001EB81020EEB62
:1008B00082021469844210D103EB83040EEB84049A
:1008C00054F8085C143CD56094E8E00082E8E0004D
:1008D00024695B1E14618CF80030491CC9B29CF875
:1008E00000309942E1D3F0BD2DE9F04100241B4DC9
:1008F0004FF08047184E08E004EB840005EB8001C0
:10090000384600F041FA641CE4B230788442F3D3F4
:10091000BDE8F081DFF844800F4E4FF0804700259E
:1009200015E005EB850108EB8104206968B12146DB
:100930003846E26800F02EFA38B12146384600F019
:1009400023FA00212269084690476D1CEDB23078E9
:100950008542E4D2E5E70000080000202C040020D6
:10096000F8B5002001F042FC0121264801F0D5FC39
:10097000012144F21D2001F0C7FC4FF4E06000F0BB
:10098000EFFE25208DF8000001248DF802408DF83F
:100990000340684600F0E9FE26208DF800008DF83F
:1009A00002408DF80340684600F0DFFE0121164842
:1009B00001F0A8F90024154E022706EB041569463C
:1009C000A888ADF800008DF80270287B8DF8030030
:1009D000286801F00CF9A86810B1012101F092F922
:1009E000641C212CE9D300F005FA002000F0A4FCDF
:1009F000012000F0A1FC00F0A5FBBDE8F84000F0EC
:100A0000A5B900000100220000023000983E000855
:100A10007047FEE7FEE7FEE7FEE770477047704766
:100A2000704700002748016841F0010101604168FA
:100A3000254A114041600168244A11400160016863
:100A400021F480210160416821F4FE0141604FF4EE
:100A50001F0181600021C1621D49C0030860704709
:100A600030B5184A50681B4B1B4910F00C0004D0DD
:100A70001A4C042803D0082803D00B6017E00C6040
:100A800015E05068536800F470104FF0020513F43D
:100A9000803F05EB904007D0D36A03F00F035B1C47
:100AA000B4FBF3F34343E8E70D4B58430860506849
:100AB000094AC0F30310121D105C0A68C2400A60A4
:100AC00030BD0000001002400000FFF8FFFFF6FEFE
:100AD00008ED00E000127A000C000020001BB700B7
:100AE00000093D0058B101280BD002280BD0032883
:100AF0000BD14F48012A00D0002201F0E6B84D4842
:100B0000F8E74D48F6E74D48F4E7704710B504465E
:100B10004A788088E188DAB1012A0ED0022AC0B270
:100B20004FF0000205D0FFF7DDFF61882078012239
:100B300010E0FFF7D7FF618820780022C0B2FFF7EE
:100B4000D1FF782002F05AFC61882078012209E068
:100B5000C0B20022FFF7C6FF782002F04FFC618888
:100B600020780022BDE81040BCE72DE9F041904616
:100B70000E460446FFF7CAFF002526E0327870686B
:100B8000012A05D0A84018EA000F03D0012702E08F
:100B9000E840F8E70027782002F030FC6189207AED
:100BA0003A46FFF79FFF782002F028FCE188207981
:100BB0000122FFF797FF782002F020FCE1882079DE
:100BC0000022FFF78FFF6D1CEDB2B078A842D5D898
:100BD000F02002F013FC3146204600F003F801201B
:100BE000BDE8F08110B504464A7800886188AAB152
:100BF000012A09D0022A02D0C0B2012201E0C0B20B
:100C00000022BDE810406DE7C0B20022FFF76AFF86
:100C1000282002F0F3FB61882078EDE7C0B20122C2
:100C2000FFF760FF282002F0E9FB61882078E6E703
:100C30000014014000080140000C01400010014078
:100C40001CB506228DF8022001228DF8002000221A
:100C50008DF8012020220192084A824202D00C32F3
:100C6000824205D1A1F10E020A2A01D8491CC9B25B
:100C70000A466946FFF779FF1CBD0000983E000850
:100C80002DE9FE4316460F46804600244FF47A793C
:100C90001EE008EB0400010A8DF808108DF8090029
:100CA00000F03F00C0F14005301BA84200D20546CD
:100CB000E9B23819CDE90001022302AAA0211248A5
:100CC00000F038FA0028484609D002F097FB2C447F
:100CD000B442DED3B44205D10120BDE8FE8302F068
:100CE0008DFBF7E70020F8E70EB5030A8DF8083012
:100CF0008DF80900D0B2CDE90010022302AAA0218C
:100D0000014800F0FEF90EBD0054004000F0CCB8E0
:100D10001FB500208DF80C00022102A8CDE90001CA
:100D2000012303AA9021084800F0EBF99DF8080080
:100D3000000201B29DF8090004B00843C11700EB9E
:100D40005160C01110BD0000005400403EB54FF688
:100D5000FF70ADF80400264849F640414FF080444A
:100D60000068B0FBF1F0401EADF800000020ADF8C7
:100D70000600ADF802006946204601F0B1FB0121F2
:100D8000204601F055FE3EBD10B50C4602F06BF852
:100D9000A06010BD70B515460C4602F064F82189BC
:100DA000401A80B2B5F5803F05DAA84201DB012088
:100DB00070BD002070BD61684FF6FF726FF30F01C8
:100DC00061602678002346B190420DD2A0F57F42A3
:100DD000FE3A00D12370014305E0904204D1012086
:100DE000207001F580316160A942E2D36360DEE7E3
:100DF0000C00002010B586B000214FF46020CDE932
:100E000002018DF8041001204D4C00918DF8051061
:100E10008DF810006946204600F016FD012120469D
:100E200000F03AFD204600F054FD204600F056FD4B
:100E30000028FAD1204600F058FD204600F05AFD67
:100E40000028FAD106B010BD2DE9F0410F004FF097
:100E5000000510D0DFF8E880014602230122444655
:100E6000404600F071FD0121204600F04AFD0024BB
:100E70004FF4FA6606E02846BDE8F081641CA4B28F
:100E8000B44205D20221404600F032FE0028F5D0DF
:100E9000B44204D0404600F09BFD3880012500217B
:100EA000404600F02EFDE6E770B5254E07230122EF
:100EB0001021304600F048FD012000F00DFE012118
:100EC000304600F01EFD00244FF4FA6503E0641C78
:100ED000A4B2AC4205D20221304600F009FE00283F
:100EE000F5D0AC421DD0304600F072FD02F0D2FCCD
:100EF0004FF06632134B02F0E1FC6FF00B0202F090
:100F000069FF114A114B02F0D7FD0022104B02F08D
:100F100069FB00220F4B02F0B5FA02F081FA044699
:100F200000E000240021304600F0EBFC002000F03F
:100F3000D3FD204602F0B6FE400000B270BD0000B6
:100F40000024014066660A408FC2F5285C8FF63F98
:100F500000CCB04000003940F8B5BE4D284601F045
:100F60007AF8BD4F0022C11BBC4EBD4C4FEA77330F
:100F70000090B8422CD008DC102834D0B0F5806F37
:100F80005FD0B0F1021F08D120E04039B1F58021D7
:100F90003FD002293CD004293BD0228062801946F0
:100FA000284601F077F80021284600F09DFF3146E1
:100FB000284601F081F84FF00121284601F07CF825
:100FC000A849284601F078F8A7493BE02280F8BDFF
:100FD000284600F0C3FF2188A44BC1F30802491C36
:100FE00098542180F8BD1946284601F053F8002195
:100FF000284600F079FFE568002DF3D0218801B084
:10100000AC46BDE8F040964B98481B1D1A1D604742
:101010006280A1680029E5D06088095C401C60807E
:10102000284600F099FF92490A220020914B096856
:1010300001E0401C80B2B1FBF3F454438442F8D881
:10104000F8BD31462846BDE8F84001F035B8704794
:101050002DE9FF5F4FF0000BDDE90E97DFF818A2D6
:101060001E4690465D460121009800F033FF8349FB
:10107000009800F087F8D8B3DDE90001002200F005
:1010800070FF7D490098891C00F07CF880B3002433
:101090000BE018F80410009800F05EFF514600982D
:1010A00000F070F818B1641CE4B2B442F1D3B44259
:1010B0001FD100240BE019F80410009800F04CFF39
:1010C0005146009800F05EF818B1641CE4B2BC42CE
:1010D000F1D3BC420DD168490098091D00F052F8C7
:1010E00030B10121009800F0FFFE4FF0010B04E049
:1010F000FFE76D1CEDB2032DB5D3584604B0BDE833
:10110000F09F2DE9FC4107460020DDE908540090DE
:1011100001900E463846FFF79BFF012807D1234672
:101120002A463146384600F046F8012800D0002013
:10113000BDE8FC817CB5DDE90645CDE90045FFF75A
:1011400087FF7CBD1FB5434C204600F02BFE0021DD
:10115000ADF804104BF6FF71ADF80610211508012B
:10116000ADF80C004648ADF80A1000900121204669
:1011700000F092FE6946204600F027FE1FBD384869
:10118000C16070472DE9F0410E46074600244FF438
:101190007A7503E0641CA4B2AC4205D231463846ED
:1011A00000F04DFF0028F5D0AC4202D10020BDE890
:1011B000F0810120FBE72DE9FF5F4FF00009DFF828
:1011C000BCB01D4690464E460121009800F082FEBC
:1011D00059460098FFF7D6FF80B3DDE900010122F0
:1011E00000F0BFFE25490098491CFFF7CBFF28B34C
:1011F000DFF888A000246F1E0AF13F0A17E0012DD6
:1012000001D0BC4207D10021009800F077FE0121F7
:10121000009800F069FE51460098FFF7B3FF40B117
:10122000009800F09BFE08F80400641CE4B2AC4295
:10123000E5D3AC4203D14FF0010904E0FFE7761C8F
:10124000F6B2032EC0D30121009800F057FE4846A5
:1012500054E7000000540040400002000004000178
:10126000200000200008000100100001F40400200C
:101270000C00002040420F00800007000100030026
:10128000A08601009C499D4A01EB402100EB4000F3
:1012900042F8201002EB8000002101818180C18092
:1012A000704700EB40029548002100EB820001816D
:1012B0008180C180704710B5904C00EB400204EB78
:1012C000820054F822208388D1548188491CC1F3BC
:1012D000080181800189491CC1F30801018110BD09
:1012E00030B5864D00EB400305EB8300018959B111
:1012F000C288D4B2521CC2F30802C280491E0181C6
:1013000055F82300204430BD002030BD10B57B4B84
:1013100000EB400011B153F820400C60002A03D0CC
:1013200003EB80000089108010BD744900EB400081
:1013300001EB8000028170477FB580B301282DD179
:101340006F4C4FF4165000900020ADF80400ADF83B
:101350000600ADF80800ADF80C000C20ADF80A004E
:101360006946204601F0CCFD40F22555294620462D
:1013700001F019FF40F226663146204601F013FFC6
:1013800001222946204601F038FE0122314620463E
:1013900001F033FE0121204601F025FE7FBDFFE76D
:1013A000584CCEE738B5574D40F2266421462846C2
:1013B00001F0DAFE01280ED040F2255421462846DD
:1013C00001F0D2FE012816D00020FFF7B5FFBDE8DE
:1013D0003840002065E72146284601F0E4FE002061
:1013E000FFF77EFF040005D02178284601F051FE6A
:1013F0000020207038BD2146284601F0D4FEC822C6
:101400003D49D40618392046FFF7C4FC012802D113
:101410000020FFF746FF384920461839FFF7B4FC93
:10142000284601F03AFE8DF800009DF80010BDE856
:10143000384000203FE738B5314D40F22664214660
:10144000284601F091FE01280ED040F22554214695
:10145000284601F089FE012816D00120FFF76CFF15
:10146000BDE8384001201CE72146284601F09BFEDC
:101470000120FFF735FF040005D02178284601F050
:1014800008FE0020207038BD2146284601F08BFE62
:10149000C8221949D4060C392046FFF77BFC0128E5
:1014A00001D1FFF7FEFE144920460C39FFF76CFC12
:1014B000284601F0F2FD8DF800009DF80010BDE80F
:1014C00038400120F7E610B5044600EB44020B4813
:1014D00000EB820001810021C1802046FFF700FF60
:1014E000002808D0017824B10548BDE8104001F07B
:1014F000D0BD0448F9E710BD0C0700200C0B0020FC
:1015000000440040003801402DE9F05F0746DFF855
:101510003482A1F57F400D464FF00009FE3822D0FD
:10152000894CA5F57F40FF3822D0002F66D0D8F82F
:10153000049000208B464FF40042A84261D2D8F8B4
:10154000041091425DD8C1F3090141443B5C0B7228
:10155000D8F8041000F10100491CC8F804108905EE
:10156000EBD1834651E088F80090C8F8049091E0F0
:1015700005F05FFD342005F06CFF98F8000004EBE7
:10158000802005F090FD042866D198F800102746C9
:10159000002504EB81240DE008EB05062046B16828
:1015A00005F01FFE042857D1B0682168884253D146
:1015B000241D2D1DB8F80400C0F30900A842EBD883
:1015C000D8F80410614ECD190CE00021204605F03A
:1015D00008FE042840D108EB050021688068884295
:1015E0003AD12D1DB542F0D305F02FFD88F80090BB
:1015F000C8F80490FFF7D7F805F060FF0020BDE8B9
:10160000F09FB8F80400800544D105F012FD3420A5
:1016100005F01FFF98F80010264604EB812005F026
:1016200042FD042802D0C8F8049015E098F8001094
:10163000002406EB8126C2460AEB04083046D8F89F
:10164000081005F0CEFD042804D1D8F80800316850
:10165000884204D0CAF8049005F0F7FCCEE7241DB8
:10166000361DB4F5806FE7D305F0EFFC9AF8000063
:101670005146401C8AF80000584609E08B883A5CC5
:10168000C3F309030B441A724A68521C401C4A6097
:10169000A842F3D30120B2E74FF6FF71002033E7F1
:1016A0004FF6FE7100202FE72DE9F04116460F4658
:1016B000044672B605F0BDFC342005F0CAFE0025D4
:1016C00008E007EB852005F0EEFC04281DD105F0AD
:1016D000E0FE6D1CB542F4D33D4604EB86260DE0DA
:1016E0002846216805F07DFD04280ED12068296870
:1016F00088420AD105F0CDFE241D2D1DA642EFD84B
:1017000005F0A3FC0120BDE8F081FEE704220F49AB
:101710000F48C9E704220E490C48C5E7FFF743F814
:1017200004220B490B48FFF7BFFF00F000F80A48FE
:1017300001680A4A01F4E06111430160BFF3408F80
:10174000FEE70000240B00200080000800F00008E5
:101750000050000800D000080CED00E00400FA057D
:101760002849084328490860704730B50F23C278DC
:1017700001780125F2B1244A126801F1E02102F456
:10178000E062C2F5E062120AC2F10404D34042787A
:10179000A24084781C401443220181F80024007880
:1017A00000F01F018D404009800000F1E020C0F8EA
:1017B000005130BD01F01F0085404809800000F154
:1017C000E020C0F8805130BD104A114001430E485E
:1017D000001F016070470C4A121D0029116801D0DA
:1017E000014300E08143116070474FF0E02104287D
:1017F000086903D020F004000861704740F004003D
:10180000FAE700000000FA050CED00E080FFFF1F82
:10181000C54910B5884202D1012144150AE0C349E7
:10182000884202D10121041504E0C14988420AD14D
:101830000121CC03204600F079FD2046BDE8104090
:10184000002100F073BD10BD10B54268B94B0C7992
:101850001A400B6842EA0422134343608268B64B85
:101860001A40D1E9024323434C7942EA440213432C
:101870008360C26A097C22F47002491EC9B242EA3E
:101880000151C16210BD002101600171417181608F
:10189000C1600121017470470029816802D041F0C4
:1018A000010101E021F00101816070470029816898
:1018B00002D041F4807101E021F4807181607047B1
:1018C000002A4268C9B201D00A4300E08A4342605C
:1018D0007047816841F0080181607047014600202F
:1018E0008968090700D501207047816841F004012B
:1018F00081607047014600208968490700D50120B2
:1019000070470029816802D041F4A00101E021F470
:10191000A00181607047014600208968490200D516
:10192000012070474268491E22F4604242EA413178
:10193000416070470029416802D041F4006101E034
:1019400021F400614160704770B5072609290AD962
:10195000C568A1F10A0404EB4404A640B543A340C2
:101960001D43C56007E0056901EB4104A640B5438E
:10197000A3401D4305611F23072A09D2446B521E51
:1019800002EB820293409C4391400C43446370BD40
:101990000D2A09D2046BD21F02EB820293409C43B2
:1019A00091400C43046370BDC46A0D3A02EB82029D
:1019B00093409C4391400C43C46270BD00298168F0
:1019C00002D041F4801101E021F480118160704760
:1019D000C06C80B2704754484C3000687047002992
:1019E000416802D041F4806101E021F480614160EE
:1019F00070470029416802D041F4805101E021F490
:101A0000805141607047826822F4E0420A4382605C
:101A100070470029816802D041F4004101E021F4BF
:101A20000041816070470029816802D041F40211B1
:101A300001E021F4021181607047014600208968AD
:101A4000890200D50120704770B5072609290AD9F7
:101A5000C568A1F10A0404EB4404A640B543A340C1
:101A60001D43C56007E0056901EB4104A640B5438D
:101A7000A3401D430561836BC3F30154121B921CE9
:101A800002EB82021F249440A34391400B438363E3
:101A900070BD826B491E22F4401242EA01518163FB
:101AA000704708B508440090026008BD08B50844B6
:101AB00028300090006880B208BD42681F4B1A4071
:101AC0000A4342607047416282627047426822F076
:101AD0001F020A4342607047134908310028086812
:101AE00002D040F4000001E020F4000008607047DC
:101AF0000246002012680A4200D001207047C94304
:101B00000160704710B50246002054680B0AC9B244
:101B10000C401168194202D0002C00D0012010BDE9
:101B20006FEA112101607047002401400028014044
:101B3000003C0140FFFEF0FFFDF7F1FFFFFD3FFF1E
:101B40008F4910B5884206D10121042000F0EEFB38
:101B5000002104203BE08B49884206D10121082066
:101B600000F0E4FB0021082031E08749884206D1DB
:101B70000121102000F0DAFB0021102027E083492A
:101B8000884206D10121202000F0D0FB0021202036
:101B90001DE07F49884206D10121402000F0C6FBAC
:101BA0000021402013E07B49884206D1012180209A
:101BB00000F0BCFB0021802009E0774988420AD16F
:101BC00084150121204600F0B1FB00212046BDE82C
:101BD000104000F0ABBB10BD10B50121084600F06D
:101BE000A5FB0021BDE81040012000F09FBBF0B52F
:101BF000CC78002204F00F03E40601D58C7823434F
:101C00000C784FF00F0C14F0FF0F4FF0010E1BD0AB
:101C100005680E880EFA02F42640A64210D19600FE
:101C20000CFA06F725EA070703FA06F5CE783D43D6
:101C3000282E02D0482E02D002E0446100E0046168
:101C4000521C082AE5D305600A88FF2A1CD944687B
:101C5000002202F108060EFA06F50E882E40AE426A
:101C60000ED196000CFA06F7BC4303FA06F7CE78BD
:101C70003C43282E00D14561CE78482E00D1056125
:101C8000521C082AE5D34460F0BD4FF6FF71018075
:101C9000022181700421C1707047024600209268C1
:101CA0000A4200D001207047806880B27047024627
:101CB0000020D2680A4200D001207047C06880B27C
:101CC000704701617047416170470AB10161704717
:101CD00041617047C160704741F480328261816127
:101CE00082618169806970472C4B10B51A684FF684
:101CF0008074224042EA00100843186010BD284951
:101D0000C8617047F0B5254C002801DAE36900E0AE
:101D10006368450D2E0185B2C0F30157B540C0F38D
:101D20000342032F05D0C6020AD503269640B343CB
:101D300007E023F07062636823F07063636002E081
:101D4000AB4343F0706201B12A43002801DAE2613B
:101D5000F0BD6260F0BD10B58A0721F003040F49A1
:101D6000120F21440F238C6893409C438C608B6836
:101D7000904003438B6010BD0949C1F8DC007047F7
:101D800000080140000C0140001001400014014017
:101D900000180140001C01400020014000000140EB
:101DA00000002042C64910B588424FF0010101D120
:101DB0004C0501E04FF48004204600F0C0FA2046B4
:101DC000BDE81040002100F0BABA70B50446808822
:101DD00086B00D4620F03F06684600F044FAB94947
:101DE0000298B0FBF1F189B20E43A680228822F05E
:101DF00001022280B44B2A689A421CD85200B0FBE0
:101E0000F2F080B2042800D20420491C2184A0836F
:101E1000208840F00100208020884FF6F5310840EE
:101E2000A9886A89114301432180A8892989084327
:101E3000208106B070BDEB88A3F53F46FF3E0BD076
:101E400002EBC20303EB0212B0FBF2F080B240F4EB
:101E50008040020506D007E002EB4202B0FBF2F040
:101E600080B2F6E740F001004FF4967251434FF410
:101E70007A72B1FBF2F140F40040C6E741F28831DA
:101E80000160002181804BF6FF72C2800181418197
:101E90004FF48041818170470029018802D041F0D0
:101EA000010101E021F001010180704700298188D2
:101EB00002D041F4006101E021F4006181807047AB
:101EC0000029818802D041F4805101E021F4805141
:101ED000818070470029018802D041F4807101E0BF
:101EE00021F48071018070470029018802D041F4FB
:101EF000007101E021F40071018070470029018820
:101F000002D041F4806101E021F4806101807047DA
:101F1000828901F0FE0122F0FE02114381817047A7
:101F20000029818902D041F0010101E021F0010185
:101F3000818170470029018802D041F0400101E011
:101F400021F0400101807047002A828801D00A43B5
:101F500000E08A438280704701827047008AC0B2E5
:101F6000704712B141F0010101E001F0FE01018270
:101F7000704708B508440090008808BD0029018812
:101F800002D041F4004101E0C1F30E01018070472D
:101F9000B1F5006F018803D021F400610180704722
:101FA00041F40061FAE7B1F5005F018803D021F444
:101FB00000510180704741F40051FAE7002901887F
:101FC00002D041F4805101E021F48051018070473A
:101FD000B1F5006F018803D021F4006101807047E2
:101FE00041F40061FAE70029018802D041F02001A4
:101FF00001E021F0200101807047008B000A70474A
:102000000029018802D041F0100101E021F0100107
:10201000018070470029018803D021F080010180F0
:10202000704741F08001FAE7B1F5804F818B02D013
:1020300021F4804101E041F48041818370470346EF
:1020400000209A8A1B8B42EA034222F07F4291438E
:1020500000D101207047818A008B41EA004121F0C4
:102060007F4070470CB50246002000920A0F21F015
:102070007F41019202D0009A143202E0009A090CCA
:102080001832009212680A4200D001200CBDC943E8
:102090008182704710B5034600209A884FF4E064AF
:1020A00004EA11449B8A224021F07F410B4202D076
:1020B000002A00D0012010BDC94381827047000072
:1020C0000054004040420F00A0860100AE48016865
:1020D00041F0010101604168AC4A11404160016872
:1020E000AB4A11400160016821F480210160416820
:1020F00021F4FE0141604FF41F0181600021C162A3
:102100007047A1490A6822F480320A600A6822F402
:1021100080220A60B0F5803F07D0B0F5802F03D150
:10212000086840F4A02008607047086840F48030D8
:10213000F9E7034600205909934A01290AD00229E8
:102140000AD0516A03F01F02012393400B4200D0D2
:10215000012070471168F5E7116AF3E718B5002010
:102160004FF4A06400903120FFF7E3FF0099491C71
:102170000091A14201D00028F5D03120FFF7D9FF0E
:10218000002800D0012018BD7F4A116821F0F80115
:1021900041EAC000106070477E49086070477A4B82
:1021A0005A68084322F47412104358607047794902
:1021B00008667047744B10B5DA6A774C08432240C2
:1021C0001043D86210BD704A516821F003010143E9
:1021D000516070476C48406800F00C0070476A4AD4
:1021E000516821F0F001014351607047664A51681F
:1021F00021F4E061014351607047634A516821F462
:10220000605141EAC000506070475F4A0029517A2E
:1022100001D0014300E08143517270475D49C1F82C
:10222000D8007047584A516821F440410143516039
:1022300070475549002281F8202081F8202001288C
:1022400002D0042802D1052081F8200070475349AC
:10225000086070474C490A6A02430A6270474F4956
:1022600044390860704730B5474A51684C4B11F00B
:102270000C0104D04B4C042903D0082903D003607F
:1022800017E0046015E05168536801F470114FF0D5
:10229000020513F4803F05EB914107D0D36A03F0A8
:1022A0000F035B1CB4FBF3F34B43E8E73E4B59438E
:1022B000016051680F2303EA11113C4B5C5C01681B
:1022C000E14041605468072505EA14241C5D21FAA9
:1022D00004F48460546805EAD4241B5DD940C160CD
:1022E0005268032303EA9232304B1B1F9A5CB1FB06
:1022F000F2F1016130BD244A0029516901D0014346
:1023000000E08143516170471F4A0029916901D063
:10231000014300E08143916170471B4A0029D16964
:1023200001D0014300E08143D1617047164A002982
:10233000D16801D0014300E08143D1607047124A67
:102340000029116901D0014300E081431161704708
:1023500012494039086070470E49C86470470A49FD
:10236000C87170470848416A41F080714162704706
:10237000054A0146002092680A4200D001207047B9
:102380000149887270470000001002400000FFF809
:10239000FFFFF6FE00004242F0FFFEFF80044242D3
:1023A00000127A00001BB70000093D003400002035
:1023B000F94910B5884202D10121C41486E0B0F178
:1023C000804F09D0F54988420DD101210220FFF745
:1023D000B6FF0021022064E001210846FFF7AFFFAD
:1023E000002101205DE0EE49884206D10121042050
:1023F000FFF7A5FF0021042053E0EA49884206D1F7
:1024000001210820FFF79BFF0021082049E0E64951
:10241000884206D101211020FFF791FF00211020F2
:102420003FE0E249884206D101212020FFF787FFE3
:102430000021202035E0DE49884202D101214414E8
:1024400044E0DC49884202D10121CC043EE0DA4973
:10245000884202D101210C0538E0D849884202D1D6
:1024600001214C0532E0D649884206D101214020A5
:10247000FFF765FF0021402013E0D249884206D1D2
:1024800001218020FFF75BFF0021802009E0CE4979
:1024900088420AD1841501212046FFF750FF002110
:1024A0002046BDE81040FFF74ABFC849884202D124
:1024B00001210C040AE0C649884202D101214C04E2
:1024C00004E0C44988420AD101218C042046FFF768
:1024D0002DFF2046BDE810400021FFF727BF10BDAB
:1024E00030B50288AC4CB24DA0420DD0A8420BD002
:1024F000B0F1804F08D0A94B984205D0A84B984224
:1025000002D0A84B984203D122F070034A881A43A4
:10251000A54B984206D0A54B984203D022F44073B5
:10252000CA881A4302808A8882850A880285A04266
:102530000AD0A84208D0A54A904205D0A44A9042A9
:1025400002D0A44A904201D1097A018601218182F8
:1025500030BD30B5028C22F001020284028C8388E7
:10256000048B22F0020224F073050C882C430D89A1
:1025700015434A882A43884DA8420BD08C4DA84267
:1025800008D0924DA84205D0914DA84202D0914D5D
:10259000A8420DD122F008054A8923F440732A434A
:1025A00022F004058A882A438D891D43CB892B4359
:1025B00083800483C9888186028430BD70B5028C13
:1025C00022F010020284028C8388048B0D8824F48C
:1025D000E6464FF6FF7404EA052535430E8922F0DE
:1025E000200204EA061616434A8804EA021232431D
:1025F000694EB04202D06E4EB04215D122F0800634
:102600004A8923F4406304EA0212324322F040066E
:102610008A8804EA021232438E8904EA86061E433F
:10262000CB8904EA8303334383800583C988018708
:10263000028470BD70B5028C22F480720284028C18
:102640008388848B0D8824F0730425430E894FF60C
:10265000FF7422F4007204EA062616434A8804EA4C
:10266000022232434C4EB04202D0514EB04215D1FC
:1026700022F400664A8923F4405304EA02223243DA
:1026800022F480668A8804EA022232438E8904EAB0
:1026900006161E43CB8904EA0313334383808583E4
:1026A000C9888187028470BD70B5028C22F4805283
:1026B0000284058C8288838B0C8823F4E6464FF6CF
:1026C000FF7303EA0424344325F400560D8903EA1A
:1026D000053535434E8803EA06362E432E4DA84273
:1026E00002D0334DA84205D122F480458A8903EAFD
:1026F00082122A4382808483C988A0F8401006840D
:1027000070BD828B22F440628283828B4FF6FF730E
:1027100003EA01210A4382837047828B22F00C0274
:102720008283828B0A4382837047028B22F4406249
:102730000283028B4FF6FF7303EA01210A430283EF
:102740007047F0B5048C24F010040484078B048CCB
:102750004FF6FF7527F4734705EA03333B4305EA59
:1027600002221A430C4B05EA011698420ED0104B78
:1027700098420BD0B0F1804F08D0084B984205D05A
:10278000074B984202D0074B984225D124F02001F4
:10279000314341F0100124E0002C014000040040CE
:1027A00000080040000C00400010004000140040F1
:1027B00000340140004C01400050014000540140F1
:1027C00000180040001C0040002000400040014074
:1027D000004401400048014024F0A0030B4343F0B3
:1027E000100102830184F0BD028B22F00C020283EF
:1027F000028B0A430283704770B5048C24F00104F5
:102800000484058B048C4FF6FF7606EA031313430A
:1028100025F0F305F84A2B4390420ED0F74A904238
:102820000BD0B0F1804F08D0F54A904205D0F54A60
:10283000904202D0F44A904202D124F0020201E018
:1028400024F00A020A4342F001010383018470BDAF
:102850002DE9F84F0D4604460888E74FDFF89CC382
:10286000DFF89C83DFF89C934988AA882B894FF076
:10287000804A48B304282FD04FF6FF7608289346A5
:1028800032D0208C9E4620F480502084A38B208C54
:1028900006EA0132009223F4734306EA0B221A433C
:1028A00006EA0E331343BC420AD0644508D05445AF
:1028B00006D0444504D04C4502D0D34A944242D17C
:1028C00020F40050009940E02046FFF795FFE9888A
:1028D0002046BDE8F84F87E72046FFF732FFE9883A
:1028E0002046BDE8F84F20E7208C20F4807020843B
:1028F000B4F81CE0208C06EA031306EA01222EF04D
:10290000F30E43EA0B0343EA0E030092BC420AD0E3
:10291000644508D0544506D0444504D04C4502D007
:10292000B94A944203D120F40070009901E020F4E8
:102930002060084340F48070A3832084E988204607
:10294000BDE8F84FE9E620F40240084340F4805027
:10295000A3832084E9882046BDE8F84FD1E62DE91D
:10296000F0410C46002649880746012501B9022698
:10297000A288012A00D10225208823890028384610
:1029800010D0FFF7DEFEE1883846FFF7CEFE238940
:102990002A4631463846FFF72FFFE1883846BDE822
:1029A000F04121E7FFF728FFE1883846FFF71CFFD9
:1029B00023892A4631463846FFF7C3FEE188384668
:1029C000BDE8F041B1E610B50A884B88CC881A43BF
:1029D0008B8823431A430B891A434B8989891A43ED
:1029E0000A43A0F8442010BD4FF6FF7181800021FA
:1029F0000180C180418001727047002101804180C7
:102A00008180C180018141818181C1817047002124
:102A10000180418001228280C180018170470021B4
:102A2000018041808180C180018141818181704725
:102A30000029018802D041F0010101E021F00101EB
:102A400001807047002930F8441F02D041F4004152
:102A500001E0C1F30E0101807047002A828901D094
:102A60000A4300E08A4382817047818270471143A4
:102A7000A0F848107047002A828901D00A4300E07C
:102A80008A4382817047018921F0070101817047E3
:102A9000028922F070020A430281704700B50346A2
:102AA000FFF7F6FF188940F00700188100BD70B5E8
:102AB00016460D46602904464FF0010231460AD001
:102AC000FFF79AFE29462046FFF7E2FF208940F0F3
:102AD0000700208170BDFFF734FEF3E730B50489AD
:102AE0004FF6FF7505EA03231343E4B20B43234378
:102AF000038130BD10B50446FFF7F0FF208940F098
:102B00007700208110BD10B50446FFF7E7FF20894C
:102B100040F48040208110BD018582827047028888
:102B200022F070020A430280704770B50589048B59
:102B3000068C25F007050D434FF6FC410C4040F292
:102B400001110C434FF6FF7101EA031126F0220632
:102B50001143314305810483018470BD028B22F04F
:102B600070020A4302837047028B4FF6FF7322F410
:102B7000E04203EA0121114301837047828B22F076
:102B800070020A4382837047828B4FF6FF7322F4F0
:102B9000E04203EA01211143818370470029018843
:102BA00002D041F0800101E021F0800101807047F6
:102BB0000029818802D041F0040101E021F00401E4
:102BC000818070470029818802D041F0080101E02E
:102BD00021F00801818070470029818802D041F0EE
:102BE000010101E021F0010181807047028B22F098
:102BF00008020A4302837047002C01400034014060
:102C00000004004000080040000C0040028B4FF61A
:102C1000FF7322F4006203EA012111430183EAE712
:102C2000828B22F008020A438283E4E7828B4FF60C
:102C3000FF7322F4006203EA012111438183DAE782
:102C4000028B22F004020A430283D4E7028B4FF680
:102C5000FF7322F4806203EA012111430183CAE772
:102C6000828B22F004020A438283C4E7828B4FF6F0
:102C7000FF7322F4806203EA012111438183BAE7E2
:102C8000028B22F080020A430283B4E7028B4FF6E4
:102C9000FF73C2F30E0203EA012111430183AAE785
:102CA000828B22F080020A438283A4E7828B4FF654
:102CB000FF73C2F30E0203EA0121114381839AE7F5
:102CC000028C22F002020A43028494E7028C22F072
:102CD00008020A4302848EE7028C4FF6FF7322F04B
:102CE000200203EA01111143018484E7028C4FF6AC
:102CF000FF7322F0800203EA0111114301847AE795
:102D0000028C4FF6FF7322F4007203EA0121114393
:102D1000018470E7028C4FF6FF7322F4006203EA2D
:102D200001211143018466E7028C4FF6FF7322F400
:102D3000005203EA0131114301845CE710B501231D
:102D4000048C8B409C430484038C8A40134303848B
:102D500010BD10B50423048C8B409C430484038C69
:102D60008A401343038410BD30B50124058C00F163
:102D700018038C40A543058489B108290FD0091F89
:102D8000C1F34E001844016821F4E041016001687C
:102D90004FF6FF7303EA02221143016030BD03EBDB
:102DA0005100016821F0700101600168F4E7002919
:102DB000018802D041F0020101E021F0020101800E
:102DC00019E70029018802D041F0040101E021F057
:102DD000040101800FE70029818802D041F08001C1
:102DE00001E021F08001818005E7028822F00802DD
:102DF000028002880A430280FDE6828822F0700287
:102E0000828082880A438280F5E6028922F00702E6
:102E1000028102890A430281EDE6028922F08002E2
:102E2000028102890A430281E5E68184E3E6818525
:102E3000E1E68186DFE60187DDE68187DBE6A0F853
:102E40004010D8E6028822F44072028002880A43C9
:102E50000280D0E6808ECEE6008FCCE6808FCAE678
:102E6000B0F84000C7E6808CC5E6008DC3E6024698
:102E70000020128A0A4200D00120BCE6C943018228
:102E8000B9E602460020138A92890B4202EA010247
:102E900002D0002A00D00120ADE6C9430182AAE693
:102EA000C44910B588420AD101218C032046FFF79E
:102EB0003DFA2046BDE810400021FFF737BABE4971
:102EC000884202D101214C0410E0BC49884202D161
:102ED00001218C040AE0BA49884202D10121CC04C4
:102EE00004E0B84988420AD101210C052046FFF7C9
:102EF00026FA2046BDE810400021FFF720BA10BD99
:102F000030B50446008A85B00D464CF6FF71084086
:102F1000E98801432182A0894EF6F3110840A9886F
:102F20002A8911436A8902431143A181A08A4FF67D
:102F3000FF410840A9890143A1826846FFF793F940
:102F40009C48844201D1039800E00298A1890904B9
:102F500000EBC00101EB0010296801D5490000E039
:102F60008900B0FBF1F06422B0FBF2F109010B091A
:102F70006FF018056B4300EB8300A3891D044FF02D
:102F8000320306D503EBC000B0FBF2F000F00700FF
:102F900005E003EB0010B0FBF2F000F00F00084377
:102FA000208105B030BD4FF41651016000218180B1
:102FB000C18001810C2242818181704710B5028A53
:102FC0004FF2FF031A400B884C8823438C88C98832
:102FD0000C4323431343038210BD00210180418031
:102FE0008180C18070470029818902D041F400515D
:102FF00001E021F400518181704710B5C1F3421303
:1030000001F01F040121A140012B07D0022B07D0A2
:103010001430002A026805D00A4304E00C30F8E7B7
:103020001030F6E78A43026010BD002A828A01D080
:103030000A4300E08A4382827047028A22F00F022C
:103040000282028A0A4302827047828922F4006265
:10305000828182890A43828170470029818902D056
:1030600041F0020101E021F0020181817047028AF2
:1030700022F020020282028A0A430282704700295B
:10308000018A02D041F4804101E021F480410182B3
:103090007047C1F30801818070478088C0F3080041
:1030A0007047818941F0010181817047028BD2B262
:1030B0000283028B42EA012101837047028B02F4F2
:1030C0007F420283028B0A43028370470029818A70
:1030D00002D041F0200101E021F0200181827047FF
:1030E0000029818A02D041F0100101E021F0100195
:1030F000818270470029818A02D041F0080101E0F5
:1031000021F00801818270470029818902D041F4B1
:10311000004101E0C1F30E01818170470029818ADD
:1031200002D041F4006101E021F400618182704726
:10313000828A22F004028282828A0A438282704753
:103140000029818A02D041F0020101E021F0020150
:10315000818270470246002012880A4200D0012076
:103160007047C9430180704770B501F01F05012603
:103170000024C1F3421306FA05F2012B0FD0022BF3
:103180000FD0838A4FEA11210088134206FA01F614
:1031900000EA060001D000B10124204670BD8389F9
:1031A000F0E7038AEEE70A0A01219140C943018052
:1031B00070470000003801400044004000480040D3
:1031C000004C004000500040094880470948004733
:1031D000FEE7FEE7FEE7FEE7FEE7FEE7FEE7FEE7C7
:1031E000FEE7FEE704480549054A064B7047000024
:1031F000250A000821010008900F002090150020EA
:103200009011002090110020032A40F2308010F02D
:10321000030C00F0158011F8013BBCF1020F624471
:1032200098BF11F801CB00F8013B38BF11F8013B02
:10323000A2F1040298BF00F801CB38BF00F8013BAF
:1032400011F0030300F02580083AC0F0088051F81F
:10325000043B083A51F804CBA0E80810F5E7121D2A
:103260005CBF51F8043B40F8043BAFF30080D20749
:1032700024BF11F8013B11F801CB48BF11F8012B15
:1032800024BF00F8013B00F801CB48BF00F8012B38
:10329000704710B5203AC0F00B80B1E81850203AC2
:1032A000A0E81850B1E81850A0E81850BFF4F5AFE6
:1032B0005FEA027C24BFB1E81850A0E8185044BF70
:1032C00018C918C0BDE810405FEA827C24BF51F8DD
:1032D000043B40F8043B08BF7047D20728BF31F8D1
:1032E000023B48BF11F8012B28BF20F8023B48BF22
:1032F00000F8012B70474FF000020429C0F0128043
:1033000010F0030C00F01E80CCF1040CBCF1020F95
:1033100018BF00F8012BA8BF20F8022BA1EB0C016D
:1033200000F010B85FEAC17C24BF00F8012B00F860
:10333000012B48BF00F8012B70477047704770475A
:103340004FF0000200B5134694469646203922BF3E
:10335000A0E80C50A0E80C50B1F12001BFF4F7AF89
:10336000090728BFA0E80C5048BF0CC05DF804EB6B
:10337000890028BF40F8042B08BF704748BF20F8D9
:10338000022B11F0804F18BF00F8012B70477546D3
:1033900000F028F8AE4605006946534620F00700C5
:1033A000854618B020B5FFF71DFFBDE820404FF05F
:1033B00000064FF000074FF000084FF0000B21F01F
:1033C0000701AC46ACE8C009ACE8C009ACE8C009EC
:1033D000ACE8C0098D4670470446AFF30080204634
:1033E000FCF7E5FE004870472C0F0020014918202B
:1033F000ABBEFEE72600020070470000064B10B58A
:103400000021064A1C6801E0491C89B2B4FBF2F3B2
:1034100043438B42F8D810BD0C00002040420F00FF
:1034200021F00042A2F16052B2F5801F01F000438A
:1034300028BFD2F17F6C0BD95FEA001C43EAC202BD
:1034400042EB507018BF704728BF20F00100704752
:10345000B2F5801FBCBF184670474FEA410C1CF5FF
:10346000001F02D2084600F07EBC70B500F0D0FA12
:1034700000000089FFF7F6BF4FF00040A0F5800084
:103480007047000010B591EA030F48BF83F0004376
:1034900000F12683841A71EB030C05D2121943EB59
:1034A0000C03001B61EB0C01DFF824E14FEA11541F
:1034B000A4EB135C1EEA430F18BF9EEA445F73D06F
:1034C00023EA0E03DCF1200E21EA045143F48013B9
:1034D00032D322FA0CFE10EB0E0023FA0CFE41EB65
:1034E0000E01CCF1200E03FA0EFE10EB0E0051F18E
:1034F0000001B1F5801FCCF1200E32D201EB045156
:1035000012FA0EF2BDE8104058BF7047401C38BF99
:103510005FEA420218BF7047002814BF20F0010084
:1035200041F100014FEA410313F5001F38BF704716
:10353000A1F1C04100F0BABA012A43EB0302ACF199
:10354000200CDCF11F0E32BF4FF0000E23FA0CF3FB
:1035500010EB030041EB0451B4EB115FD0D0A1EBB1
:10356000045101F5801149085FEA300001EB045174
:103570000ED350F1000038BF12FA0EFE08D1BDE89C
:103580001040C9E7401C38BF5FEA4202CAD1C3E716
:10359000BDE810404FEA410313F5001F38BF7047E4
:1035A000A1F1C04100F082BA9EEA445F08D011EA5E
:1035B0005E0FBDE8104004BF01F0004100207047DD
:1035C000BDE8104070B500F023FA00BF64FBBE3EBA
:1035D0000000E0FF02494FF0000000F0C9BB00BF4F
:1035E0000000F87F2DE9C04130B4DFF8A0C23CEA0A
:1035F000111418BF3CEA131400F0EC8081EA0305B3
:103600001CEA111444EAD57418BF1CEA131500F023
:10361000C780A4EB05044FF0004545EAC12145EA07
:10362000C32341EA505143EA525304F17F74994253
:1036300004F500344FEAC0204FEAC22208BF90428E
:1036400000F09C804FEA13650FF24016765D4FEA5A
:10365000134506FB05F7C7F1807706FB07F74FEA2E
:10366000D737A7FB03687642C8F58038A7FB06CE9C
:1036700038BFA8F1010807FB08E64FF0000EA6FBD3
:10368000028CE6FB03CEDCF1000CCEF1004E38BF1D
:10369000AEF1010EA6FB0C584FF000074FF00005ED
:1036A000E6FB0E87A1FB08C6A0FB07CE16EB0E06B5
:1036B00045F10005E1FB076515F1E04E7EBFA4F57D
:1036C00080345FEA46066D4116F1800745F100053A
:1036D0004FEA17274FEA066647EA0567A6F1DE4676
:1036E000B6F1805F4FEA15251FD9384624F0010C4A
:1036F00005EBC471BCF1FE6F01EB0C1102D8F0BCFC
:10370000BDE8008124425CBF01F5801E9EEAC47FB3
:1037100002D4F0BCBDE80081244238D4F0BCA1F151
:10372000C041BDE8004100F0C1B94FEAD22242EAEF
:1037300043524FEAD323A7FB02864FEAD02040EA48
:10374000415007FB03661EEA0E0F4FEAD12105FB2D
:10375000026658BFA6EB0056B6EB00564FEA520E73
:103760004EEAC37E18EB0E0E56EB530EBDD518EB8A
:1037700002085E417F1C55F10005B6E74FF4801545
:103780004FF000074FF000064FF00008ADE7F0BC27
:103790004FF0000001F1C04101F00041BDE800819F
:1037A00011EA0C1F0CEA131500D00CE013EA0C1FF1
:1037B00000F025804FF00000F0BC81EA030101F029
:1037C0000041BDE80081F0BCBDE8004181EA030191
:1037D00000F06CB9F0BCBDE8004170B500F018F91C
:1037E000097EFC3E00F007B881EA03014FF00000BB
:1037F00001F00041704781EA030100F057B9F0BCC5
:10380000BDE800414FF0000021497047FFFDFBF982
:10381000F7F5F4F2F0EEEDEBE9E8E6E4E3E1E0DE03
:10382000DDDBDAD8D7D5D4D3D1D0CFCDCCCBCAC875
:10383000C7C6C5C4C2C1C0BFBEBDBCBBBAB9B8B79C
:10384000B6B5B4B3B2B1B0AFAEADACABAAA9A8A88F
:10385000A7A6A5A4A3A3A2A1A09F9F9E9D9C9C9B5D
:103860009A99999897979695959493939291919008
:103870008F8F8E8E8D8C8C8B8B8A89898888878799
:103880008685858484838382828181800000FF070E
:103890000000F87FB0FA80F310FA03F10AD0C3F108
:1038A0001D0303F580634FEA41504FEA035202EBD8
:1038B000D12170474FF0000070470000DFF848C189
:1038C00070B51CEA111E1EBF1CEA13159EEA0C0FF0
:1038D00095EA0C0F00F06F8081EA030423EA4C1391
:1038E0004EEAD47E21EA4C1141F4801143F4801356
:1038F000AE44A1FB024CA0FB0365AEF17F7E3619FE
:1039000055EB0C05A1FB034C4CF10003A0FB021C82
:1039100016EB0C06654153F10003094218BF46F04F
:10392000010613F4007F0BD14FEA03314FEA053053
:10393000340341EA155140EA16506FF003020AE0E1
:103940004FEAC3214FEAC520F40241EA555140EA4B
:1039500056506FF0020202EB2E4201EB025585EA4F
:10396000CE710AD05FEA440C18BF24F0004450F135
:10397000000041F1000120EAD47040F2FE7C624573
:1039800000D270BDA84214BF4FF080444FF04044B5
:10399000002E08BF0024BEF1806FA8BFA1F1C04176
:1039A000BDE8704080F282804FF0000001F1C0411C
:1039B00001F0004170479EEA0C0F0CEA131518BF86
:1039C00095EA0C0F06D04FF0000081EA030E0EF0CE
:1039D000004170BD00F01CF88900013E00F007B8FE
:1039E00000F009B84FEA430C5FEA5C5C08D081EA5A
:1039F000030100F05BB84FEA410C5FEA5C5CF6D172
:103A00004FF00000014970470000FF070000F87FF9
:103A10000EF1020E2EF0030E5EF8046B364205D452
:103A2000012A43EB030515F5001F12D8012841EBCD
:103A3000010C1CF5001F0CD80ED14FEAD17C15F5F6
:103A4000001F0CEB4C0C0CF1020C08BF4CEBD37CB0
:103A500004E04FF0080C01E04FEAD37C0CEB4C057E
:103A600026FA05F606F00706B6F1040C06D20EEBB0
:103A7000860CBDE870404CF0010C6047DFE80CF0AC
:103A8000090B02024FF000414FF00000A1F50021A8
:103A900070BD19461046012851EB010418BFD4F53A
:103AA000001484BF002001F0004170BD0808A0F59B
:103AB00000114FEA3101704791EA030F10B581F010
:103AC00000413FF5E7AC83F0004300F009B8000087
:103AD00010B591EA030F48BF83F000433FF5DAAC1D
:103AE000841A71EB030C07D212198CF0004C43EBD3
:103AF0000C03001B61EB0C01DFF8A4E14FEA115449
:103B0000A4EB135C1EEA430F18BF9EEA445F00F06B
:103B1000B08023EA6E03524221EA0451C3EB6E03E4
:103B200038BF5B1EDCF1200E25D322FA0CFE10EB11
:103B30000E0043FA0CFE41EB0E01CCF1200E03FA0D
:103B40000EFE10EB0E0051F10001CCF1200E29D435
:103B500012FA0EF201EB0451BDE8104058BF704755
:103B6000401C1CBFB2F1004F704700280CBF491C1D
:103B700020F00100704712EB020E43EB030218BF66
:103B80004FF0010E4EEA4202ACF1200CDCF11E0EA9
:103B900054D943FA0CFE10EB0E0051F1FF31CCF179
:103BA0001E0ED5D50EF1010E12FA0EFE404141EB6C
:103BB000010101EB445C5FEA5C5C10D910EBDE7044
:103BC00001EB045138BFBEF1004FBDE8104018BFF3
:103BD000704700280CBF491C20F00100704730D20C
:103BE0004FEAD42C11F5001124F400641BD0B1FA73
:103BF00081F20B3AA41AA41ED2F12003914030FAAC
:103C000003F31943904001EBCC71002C01EB0451FC
:103C1000BDE81040A8BF704701F1C0414FF000005F
:103C200001F000417047B0FA80F310FA03F100D1BF
:103C300010BDE41A173C4805C90AE4E701EB04513A
:103C400010BD491001EB0451BDE810404FEA3000AF
:103C500002E04FF0000170474A0008BF0042F8D070
:103C6000B2F5001F28BF704701F000414FF000007F
:103C700070479EEA445F07D011EA5E0FBDE810402E
:103C800004BF002100207047BDE8104070B5FFF769
:103C9000BFFE00BF40DFF63E83F000411046704794
:103CA0000000E0FF41000B0ED3F19E0208D950F452
:103CB00000034FEA032323FA02F048BF4042704753
:103CC00010B500F00AF800BF499224800020704728
:103CD0006FF0004282EA200070470EF1020E2EF0D3
:103CE000030E5EF8044B244204D44FEA4102B2F1C1
:103CF0007F4F11D84FEA4003B3F17F4F0CD80ED15C
:103D00004FEAD07CB2F17F4F0CEB4C0C0CF1020C63
:103D100008BF4CEBD17C04E04FF0080C01E04FEA07
:103D2000D17C0CEB4C0324FA03F404F00704B4F147
:103D3000040C06D20EEB840CBDE810404CF0010CD4
:103D40006047DFE80CF0070802024FF00040A0F5E2
:103D5000800010BD0846420018BFD2F1807288BFB3
:103D600000F0004010BDFF2141EAD050C00570476F
:103D70000CF00F03092B08BF082000F059800A2B14
:103D80000BD0082B18BF704708BF1CF0400F0AD09B
:103D90004FF000004FF0000170471CF0400F18BFBB
:103DA0004FF0004070471CF0100F08D020F0704317
:103DB00000F07F4242EAD3014FEA4370704700F0BF
:103DC000604021F07F4242EA000201F07F4040EA79
:103DD000727070474FF0FF0C4CF4E06C1CEA11530A
:103DE0001CBF9CEA030C9445C2BFDA4201EB0251AE
:103DF0007047002B0DD0BCF1000F0FD0002A01F04E
:103E00000041A4BF41F0E04141F07F614FF000006C
:103E1000704701F000414FF00000704750EA013355
:103E20004FF09B0C18BF4CF0806C7FF4D3AB704705
:103E30001CF4801F11D01CF4E02F03D06FEACC31AA
:103E4000490070474FF04050EFF3008222F070427B
:103E500042EA000282F3008870474FF0000070478A
:103E600000002110422063308440A550C660E770F6
:103E7000088129914AA16BB18CC1ADD1CEE1EFF19E
:103E800001000020010000040100000801000400FE
:103E900001000004010000080008014001000000CA
:103EA00000000000100000000008014002000000B7
:103EB00000000000000000000008014004000000B5
:103EC0000000000018000000000801400800000089
:103ED0000000000004000000000801401000000085
:103EE0000000000000000000000801402000000069
:103EF0000000000000000000000801404000000039
:103F000000000000000000000008014080000000E8
:103F10000000000000000000000801400001000057
:103F20000000000010000000000801400002000036
:103F3000000000001800000000080140000400001C
:103F4000000000000400000000080140000800001C
:103F500000000000100000000008014000100000F8
:103F60000000000010000000000801400080000078
:103F70000000000010000000000C014001000000E3
:103F80000000000000000000000C014002000000E2
:103F90000000000000000000000C014004000000D0
:103FA0000000000010000000000C014008000000AC
:103FB0000000000010000000000C01401000000094
:103FC0000000000010000000000C01402000000074
:103FD0000000000010000000000C01404000000044
:103FE000000000001C000000000C014080000000E8
:103FF000000000001C000000000C01400001000057
:104000000000000010000000000C01400002000051
:104010000000000010000000000C0140000400003F
:104020000000000010000000000C0140000800002B
:104030000000000010000000000C01400010000013
:104040000000000010000000000C014000200000F3
:104050000000000010000000000C014000400000C3
:104060000000000010000000000C01400080000073
:1040700000000000100000000010014000200000BF
:10408000000000001000000000100140004000008F
:10409000000000001000000000100140008000003F
:1040A0000000000010000000C840000800000020D0
:1040B000440000005C0100080C410008440000209E
:1040C0004C1500007801000800000000000000000E
:1040D0000000000000127A00000000000000000054
:1040E00001020304060708090000000000000000A8
:1040F00000000000000000000204060800000000AC
:10410000010203040102030406070809000000007D
:10411000000000000000000000000000000000009F
:10412000000000000000000000000000000000008F
:10413000000000000000000000000000000000007F
:10414000000000000000000000000000000000006F
:1050000010B5012903D0032904D079B110E000F0D4
:1050100094F90DE001680B784168806809680088A0
:10502000BDE8104082B2184600F02EB900F028FA10
:10503000002010BD70B50446012809D00022F94DAA
:1050400010212846FCF741FE012C03D0012202E08A
:105050000122F4E7002208212846FCF736FEF24838
:1050600080F8324070BD10B50446012801D00122FD
:1050700000E000224FF48051EC48FCF726FE012CA2
:1050800009D000224FF40051E948FCF71EFEE64823
:1050900080F8334010BD0122F4E770B504460128C2
:1050A00001D0012200E00022DE4D4FF400412846ED
:1050B000FCF70BFE012C09D000224FF4805128464A
:1050C000FCF703FED84880F8364070BD0122F4E7B3
:1050D00010B50446002000F08CFB002000F097FB88
:1050E000002000F0A2FB002000F0B8FB002000F040
:1050F000E0FBC4B1012C1BD0022C20D0032C29D101
:10510000012000F076FB012000F08FFB012000F071
:105110007EFB012000F0A2FB0120FFF78BFF0120A6
:10512000BDE810409FE7BDE81040012000F0C1BB82
:10513000012000F05EFB012000F077FBECE701208E
:1051400000F065FB012000F089FB0220FFF772FFF1
:105150000220E5E710BDF8B500250E460746ADF87C
:1051600000502C460AE069463846FBF76DFE0128E0
:1051700002D1BDF800000544641CE4B2B442F2D38D
:10518000A8B2B0FBF4F0F8BD10B54078FFF752FFBD
:10519000012010BD10B54078FFF765FF012010BD5C
:1051A00010B5407800F068FB012010BD10B54078C4
:1051B00000F070FB012010BD10B54078FFF76DFFC7
:1051C000012010BD10B5014600784C7808B10128C7
:1051D00006D13CB1012C05D0022C03D0032C01D008
:1051E000002010BDFFF759FF2046FFF771FF012097
:1051F00010BD10B5407800F0FCFA012010BD10B5CC
:10520000407800F004FB012010BD10B5407800F09C
:105210000CFB012010BD10B5407800F01FFB0120F1
:1052200010BD10B5417802783F2903D8012A03D078
:10523000022A03D0002010BD7E4801E07D480C30DA
:10524000FBF7FEFC0028F6D0012010BD764910B512
:10525000088F4887888704223A31734800F031FB71
:10526000714904223C31704800F02BFB012010BD35
:10527000FBF7C0FA70480168704A01F4E06111431D
:105280000160BFF3408FFEE72DE9F74F0E78DFF89E
:10529000B0910F4680464FF0010B01F1010A002545
:1052A00009EB0514217841453BD16078B04201D02B
:1052B000FF2806D1E26822B13846029990470028BB
:1052C00039D0606818B3A178022905D021B101292D
:1052D00011D003290FD024E06178FF2907D0B14213
:1052E0001FD10146227A5046FDF78EFF19E0014694
:1052F000227A3846F8E76178FF2909D0B14210D107
:10530000227A5146FDF780FFA078012803D008E0FB
:10531000227A3946F6E7227A4348616800F0D1FAEA
:1053200083466D1CEDB2392DBAD33F48454990F8FC
:10533000440008705846BDE8FE8F2DE9F0414FF457
:10534000FA7421463848FDF7D6FF21463E48FDF75E
:10535000D2FF374C4FF48047002239462046FCF7F5
:10536000B4FC4FF40048002241462046FCF7ADFC57
:10537000334E2D4D002406EB0411887830B94B686C
:105380000A7A581B80B21946FBF7AEFC641CE4B2E3
:10539000392CF0D32B4915F8440F08701120E87010
:1053A0006220287150206871FBF7F2F92749E880E4
:1053B000088015F8441D0020FF2900D12870697865
:1053C000FF2900D16870174C012239462046FCF7AE
:1053D0007CFC0021491CC829FCDBA87808B101220B
:1053E00000E000224FF4007126462046FCF76DFCD9
:1053F000E87808B1012200E000220C4C4FF4006173
:105400002046FCF762FC287908B1012200E0002266
:105410004FF480713046FCF758FC6879C0B1012226
:1054200017E00000000C014044000020000801408B
:1054300000100140803E00080CED00E00400FA0579
:10544000D858000802000020380200200400002084
:10545000002241462046FCF738FC2878FFF71DFE65
:105460006878FFF735FE95F83010F748FBF7E8FB52
:1054700095F83110BDE8F041F3480C30FBF7E0BB84
:105480002DE9F047FBF744FC00EB800000B2EF4E43
:1054900000F22621B1F5E16F30871FD8B6F93A1036
:1054A0004FF6FF74814202DC718FA14206D1E749B9
:1054B000708704223A31E54800F003FAB6F93C104F
:1054C000B6F93800814202DBB18FA14206D1DF4933
:1054D000B08704223C31DD4800F0F3F9DA4FB6F929
:1054E00038000C370024DA4D4FF0010810F1140F8A
:1054F00010DA2878E8B985F800806C7096F83000EA
:10550000401CC1B2D048FBF79BFB96F83100401C11
:10551000C1B20BE0687860B985F801802C7096F80C
:105520003010C948FBF78CFB96F831103846FBF772
:1055300087FB10210520FFF70EFE48F6CC514843AB
:10554000C11700EB1150000BF08510210420FFF76C
:1055500002FE48F6CC514843C11700EB1150000B36
:10556000B08510210120FFF7F6FD48F6CC514843E5
:10557000C11700EB1150000B708510210620FFF7BA
:10558000EAFD42F2AC6148434FF42047B0FBF7F02C
:10559000708410210820FFF7DEFD42F2AC61484321
:1055A000B0FBF7F0B08410210720FFF7D4FD42F2E2
:1055B000AC614843B0FBF7F0F08410210920FFF7FD
:1055C000CAFD42F2AC614843B0FBF7F03085A87FDA
:1055D000411CA9771E2875D9AC77708DF18A884255
:1055E00004D2B6F8420040F4007009E0318B8842E2
:1055F000B6F8420002D940F4807001E020F4407017
:10560000A6F84200B08D718B884204D2B6F84200F1
:1056100040F4006009E0B18B8842B6F8420002D93C
:1056200040F4806001E020F44060A6F84200F08D74
:10563000F18B884204D2B6F8420040F4005009E0F1
:10564000318C8842B6F8420002D940F4805001E023
:1056500020F44050A6F84200B078012819D1708C8F
:10566000F188884204D2B6F8420040F002000EE011
:1056700031898842B6F8420007D940F00100A6F807
:105680004200002000F0B5F803E020F00300A6F887
:105690004200F07801281AD1B08C7189884204D276
:1056A000B6F8420040F008000FE0B1898842B6F831
:1056B000420008D940F00400A6F84200002000F0A3
:1056C000A6F804E055E020F00C00A6F8420030797E
:1056D000012819D1F08CF189884204D2B6F8420031
:1056E00040F020000EE0318A8842B6F8420007D927
:1056F00040F01000A6F84200002000F096F803E009
:1057000020F03000A6F842007079012819D1308DC0
:10571000718A884204D2B6F8420040F080000EE060
:10572000B18A8842B6F8420007D940F04000A6F896
:105730004200002000F092F803E020F0C000A6F83C
:105740004200B6F93800B6F93E10884204DAB6F8DD
:10575000420040F400400AE0B6F940108842B6F832
:10576000420002DD40F4804001E020F44040A6F811
:1057700042007078DFF8DC904FF4804703281FD197
:105780003078F8B9002000F094F8287B012805D182
:105790002C7300F02EF8012000F047F8B6F8420014
:1057A00010F0330F1CD010F0CC0F12D02889411C00
:1057B000298141F27071884202D92C8185F80C80D0
:1057C0007078A0B1012239464846BDE8F047FCF7A1
:1057D0007CBA2C812C730220FFF72CFC022003E002
:1057E0000120FFF727FC0120FFF73DFCE8E700223E
:1057F000E9E710B5040001D0012200E000224FF4D7
:1058000000711448FCF761FA1048847010BD10B59F
:10581000040001D0012200E000224FF400610E4894
:10582000FCF753FA0948C47010BD10B5040001D04C
:10583000012200E000224FF480710648FCF745FA8F
:105840000248047110BD0000803E000844000020A2
:1058500038020020000C01400008014010B504008F
:1058600001D0012200E000224FF400411748FCF76C
:105870002CFA17484471E5E710B5040001D0012265
:1058800000E0002220211348FCF71FFA104880F89E
:105890003440D7E710B5040009D000224FF48071DE
:1058A0000A48FCF712FA0A4880F83540CAE7012294
:1058B000F4E710B50446FFF7DFFF2046BDE81040CF
:1058C000E8E7081A80B2FBF7DBB9000000080140E6
:1058D00044000020000C014010FF010044000020A3
:1058E00002000000C551000811FF00004400002024
:1058F0000200000000000000121501004600002018
:1059000001000000F35100081225010047000020AB
:1059100001000000FF51000812190100480000209A
:10592000010000000B52000812290100490000206C
:105930000100000017520008131500004600002067
:1059400001000000000000001325000047000020B7
:1059500001000000000000001319000048000020B2
:105960000100000000000000132900004900002091
:105970000100000000000000141501004A00002092
:105980000400000000000000142501004E0000206B
:105990000400000000000000141901005200002063
:1059A000040000000000000014290100560000203F
:1059B0000400000000000000141201005A00002042
:1059C0000400000000000000140901005E00002037
:1059D0000400000000000000140501006200002027
:1059E0000400000000000000151500004A0000201F
:1059F0000400000000000000152500004E000020FB
:105A000004000000000000001519000052000020F2
:105A100004000000000000001529000056000020CE
:105A20000400000000000000151200005A000020D1
:105A30000400000000000000150900005E000020C6
:105A400004000000000000001505000062000020B6
:105A5000040000000000000016150200660000208F
:105A6000020000000000000016250200680000206F
:105A70000200000000000000161902006A00002069
:105A80000200000000000000162902006C00002047
:105A90000200000000000000161202006E0000204C
:105AA0000200000000000000160902007000002043
:105AB0000200000000000000160502007200002035
:105AC0000200000000000000170101007400002027
:105AD0000100000023520008170201007500002099
:105AE000010000002352000818010000740000208B
:105AF00001000000000000001802000075000020F6
:105B000001000000000000001D01030076000020DD
:105B100001000000895100081D02030077000020E9
:105B200001000000955100081D03030078000020CB
:105B300001000000A15100081D04030079000020AD
:105B400001000000AD5100081D0503007A0000208F
:105B500001000000B95100081E010200760000207B
:105B600001000000000000001E020200770000207B
:105B700001000000000000001E0302007800002069
:105B800001000000000000001E0402007900002057
:105B900001000000000000001E0502007A00002045
:105BA000010000000000000019FF02007C0000203E
:105BB00002000000000000001AFF00007E0000202C
:105BC00004000000000000001BFF010000000000B6
:105BD000040000004D52000822FF01008200002056
:105BE000040000000000000023FF000082000020ED
:105BF00004000000000000001CFF020086000020DE
:105C0000020000000000000020FF010088000020CA
:105C1000010000000000000021FF000088000020BB
:105C2000010000000000000060FF03008900002068
:105C3000010000007152000864FF02008A00002089
:105C4000060000000000000065FF01009000002039
:105C5000280000000000000066FF00009000002007
:105C6000280000000000000000000000000000000C
:105C70000000000000000000000000000000000024
:105C80000000000000000000000000000000000014
:105C90000000000000000000000000000000000004
:105CA00000000000000000000000000000000000F4
:105FF00011000000620000005000000000000000DE
:106000000000000000000000000000000000000090
:106010000000000000000000000000000000000080
:106020000000000000000000000000000000000070
:106030000000000000000000000000000000000060
:10700000FD4A116801F03801014311607047FA49E7
:107010000A6822F008020A600A6802430A607047A0
:10702000F5490A6822F010020A600A6802430A6001
:107030007047F148F1494160F14941607047EE48BD
:10704000EE494160EE4941607047EB48016941F00B
:10705000800101617047E848016941F080010161E8
:107060007047E5490420CA68D20701D00120704763
:10707000CA68520701D502207047C968C906FBD506
:107080000320704700B50346FFF7EBFF02E0FFF770
:10709000E8FF5B1E012803D0002B00D1052000BDB6
:1070A000002BF4D1FAE770B505464FF43026304690
:1070B000FFF7E8FF042811D1CF4C206940F002000F
:1070C00020616561206940F0400020613046FFF793
:1070D000D9FF216941F6FD721140216170BD30B5C3
:1070E0004FF430252846FFF7CDFF042810D1C24CBD
:1070F000206940F004002061206940F040002061D8
:107100002846FFF7BFFF216941F6FB72114021615C
:1071100030BD00B50346FFF7A4FF02E0FFF7A1FF73
:107120005B1E012803D0002B00D1052000BD002BE1
:10713000F4D1FAE730B54FF430252846FFF7E9FFE0
:10714000042810D1AC4C206940F004002061206973
:1071500040F0400020612846FFF7DBFF216941F63F
:10716000FB721140216130BDA3490020C969890724
:1071700000D50120704770B5A525FFF7F5FF00B1D8
:1071800000254FF430263046FFF77CFF042827D136
:10719000994C9A48A0609A48A060206940F020006D
:1071A0002061206940F0400020613046FFF76AFF0F
:1071B00041F6EF7604280ED1206941F6DF710840D0
:1071C0002061206940F0100020618E4805804FF456
:1071D0000050FFF757FF052802D021693140216197
:1071E00070BDF8B5064600204FF4005C00900D46D7
:1071F0006046FFF747FF042816D17F4C206940F016
:107200000100206135806046FFF73CFF41F6FE77C4
:10721000042806D1B61C280C009630806046FFF783
:1072200031FF216939402161F8BDF0B506464FF4C0
:1072300000570D463846FFF725FF04280CD16E4C49
:10724000206940F00100206135803846FFF71AFFC1
:107250002169BA1E11402161F0BDF0B506464FF418
:1072600000570D463846FFF70DFF042813D1624C36
:107270006248A0606248A060206940F01000206170
:1072800035803846FFF7FEFE052804D0216941F617
:10729000EF7211402161F0BD2DE9F041C043C7B24A
:1072A000C0F30726C0F30745040E4FF400584046CC
:1072B000FFF7E8FE04283CD1DFF83CC14F49CCF889
:1072C00008104F49CCF80810DCF8101041F01001FC
:1072D000CCF81010FF2F07D04A48083007804046EE
:1072E000FFF7D0FE04281BD1FF2E07D045480A30F7
:1072F00006804046FFF7C6FE042811D1FF2D07D0B7
:1073000040480C3005804046FFF7BCFE042807D1FA
:10731000FF2C07D03B480E3004804046FFF7B2FEFA
:10732000052806D0DCF8101041F6EF721140CCF8B9
:107330001010BDE8F08170B505464FF43026304698
:10734000FFF7A0FE042818D12B4C2C48A0602C4835
:10735000A060206940F020002061206940F04000DA
:1073600020613046FFF78EFE41F6DF71042805D01C
:10737000052802D022690A40226170BD20690840B8
:107380002061206940F0100020611E480DB10021ED
:1073900000E0A52101803046FFF774FE0528ECD0FF
:1073A000216941F6EF721140216170BDF0B5124CB8
:1073B0000746124816460D46A0601148A0604FF4DB
:1073C000005C6046FFF75EFE042814D1206940F09F
:1073D0001000206135430B493D43891C45F0F800FE
:1073E00008806046FFF74EFE052804D0216941F66B
:1073F000EF7211402161F0BD00200240230167457A
:10740000AB89EFCD00F8FF1F1C48C06980087047AA
:107410001A48006A7047194900200968890600D592
:1074200001207047154A0029116901D0014300E08D
:1074300081431161704701460020104A012903D0A1
:10744000D2680A4203D17047D169C907FBD0012035
:1074500070470A49C860704708490420CA68D207C3
:1074600001D001207047CA68520701D50220704739
:10747000C968C906FBD50320704700000020024000
:107480000D49086070470C49486070470A49886098
:10749000704709494AF6AA200860704706494CF629
:1074A000CC4008607047044A01460020D2680A4276
:1074B00000D00120704700000030004072B6FFF796
:1074C000B8FD3420FFF7C5FF00244FF0006505EB41
:1074D0008420FFF7E8FD04281AD1FFF7DAFF641CC7
:1074E0001C2CF4D30B4C0C4E28462168FFF779FE78
:1074F00004280DD120682968884209D1FFF7C9FF07
:10750000241D2D1DB442EFD3FFF79FFDFAF70FF9AD
:0C751000FEE700000080000800F000080A
:0400000508000121CD
:00000001FF
